{
  "_format": "hh-sol-artifact-1",
  "contractName": "BeefyRewardPool",
  "sourceName": "contracts/rewardpool/BeefyRewardPool.sol",
  "abi": [
    {
      "inputs": [
        {
          "internalType": "address",
          "name": "caller",
          "type": "address"
        }
      ],
      "name": "NotManager",
      "type": "error"
    },
    {
      "inputs": [
        {
          "internalType": "address",
          "name": "reward",
          "type": "address"
        }
      ],
      "name": "RewardNotFound",
      "type": "error"
    },
    {
      "inputs": [
        {
          "internalType": "uint256",
          "name": "duration",
          "type": "uint256"
        }
      ],
      "name": "ShortDuration",
      "type": "error"
    },
    {
      "inputs": [],
      "name": "StakedTokenIsNotAReward",
      "type": "error"
    },
    {
      "inputs": [],
      "name": "TooManyRewards",
      "type": "error"
    },
    {
      "inputs": [
        {
          "internalType": "address",
          "name": "reward",
          "type": "address"
        }
      ],
      "name": "WithdrawingRewardToken",
      "type": "error"
    },
    {
      "inputs": [],
      "name": "WithdrawingStakedToken",
      "type": "error"
    },
    {
      "anonymous": false,
      "inputs": [
        {
          "indexed": false,
          "internalType": "address",
          "name": "reward",
          "type": "address"
        }
      ],
      "name": "AddReward",
      "type": "event"
    },
    {
      "anonymous": false,
      "inputs": [
        {
          "indexed": true,
          "internalType": "address",
          "name": "owner",
          "type": "address"
        },
        {
          "indexed": true,
          "internalType": "address",
          "name": "spender",
          "type": "address"
        },
        {
          "indexed": false,
          "internalType": "uint256",
          "name": "value",
          "type": "uint256"
        }
      ],
      "name": "Approval",
      "type": "event"
    },
    {
      "anonymous": false,
      "inputs": [
        {
          "indexed": false,
          "internalType": "uint8",
          "name": "version",
          "type": "uint8"
        }
      ],
      "name": "Initialized",
      "type": "event"
    },
    {
      "anonymous": false,
      "inputs": [
        {
          "indexed": true,
          "internalType": "address",
          "name": "reward",
          "type": "address"
        },
        {
          "indexed": false,
          "internalType": "uint256",
          "name": "amount",
          "type": "uint256"
        },
        {
          "indexed": false,
          "internalType": "uint256",
          "name": "duration",
          "type": "uint256"
        }
      ],
      "name": "NotifyReward",
      "type": "event"
    },
    {
      "anonymous": false,
      "inputs": [
        {
          "indexed": true,
          "internalType": "address",
          "name": "previousOwner",
          "type": "address"
        },
        {
          "indexed": true,
          "internalType": "address",
          "name": "newOwner",
          "type": "address"
        }
      ],
      "name": "OwnershipTransferred",
      "type": "event"
    },
    {
      "anonymous": false,
      "inputs": [
        {
          "indexed": false,
          "internalType": "address",
          "name": "reward",
          "type": "address"
        },
        {
          "indexed": false,
          "internalType": "address",
          "name": "recipient",
          "type": "address"
        }
      ],
      "name": "RemoveReward",
      "type": "event"
    },
    {
      "anonymous": false,
      "inputs": [
        {
          "indexed": false,
          "internalType": "address",
          "name": "token",
          "type": "address"
        },
        {
          "indexed": false,
          "internalType": "address",
          "name": "recipient",
          "type": "address"
        }
      ],
      "name": "RescueTokens",
      "type": "event"
    },
    {
      "anonymous": false,
      "inputs": [
        {
          "indexed": true,
          "internalType": "address",
          "name": "user",
          "type": "address"
        },
        {
          "indexed": true,
          "internalType": "address",
          "name": "reward",
          "type": "address"
        },
        {
          "indexed": false,
          "internalType": "uint256",
          "name": "amount",
          "type": "uint256"
        }
      ],
      "name": "RewardPaid",
      "type": "event"
    },
    {
      "anonymous": false,
      "inputs": [
        {
          "indexed": false,
          "internalType": "address",
          "name": "manager",
          "type": "address"
        },
        {
          "indexed": false,
          "internalType": "bool",
          "name": "whitelist",
          "type": "bool"
        }
      ],
      "name": "SetWhitelist",
      "type": "event"
    },
    {
      "anonymous": false,
      "inputs": [
        {
          "indexed": true,
          "internalType": "address",
          "name": "user",
          "type": "address"
        },
        {
          "indexed": false,
          "internalType": "uint256",
          "name": "amount",
          "type": "uint256"
        }
      ],
      "name": "Staked",
      "type": "event"
    },
    {
      "anonymous": false,
      "inputs": [
        {
          "indexed": true,
          "internalType": "address",
          "name": "from",
          "type": "address"
        },
        {
          "indexed": true,
          "internalType": "address",
          "name": "to",
          "type": "address"
        },
        {
          "indexed": false,
          "internalType": "uint256",
          "name": "value",
          "type": "uint256"
        }
      ],
      "name": "Transfer",
      "type": "event"
    },
    {
      "anonymous": false,
      "inputs": [
        {
          "indexed": true,
          "internalType": "address",
          "name": "user",
          "type": "address"
        },
        {
          "indexed": false,
          "internalType": "uint256",
          "name": "amount",
          "type": "uint256"
        }
      ],
      "name": "Withdrawn",
      "type": "event"
    },
    {
      "inputs": [
        {
          "internalType": "address",
          "name": "owner",
          "type": "address"
        },
        {
          "internalType": "address",
          "name": "spender",
          "type": "address"
        }
      ],
      "name": "allowance",
      "outputs": [
        {
          "internalType": "uint256",
          "name": "",
          "type": "uint256"
        }
      ],
      "stateMutability": "view",
      "type": "function"
    },
    {
      "inputs": [
        {
          "internalType": "address",
          "name": "spender",
          "type": "address"
        },
        {
          "internalType": "uint256",
          "name": "amount",
          "type": "uint256"
        }
      ],
      "name": "approve",
      "outputs": [
        {
          "internalType": "bool",
          "name": "",
          "type": "bool"
        }
      ],
      "stateMutability": "nonpayable",
      "type": "function"
    },
    {
      "inputs": [
        {
          "internalType": "address",
          "name": "account",
          "type": "address"
        }
      ],
      "name": "balanceOf",
      "outputs": [
        {
          "internalType": "uint256",
          "name": "",
          "type": "uint256"
        }
      ],
      "stateMutability": "view",
      "type": "function"
    },
    {
      "inputs": [],
      "name": "decimals",
      "outputs": [
        {
          "internalType": "uint8",
          "name": "",
          "type": "uint8"
        }
      ],
      "stateMutability": "view",
      "type": "function"
    },
    {
      "inputs": [
        {
          "internalType": "address",
          "name": "spender",
          "type": "address"
        },
        {
          "internalType": "uint256",
          "name": "subtractedValue",
          "type": "uint256"
        }
      ],
      "name": "decreaseAllowance",
      "outputs": [
        {
          "internalType": "bool",
          "name": "",
          "type": "bool"
        }
      ],
      "stateMutability": "nonpayable",
      "type": "function"
    },
    {
      "inputs": [
        {
          "internalType": "address",
          "name": "_user",
          "type": "address"
        }
      ],
      "name": "earned",
      "outputs": [
        {
          "internalType": "address[]",
          "name": "rewardTokens",
          "type": "address[]"
        },
        {
          "internalType": "uint256[]",
          "name": "earnedAmounts",
          "type": "uint256[]"
        }
      ],
      "stateMutability": "view",
      "type": "function"
    },
    {
      "inputs": [
        {
          "internalType": "address",
          "name": "_user",
          "type": "address"
        },
        {
          "internalType": "address",
          "name": "_reward",
          "type": "address"
        }
      ],
      "name": "earned",
      "outputs": [
        {
          "internalType": "uint256",
          "name": "earnedAmount",
          "type": "uint256"
        }
      ],
      "stateMutability": "view",
      "type": "function"
    },
    {
      "inputs": [],
      "name": "exit",
      "outputs": [],
      "stateMutability": "nonpayable",
      "type": "function"
    },
    {
      "inputs": [],
      "name": "getReward",
      "outputs": [],
      "stateMutability": "nonpayable",
      "type": "function"
    },
    {
      "inputs": [
        {
          "internalType": "address",
          "name": "spender",
          "type": "address"
        },
        {
          "internalType": "uint256",
          "name": "addedValue",
          "type": "uint256"
        }
      ],
      "name": "increaseAllowance",
      "outputs": [
        {
          "internalType": "bool",
          "name": "",
          "type": "bool"
        }
      ],
      "stateMutability": "nonpayable",
      "type": "function"
    },
    {
      "inputs": [
        {
          "internalType": "address",
          "name": "_stakedToken",
          "type": "address"
        },
        {
          "internalType": "string",
          "name": "_name",
          "type": "string"
        },
        {
          "internalType": "string",
          "name": "_symbol",
          "type": "string"
        }
      ],
      "name": "initialize",
      "outputs": [],
      "stateMutability": "nonpayable",
      "type": "function"
    },
    {
      "inputs": [],
      "name": "name",
      "outputs": [
        {
          "internalType": "string",
          "name": "",
          "type": "string"
        }
      ],
      "stateMutability": "view",
      "type": "function"
    },
    {
      "inputs": [
        {
          "internalType": "address",
          "name": "_reward",
          "type": "address"
        },
        {
          "internalType": "uint256",
          "name": "_amount",
          "type": "uint256"
        },
        {
          "internalType": "uint256",
          "name": "_duration",
          "type": "uint256"
        }
      ],
      "name": "notifyRewardAmount",
      "outputs": [],
      "stateMutability": "nonpayable",
      "type": "function"
    },
    {
      "inputs": [],
      "name": "owner",
      "outputs": [
        {
          "internalType": "address",
          "name": "",
          "type": "address"
        }
      ],
      "stateMutability": "view",
      "type": "function"
    },
    {
      "inputs": [
        {
          "internalType": "address",
          "name": "_reward",
          "type": "address"
        },
        {
          "internalType": "address",
          "name": "_recipient",
          "type": "address"
        }
      ],
      "name": "removeReward",
      "outputs": [],
      "stateMutability": "nonpayable",
      "type": "function"
    },
    {
      "inputs": [],
      "name": "renounceOwnership",
      "outputs": [],
      "stateMutability": "nonpayable",
      "type": "function"
    },
    {
      "inputs": [
        {
          "internalType": "address",
          "name": "_token",
          "type": "address"
        },
        {
          "internalType": "address",
          "name": "_recipient",
          "type": "address"
        }
      ],
      "name": "rescueTokens",
      "outputs": [],
      "stateMutability": "nonpayable",
      "type": "function"
    },
    {
      "inputs": [
        {
          "internalType": "uint256",
          "name": "_rewardId",
          "type": "uint256"
        }
      ],
      "name": "rewardInfo",
      "outputs": [
        {
          "internalType": "address",
          "name": "reward",
          "type": "address"
        },
        {
          "internalType": "uint256",
          "name": "periodFinish",
          "type": "uint256"
        },
        {
          "internalType": "uint256",
          "name": "duration",
          "type": "uint256"
        },
        {
          "internalType": "uint256",
          "name": "lastUpdateTime",
          "type": "uint256"
        },
        {
          "internalType": "uint256",
          "name": "rate",
          "type": "uint256"
        }
      ],
      "stateMutability": "view",
      "type": "function"
    },
    {
      "inputs": [
        {
          "internalType": "uint256",
          "name": "",
          "type": "uint256"
        }
      ],
      "name": "rewards",
      "outputs": [
        {
          "internalType": "address",
          "name": "",
          "type": "address"
        }
      ],
      "stateMutability": "view",
      "type": "function"
    },
    {
      "inputs": [
        {
          "internalType": "address",
          "name": "_manager",
          "type": "address"
        },
        {
          "internalType": "bool",
          "name": "_whitelisted",
          "type": "bool"
        }
      ],
      "name": "setWhitelist",
      "outputs": [],
      "stateMutability": "nonpayable",
      "type": "function"
    },
    {
      "inputs": [
        {
          "internalType": "uint256",
          "name": "_amount",
          "type": "uint256"
        }
      ],
      "name": "stake",
      "outputs": [],
      "stateMutability": "nonpayable",
      "type": "function"
    },
    {
      "inputs": [
        {
          "internalType": "address",
          "name": "_user",
          "type": "address"
        },
        {
          "internalType": "uint256",
          "name": "_amount",
          "type": "uint256"
        },
        {
          "internalType": "uint256",
          "name": "_deadline",
          "type": "uint256"
        },
        {
          "internalType": "uint8",
          "name": "_v",
          "type": "uint8"
        },
        {
          "internalType": "bytes32",
          "name": "_r",
          "type": "bytes32"
        },
        {
          "internalType": "bytes32",
          "name": "_s",
          "type": "bytes32"
        }
      ],
      "name": "stakeWithPermit",
      "outputs": [],
      "stateMutability": "nonpayable",
      "type": "function"
    },
    {
      "inputs": [],
      "name": "stakedToken",
      "outputs": [
        {
          "internalType": "contract IERC20Upgradeable",
          "name": "",
          "type": "address"
        }
      ],
      "stateMutability": "view",
      "type": "function"
    },
    {
      "inputs": [],
      "name": "symbol",
      "outputs": [
        {
          "internalType": "string",
          "name": "",
          "type": "string"
        }
      ],
      "stateMutability": "view",
      "type": "function"
    },
    {
      "inputs": [],
      "name": "totalSupply",
      "outputs": [
        {
          "internalType": "uint256",
          "name": "",
          "type": "uint256"
        }
      ],
      "stateMutability": "view",
      "type": "function"
    },
    {
      "inputs": [
        {
          "internalType": "address",
          "name": "_to",
          "type": "address"
        },
        {
          "internalType": "uint256",
          "name": "_value",
          "type": "uint256"
        }
      ],
      "name": "transfer",
      "outputs": [
        {
          "internalType": "bool",
          "name": "success",
          "type": "bool"
        }
      ],
      "stateMutability": "nonpayable",
      "type": "function"
    },
    {
      "inputs": [
        {
          "internalType": "address",
          "name": "_from",
          "type": "address"
        },
        {
          "internalType": "address",
          "name": "_to",
          "type": "address"
        },
        {
          "internalType": "uint256",
          "name": "_value",
          "type": "uint256"
        }
      ],
      "name": "transferFrom",
      "outputs": [
        {
          "internalType": "bool",
          "name": "success",
          "type": "bool"
        }
      ],
      "stateMutability": "nonpayable",
      "type": "function"
    },
    {
      "inputs": [
        {
          "internalType": "address",
          "name": "newOwner",
          "type": "address"
        }
      ],
      "name": "transferOwnership",
      "outputs": [],
      "stateMutability": "nonpayable",
      "type": "function"
    },
    {
      "inputs": [
        {
          "internalType": "address",
          "name": "",
          "type": "address"
        }
      ],
      "name": "whitelisted",
      "outputs": [
        {
          "internalType": "bool",
          "name": "",
          "type": "bool"
        }
      ],
      "stateMutability": "view",
      "type": "function"
    },
    {
      "inputs": [
        {
          "internalType": "uint256",
          "name": "_amount",
          "type": "uint256"
        }
      ],
      "name": "withdraw",
      "outputs": [],
      "stateMutability": "nonpayable",
      "type": "function"
    }
  ],
  "bytecode": "0x608060405234801561001057600080fd5b50612562806100206000396000f3fe608060405234801561001057600080fd5b50600436106101d95760003560e01c806373d6a88911610104578063a694fc3a116100a2578063dd62ed3e11610071578063dd62ed3e1461043b578063e9fad8ee1461044e578063f2fde38b14610456578063f301af421461046957600080fd5b8063a694fc3a146103df578063a9059cbb146103f2578063cc7a262e14610405578063d936547e1461041857600080fd5b806390657147116100de578063906571471461039e57806395d89b41146103b1578063a3cd8ac4146103b9578063a457c2d7146103cc57600080fd5b806373d6a8891461032157806381a00f83146103345780638da5cb5b1461037957600080fd5b80632e1a7d4d1161017c57806353d6fd591161014b57806353d6fd59146102ca5780635431c94e146102dd57806370a08231146102f0578063715018a61461031957600080fd5b80632e1a7d4d1461028d578063313ce567146102a057806339509351146102af5780633d18b912146102c257600080fd5b8063165d21c9116101b8578063165d21c91461024057806318160ddd14610255578063211dc32d1461026757806323b872dd1461027a57600080fd5b80628cc262146101de57806306fdde0314610208578063095ea7b31461021d575b600080fd5b6101f16101ec366004611f52565b61047c565b6040516101ff929190611f6d565b60405180910390f35b610210610594565b6040516101ff9190612015565b61023061022b366004612048565b610626565b60405190151581526020016101ff565b61025361024e366004612072565b610640565b005b6035545b6040519081526020016101ff565b610259610275366004612072565b610820565b6102306102883660046120a5565b610833565b61025361029b3660046120e1565b61085a565b604051601281526020016101ff565b6102306102bd366004612048565b610871565b610253610893565b6102536102d8366004612108565b6108a8565b6102536102eb366004612072565b610913565b6102596102fe366004611f52565b6001600160a01b031660009081526033602052604090205490565b610253610a45565b61025361032f36600461213f565b610a59565b6103476103423660046120e1565b610b00565b604080516001600160a01b0390961686526020860194909452928401919091526060830152608082015260a0016101ff565b6065546001600160a01b03165b6040516001600160a01b0390911681526020016101ff565b6102536103ac3660046121e8565b610b5e565b610210610d07565b6102536103c7366004612269565b610d16565b6102306103da366004612048565b610fa1565b6102536103ed3660046120e1565b611027565b610230610400366004612048565b61103b565b609754610386906001600160a01b031681565b610230610426366004611f52565b60996020526000908152604090205460ff1681565b610259610449366004612072565b611059565b610253611084565b610253610464366004611f52565b6110a7565b6103866104773660046120e1565b61111d565b609854606090819060008167ffffffffffffffff81111561049f5761049f61229c565b6040519080825280602002602001820160405280156104c8578160200160208202803683370190505b50905060005b8281101561052c5761050786609883815481106104ed576104ed6122b2565b6000918252602090912001546001600160a01b0316611147565b828281518110610519576105196122b2565b60209081029190910101526001016104ce565b50809250609880548060200260200160405190810160405280929190818152602001828054801561058657602002820191906000526020600020905b81546001600160a01b03168152600190910190602001808311610568575b505050505093505050915091565b6060603680546105a3906122c8565b80601f01602080910402602001604051908101604052809291908181526020018280546105cf906122c8565b801561061c5780601f106105f15761010080835404028352916020019161061c565b820191906000526020600020905b8154815290600101906020018083116105ff57829003601f168201915b5050505050905090565b6000336106348185856111e0565b60019150505b92915050565b610648611304565b6106518261135e565b61067e5760405163d6e12d4d60e01b81526001600160a01b03831660048201526024015b60405180910390fd5b6001600160a01b0382166000908152609b6020526040812054609880549192916106aa90600190612312565b815481106106ba576106ba6122b2565b600091825260209091200154609880546001600160a01b0390921692508291849081106106e9576106e96122b2565b600091825260208083209190910180546001600160a01b0319166001600160a01b039485161790559183168152609b90915260409020829055609880548061073357610733612325565b600082815260208120600019908301810180546001600160a01b03191690559091019091556040516370a0823160e01b81523060048201526001600160a01b038616906370a0823190602401602060405180830381865afa15801561079c573d6000803e3d6000fd5b505050506040513d601f19601f820116820180604052508101906107c0919061233b565b90506107d66001600160a01b03861685836113b9565b604080516001600160a01b038088168252861660208201527f650580407a4a6781be5974ccbb4e76f8e86fd7da0b6a0eda265806d936bb9cc8910160405180910390a15050505050565b600061082c8383611147565b9392505050565b600061083e84611421565b61084783611421565b6108528484846114d8565b949350505050565b3361086481611421565b61086d826114f1565b5050565b6000336106348185856108848383611059565b61088e9190612354565b6111e0565b3361089d81611421565b6108a561154a565b50565b6108b0611304565b6001600160a01b038216600081815260996020908152604091829020805460ff19168515159081179091558251938452908301527ff6019ec0a78d156d249a1ec7579e2321f6ac7521d6e1d2eacf90ba4a184dcceb910160405180910390a15050565b61091b611304565b6097546001600160a01b039081169083160361094a57604051637640a2f760e01b815260040160405180910390fd5b6109538261135e565b1561097c5760405163b4506ab160e01b81526001600160a01b0383166004820152602401610675565b6040516370a0823160e01b81523060048201526000906001600160a01b038416906370a0823190602401602060405180830381865afa1580156109c3573d6000803e3d6000fd5b505050506040513d601f19601f820116820180604052508101906109e7919061233b565b90506109fd6001600160a01b03841683836113b9565b604080516001600160a01b038086168252841660208201527fbfad076d6a1d05fa5f54965cabe504bdca88c511c84830d3ae5e52be23632dd0910160405180910390a1505050565b610a4d611304565b610a57600061160f565b565b85610a6381611421565b60975460405163d505accf60e01b81526001600160a01b038981166004830152306024830152604482018990526064820188905260ff8716608483015260a4820186905260c482018590529091169063d505accf9060e401600060405180830381600087803b158015610ad557600080fd5b505af1158015610ae9573d6000803e3d6000fd5b50505050610af78787611661565b50505050505050565b600080600080600060988681548110610b1b57610b1b6122b2565b60009182526020822001546001600160a01b03169550610b3a866116bc565b805460018201546002830154600390930154989a9199509791965090945092505050565b600054610100900460ff1615808015610b7e5750600054600160ff909116105b80610b985750303b158015610b98575060005460ff166001145b610bfb5760405162461bcd60e51b815260206004820152602e60248201527f496e697469616c697a61626c653a20636f6e747261637420697320616c72656160448201526d191e481a5b9a5d1a585b1a5e995960921b6064820152608401610675565b6000805460ff191660011790558015610c1e576000805461ff0019166101001790555b610c9185858080601f01602080910402602001604051908101604052809392919081815260200183838082843760009201919091525050604080516020601f890181900481028201810190925287815292508791508690819084018382808284376000920191909152506116e392505050565b610c99611714565b609780546001600160a01b0319166001600160a01b0388161790556064609a558015610cff576000805461ff0019169055604051600181527f7f26b83ff96e1f2b6a682f133852f6798a09c465da95921460cefb38474024989060200160405180910390a15b505050505050565b6060603780546105a3906122c8565b3360009081526099602052604090205460ff16610d4857604051632a19e83360e01b8152336004820152602401610675565b6000610d5381611421565b6097546001600160a01b0390811690851603610d82576040516329ff3c3d60e21b815260040160405180910390fd5b610e10821015610da85760405163361ef67360e21b815260048101839052602401610675565b610db18461135e565b610ec9576040516bffffffffffffffffffffffff19606086901b16602082015242603482015260540160408051601f1981840301815291815281516020928301206001600160a01b0387166000908152609c909352912055609854609a54610e1a826001612354565b1115610e395760405163428680e160e11b815260040160405180910390fd5b6001600160a01b0385166000818152609b602090815260408083208590556098805460018101825593527f2237a976fa961f5921fd19f2b03c925c725d77b20ce8f790c19709c03de4d81490920180546001600160a01b0319168417905590519182527f1714865bf5baa84e3439536a013c87cfe030b4cd69f344a5f2a4877de3d517ce910160405180910390a1505b610ede6001600160a01b038516333086611743565b6000610ee9856116bc565b905060008160000154421015610f1f578154600090610f09904290612312565b9050826003015481610f1b9190612367565b9150505b83610f2a8287612354565b610f34919061237e565b60038301554260028301819055610f4c908590612354565b82556001820184905560408051868152602081018690526001600160a01b038816917f3c0f5c48b0ffa2c570c1a0f4fbf7b0f8982213afff9eb42cd258ead865cf3c9d910160405180910390a2505050505050565b60003381610faf8286611059565b90508381101561100f5760405162461bcd60e51b815260206004820152602560248201527f45524332303a2064656372656173656420616c6c6f77616e63652062656c6f77604482015264207a65726f60d81b6064820152608401610675565b61101c82868684036111e0565b506001949350505050565b3361103181611421565b61086d3383611661565b600061104633611421565b61104f83611421565b61082c8383611781565b6001600160a01b03918216600090815260346020908152604080832093909416825291909152205490565b3361108e81611421565b3360009081526033602052604090205461089d906114f1565b6110af611304565b6001600160a01b0381166111145760405162461bcd60e51b815260206004820152602660248201527f4f776e61626c653a206e6577206f776e657220697320746865207a65726f206160448201526564647265737360d01b6064820152608401610675565b6108a58161160f565b6098818154811061112d57600080fd5b6000918252602090912001546001600160a01b0316905081565b600080611153836116bc565b6001600160a01b0385166000908152600582016020526040902054909150670de0b6b3a7640000906111848561178f565b61118e9190612312565b6001600160a01b0386166000908152603360205260409020546111b19190612367565b6111bb919061237e565b6001600160a01b03851660009081526006830160205260409020546108529190612354565b6001600160a01b0383166112425760405162461bcd60e51b8152602060048201526024808201527f45524332303a20617070726f76652066726f6d20746865207a65726f206164646044820152637265737360e01b6064820152608401610675565b6001600160a01b0382166112a35760405162461bcd60e51b815260206004820152602260248201527f45524332303a20617070726f766520746f20746865207a65726f206164647265604482015261737360f01b6064820152608401610675565b6001600160a01b0383811660008181526034602090815260408083209487168084529482529182902085905590518481527f8c5be1e5ebec7d5bd14f71427d1e84f3dd0314c0f7b2291e5b200ac8c7c3b925910160405180910390a3505050565b6065546001600160a01b03163314610a575760405162461bcd60e51b815260206004820181905260248201527f4f776e61626c653a2063616c6c6572206973206e6f7420746865206f776e65726044820152606401610675565b609854600090156113b4576001600160a01b0382166000908152609b6020526040902054609880549091908110611397576113976122b2565b6000918252602090912001546001600160a01b0383811691161490505b919050565b6040516001600160a01b03831660248201526044810182905261141c90849063a9059cbb60e01b906064015b60408051601f198184030181529190526020810180516001600160e01b03166001600160e01b031990931692909217909152611819565b505050565b60985460005b8181101561141c57600060988281548110611444576114446122b2565b60009182526020822001546001600160a01b03169150611463826116bc565b905061146e8261178f565b6004820155805461147e906118ee565b60028201556001600160a01b038516156114ce5761149c8583611147565b6001600160a01b0386166000908152600683016020908152604080832093909355600484015460058501909152919020555b5050600101611427565b6000336114e6858285611901565b61101c858585611975565b6114fb3382611b20565b609754611512906001600160a01b031633836113b9565b60405181815233907f7084f5476618d8e60b11ef0d7d3f06914655adb8793e28ff7f018d4c76d505d59060200160405180910390a250565b60985460005b8181101561086d5760006098828154811061156d5761156d6122b2565b60009182526020822001546001600160a01b0316915061158d3383611147565b905080156116055760006115a0836116bc565b3360008181526006929092016020526040909120919091556115c490839083611c54565b6040518181526001600160a01b0383169033907f540798df468d7b23d11f156fdb954cb19ad414d150722a7b6d55ba369dea792e9060200160405180910390a35b5050600101611550565b606580546001600160a01b038381166001600160a01b0319831681179093556040519116919082907f8be0079c531659141344cd1fd0a4f28419497f9722a3daafe3b4186f6b6457e090600090a35050565b61166b8282611ce7565b609754611683906001600160a01b0316833084611743565b60405181815233907f9e71bc8eea02a63969f509818f2dafb9254532904319f9dbda79b67bd34a5f3d9060200160405180910390a25050565b6001600160a01b03166000908152609c60209081526040808320548352609d909152902090565b600054610100900460ff1661170a5760405162461bcd60e51b8152600401610675906123a0565b61086d8282611da8565b600054610100900460ff1661173b5760405162461bcd60e51b8152600401610675906123a0565b610a57611de8565b6040516001600160a01b038085166024830152831660448201526064810182905261177b9085906323b872dd60e01b906084016113e5565b50505050565b600033610634818585611975565b60008061179b836116bc565b90506117a660355490565b6000036117b95780600401549150611813565b6035546003820154600283015483546117d1906118ee565b6117db9190612312565b6117e59190612367565b6117f790670de0b6b3a7640000612367565b611801919061237e565b81600401546118109190612354565b91505b50919050565b600061186e826040518060400160405280602081526020017f5361666545524332303a206c6f772d6c6576656c2063616c6c206661696c6564815250856001600160a01b0316611e189092919063ffffffff16565b905080516000148061188f57508080602001905181019061188f91906123eb565b61141c5760405162461bcd60e51b815260206004820152602a60248201527f5361666545524332303a204552433230206f7065726174696f6e20646964206e6044820152691bdd081cdd58d8d9595960b21b6064820152608401610675565b60008142116118fd574261063a565b5090565b600061190d8484611059565b9050600019811461177b57818110156119685760405162461bcd60e51b815260206004820152601d60248201527f45524332303a20696e73756666696369656e7420616c6c6f77616e63650000006044820152606401610675565b61177b84848484036111e0565b6001600160a01b0383166119d95760405162461bcd60e51b815260206004820152602560248201527f45524332303a207472616e736665722066726f6d20746865207a65726f206164604482015264647265737360d81b6064820152608401610675565b6001600160a01b038216611a3b5760405162461bcd60e51b815260206004820152602360248201527f45524332303a207472616e7366657220746f20746865207a65726f206164647260448201526265737360e81b6064820152608401610675565b6001600160a01b03831660009081526033602052604090205481811015611ab35760405162461bcd60e51b815260206004820152602660248201527f45524332303a207472616e7366657220616d6f756e7420657863656564732062604482015265616c616e636560d01b6064820152608401610675565b6001600160a01b0380851660008181526033602052604080822086860390559286168082529083902080548601905591517fddf252ad1be2c89b69c2b068fc378daa952ba7f163c4a11628f55a4df523b3ef90611b139086815260200190565b60405180910390a361177b565b6001600160a01b038216611b805760405162461bcd60e51b815260206004820152602160248201527f45524332303a206275726e2066726f6d20746865207a65726f206164647265736044820152607360f81b6064820152608401610675565b6001600160a01b03821660009081526033602052604090205481811015611bf45760405162461bcd60e51b815260206004820152602260248201527f45524332303a206275726e20616d6f756e7420657863656564732062616c616e604482015261636560f01b6064820152608401610675565b6001600160a01b03831660008181526033602090815260408083208686039055603580548790039055518581529192917fddf252ad1be2c89b69c2b068fc378daa952ba7f163c4a11628f55a4df523b3ef910160405180910390a3505050565b6040516370a0823160e01b81523060048201526000906001600160a01b038516906370a0823190602401602060405180830381865afa158015611c9b573d6000803e3d6000fd5b505050506040513d601f19601f82011682018060405250810190611cbf919061233b565b905080821115611ccd578091505b811561177b5761177b6001600160a01b03851684846113b9565b6001600160a01b038216611d3d5760405162461bcd60e51b815260206004820152601f60248201527f45524332303a206d696e7420746f20746865207a65726f2061646472657373006044820152606401610675565b8060356000828254611d4f9190612354565b90915550506001600160a01b0382166000818152603360209081526040808320805486019055518481527fddf252ad1be2c89b69c2b068fc378daa952ba7f163c4a11628f55a4df523b3ef910160405180910390a35050565b600054610100900460ff16611dcf5760405162461bcd60e51b8152600401610675906123a0565b6036611ddb8382612450565b50603761141c8282612450565b600054610100900460ff16611e0f5760405162461bcd60e51b8152600401610675906123a0565b610a573361160f565b6060610852848460008585600080866001600160a01b03168587604051611e3f9190612510565b60006040518083038185875af1925050503d8060008114611e7c576040519150601f19603f3d011682016040523d82523d6000602084013e611e81565b606091505b5091509150611e9287838387611e9d565b979650505050505050565b60608315611f0c578251600003611f05576001600160a01b0385163b611f055760405162461bcd60e51b815260206004820152601d60248201527f416464726573733a2063616c6c20746f206e6f6e2d636f6e74726163740000006044820152606401610675565b5081610852565b6108528383815115611f215781518083602001fd5b8060405162461bcd60e51b81526004016106759190612015565b80356001600160a01b03811681146113b457600080fd5b600060208284031215611f6457600080fd5b61082c82611f3b565b604080825283519082018190526000906020906060840190828701845b82811015611faf5781516001600160a01b031684529284019290840190600101611f8a565b5050508381038285015284518082528583019183019060005b81811015611fe457835183529284019291840191600101611fc8565b5090979650505050505050565b60005b8381101561200c578181015183820152602001611ff4565b50506000910152565b6020815260008251806020840152612034816040850160208701611ff1565b601f01601f19169190910160400192915050565b6000806040838503121561205b57600080fd5b61206483611f3b565b946020939093013593505050565b6000806040838503121561208557600080fd5b61208e83611f3b565b915061209c60208401611f3b565b90509250929050565b6000806000606084860312156120ba57600080fd5b6120c384611f3b565b92506120d160208501611f3b565b9150604084013590509250925092565b6000602082840312156120f357600080fd5b5035919050565b80151581146108a557600080fd5b6000806040838503121561211b57600080fd5b61212483611f3b565b91506020830135612134816120fa565b809150509250929050565b60008060008060008060c0878903121561215857600080fd5b61216187611f3b565b95506020870135945060408701359350606087013560ff8116811461218557600080fd5b9598949750929560808101359460a0909101359350915050565b60008083601f8401126121b157600080fd5b50813567ffffffffffffffff8111156121c957600080fd5b6020830191508360208285010111156121e157600080fd5b9250929050565b60008060008060006060868803121561220057600080fd5b61220986611f3b565b9450602086013567ffffffffffffffff8082111561222657600080fd5b61223289838a0161219f565b9096509450604088013591508082111561224b57600080fd5b506122588882890161219f565b969995985093965092949392505050565b60008060006060848603121561227e57600080fd5b61228784611f3b565b95602085013595506040909401359392505050565b634e487b7160e01b600052604160045260246000fd5b634e487b7160e01b600052603260045260246000fd5b600181811c908216806122dc57607f821691505b60208210810361181357634e487b7160e01b600052602260045260246000fd5b634e487b7160e01b600052601160045260246000fd5b8181038181111561063a5761063a6122fc565b634e487b7160e01b600052603160045260246000fd5b60006020828403121561234d57600080fd5b5051919050565b8082018082111561063a5761063a6122fc565b808202811582820484141761063a5761063a6122fc565b60008261239b57634e487b7160e01b600052601260045260246000fd5b500490565b6020808252602b908201527f496e697469616c697a61626c653a20636f6e7472616374206973206e6f74206960408201526a6e697469616c697a696e6760a81b606082015260800190565b6000602082840312156123fd57600080fd5b815161082c816120fa565b601f82111561141c576000816000526020600020601f850160051c810160208610156124315750805b601f850160051c820191505b81811015610cff5782815560010161243d565b815167ffffffffffffffff81111561246a5761246a61229c565b61247e8161247884546122c8565b84612408565b602080601f8311600181146124b3576000841561249b5750858301515b600019600386901b1c1916600185901b178555610cff565b600085815260208120601f198616915b828110156124e2578886015182559484019460019091019084016124c3565b50858210156125005787850151600019600388901b60f8161c191681555b5050505050600190811b01905550565b60008251612522818460208701611ff1565b919091019291505056fea26469706673582212207cdcfc47017dcbd89c126194935cfae6b34434c242332b7e95ffff9fafd8d4bd64736f6c63430008170033",
  "linkReferences": {},
  "deployedLinkReferences": {}
}