{"abi":[{"type":"constructor","inputs":[{"name":"_native","type":"address","internalType":"address"},{"name":"_keeper","type":"address","internalType":"address"},{"name":"_beefyFeeRecipient","type":"address","internalType":"address"},{"name":"_beefyFeeConfig","type":"address","internalType":"address"}],"stateMutability":"nonpayable"},{"type":"function","name":"addRebalancer","inputs":[{"name":"_rebalancer","type":"address","internalType":"address"}],"outputs":[],"stateMutability":"nonpayable"},{"type":"function","name":"addStrategy","inputs":[{"name":"_strategyName","type":"string","internalType":"string"},{"name":"_implementation","type":"address","internalType":"address"}],"outputs":[],"stateMutability":"nonpayable"},{"type":"function","name":"beefyFeeConfig","inputs":[],"outputs":[{"name":"","type":"address","internalType":"address"}],"stateMutability":"view"},{"type":"function","name":"beefyFeeRecipient","inputs":[],"outputs":[{"name":"","type":"address","internalType":"address"}],"stateMutability":"view"},{"type":"function","name":"createStrategy","inputs":[{"name":"_strategyName","type":"string","internalType":"string"}],"outputs":[{"name":"","type":"address","internalType":"address"}],"stateMutability":"nonpayable"},{"type":"function","name":"getImplementation","inputs":[{"name":"_strategyName","type":"string","internalType":"string"}],"outputs":[{"name":"","type":"address","internalType":"address"}],"stateMutability":"view"},{"type":"function","name":"getStrategyTypes","inputs":[],"outputs":[{"name":"","type":"string[]","internalType":"string[]"}],"stateMutability":"view"},{"type":"function","name":"globalPause","inputs":[],"outputs":[{"name":"","type":"bool","internalType":"bool"}],"stateMutability":"view"},{"type":"function","name":"instances","inputs":[{"name":"","type":"string","internalType":"string"}],"outputs":[{"name":"","type":"address","internalType":"contract UpgradeableBeacon"}],"stateMutability":"view"},{"type":"function","name":"keeper","inputs":[],"outputs":[{"name":"","type":"address","internalType":"address"}],"stateMutability":"view"},{"type":"function","name":"native","inputs":[],"outputs":[{"name":"","type":"address","internalType":"address"}],"stateMutability":"view"},{"type":"function","name":"owner","inputs":[],"outputs":[{"name":"","type":"address","internalType":"address"}],"stateMutability":"view"},{"type":"function","name":"pauseAllStrats","inputs":[],"outputs":[],"stateMutability":"nonpayable"},{"type":"function","name":"rebalancers","inputs":[{"name":"","type":"address","internalType":"address"}],"outputs":[{"name":"","type":"bool","internalType":"bool"}],"stateMutability":"view"},{"type":"function","name":"removeRebalancer","inputs":[{"name":"_rebalancer","type":"address","internalType":"address"}],"outputs":[],"stateMutability":"nonpayable"},{"type":"function","name":"renounceOwnership","inputs":[],"outputs":[],"stateMutability":"nonpayable"},{"type":"function","name":"setBeefyFeeConfig","inputs":[{"name":"_beefyFeeConfig","type":"address","internalType":"address"}],"outputs":[],"stateMutability":"nonpayable"},{"type":"function","name":"setBeefyFeeRecipient","inputs":[{"name":"_beefyFeeRecipient","type":"address","internalType":"address"}],"outputs":[],"stateMutability":"nonpayable"},{"type":"function","name":"setKeeper","inputs":[{"name":"_keeper","type":"address","internalType":"address"}],"outputs":[],"stateMutability":"nonpayable"},{"type":"function","name":"strategyTypes","inputs":[{"name":"","type":"uint256","internalType":"uint256"}],"outputs":[{"name":"","type":"string","internalType":"string"}],"stateMutability":"view"},{"type":"function","name":"transferOwnership","inputs":[{"name":"newOwner","type":"address","internalType":"address"}],"outputs":[],"stateMutability":"nonpayable"},{"type":"function","name":"unpauseAllStrats","inputs":[],"outputs":[],"stateMutability":"nonpayable"},{"type":"function","name":"upgradeTo","inputs":[{"name":"_strategyName","type":"string","internalType":"string"},{"name":"_newImplementation","type":"address","internalType":"address"}],"outputs":[],"stateMutability":"nonpayable"},{"type":"event","name":"GlobalPause","inputs":[{"name":"paused","type":"bool","indexed":false,"internalType":"bool"}],"anonymous":false},{"type":"event","name":"InstanceUpgraded","inputs":[{"name":"strategyName","type":"string","indexed":false,"internalType":"string"},{"name":"newImplementation","type":"address","indexed":false,"internalType":"address"}],"anonymous":false},{"type":"event","name":"NewStrategyAdded","inputs":[{"name":"strategyName","type":"string","indexed":false,"internalType":"string"},{"name":"implementation","type":"address","indexed":false,"internalType":"address"}],"anonymous":false},{"type":"event","name":"OwnershipTransferred","inputs":[{"name":"previousOwner","type":"address","indexed":true,"internalType":"address"},{"name":"newOwner","type":"address","indexed":true,"internalType":"address"}],"anonymous":false},{"type":"event","name":"ProxyCreated","inputs":[{"name":"strategyName","type":"string","indexed":false,"internalType":"string"},{"name":"proxy","type":"address","indexed":false,"internalType":"address"}],"anonymous":false},{"type":"event","name":"RebalancerChanged","inputs":[{"name":"rebalancer","type":"address","indexed":false,"internalType":"address"},{"name":"isRebalancer","type":"bool","indexed":false,"internalType":"bool"}],"anonymous":false},{"type":"event","name":"SetBeefyFeeConfig","inputs":[{"name":"beefyFeeConfig","type":"address","indexed":false,"internalType":"address"}],"anonymous":false},{"type":"event","name":"SetBeefyFeeRecipient","inputs":[{"name":"beefyFeeRecipient","type":"address","indexed":false,"internalType":"address"}],"anonymous":false},{"type":"event","name":"SetKeeper","inputs":[{"name":"keeper","type":"address","indexed":false,"internalType":"address"}],"anonymous":false},{"type":"error","name":"NotManager","inputs":[]},{"type":"error","name":"OwnableInvalidOwner","inputs":[{"name":"owner","type":"address","internalType":"address"}]},{"type":"error","name":"OwnableUnauthorizedAccount","inputs":[{"name":"account","type":"address","internalType":"address"}]},{"type":"error","name":"StratVersionExists","inputs":[]}],"bytecode":{"object":"0x60806040523480156200001157600080fd5b5060405162001d6c38038062001d6c833981016040819052620000349162000128565b33806200005b57604051631e4fbdf760e01b81526000600482015260240160405180910390fd5b6200006681620000bb565b50600480546001600160a01b039586166001600160a01b031991821617909155600580549486169482169490941790935560068054928516928416929092179091556007805491909316911617905562000185565b600080546001600160a01b038381166001600160a01b0319831681178455604051919092169283917f8be0079c531659141344cd1fd0a4f28419497f9722a3daafe3b4186f6b6457e09190a35050565b80516001600160a01b03811681146200012357600080fd5b919050565b600080600080608085870312156200013f57600080fd5b6200014a856200010b565b93506200015a602086016200010b565b92506200016a604086016200010b565b91506200017a606086016200010b565b905092959194509250565b611bd780620001956000396000f3fe60806040523480156200001157600080fd5b5060043610620001695760003560e01c8063748747e611620000d3578063aced16611162000086578063aced1661146200033b578063c93d7715146200034f578063cdd5d9dd1462000359578063ed8ea6001462000370578063f12d54d81462000389578063f2fde38b146200039e57600080fd5b8063748747e614620002a65780638da5cb5b14620002bd5780638e14545914620002cf578063940a9fa114620002e3578063a44d57a014620002ed578063a68833e5146200032457600080fd5b806343bc4b9a116200012c57806343bc4b9a146200021d5780634746fb551462000234578063517137ee14620002485780635a8b1a9f146200026e5780636b6838961462000285578063715018a6146200029c57600080fd5b80630c979919146200016e578063106fdbd01462000187578063116fd501146200019e57806311b0b42d14620001d257806341a1914e14620001e6575b600080fd5b620001856200017f36600462000d1b565b620003b5565b005b620001856200019836600462000d1b565b62000421565b620001b5620001af36600462000d87565b6200047a565b6040516001600160a01b0390911681526020015b60405180910390f35b600454620001b5906001600160a01b031681565b620001b5620001f736600462000de3565b80516020818301810180516001825292820191909301209152546001600160a01b031681565b620001856200022e36600462000d1b565b62000540565b600754620001b5906001600160a01b031681565b6200025f6200025936600462000e9e565b620005de565b604051620001c9919062000f00565b620001856200027f36600462000f15565b62000693565b620001b56200029636600462000d87565b62000762565b62000185620007f5565b62000185620002b736600462000d1b565b6200080d565b6000546001600160a01b0316620001b5565b600654620001b5906001600160a01b031681565b6200018562000866565b62000313620002fe36600462000d1b565b60026020526000908152604090205460ff1681565b6040519015158152602001620001c9565b620001856200033536600462000d1b565b620008b4565b600554620001b5906001600160a01b031681565b620001856200090d565b620001856200036a36600462000f15565b62000998565b6200037a62000b3f565b604051620001c9919062000f72565b6007546200031390600160a01b900460ff1681565b62000185620003af36600462000d1b565b62000c22565b620003bf62000c6a565b6001600160a01b038116600081815260026020908152604091829020805460ff191660019081179091558251938452908301527fad7caca61f64c5976fc697122c9ff26acc30fc936092716798ff3b43cc54f80091015b60405180910390a150565b6200042b62000c6a565b600780546001600160a01b0319166001600160a01b0383169081179091556040519081527f91e28ce4210d103c13c5174847e463b836900f8dc63e9d9b42a4255169d195299060200162000416565b600080600184846040516200049192919062000fda565b908152604051908190036020018120546001600160a01b031691506000908290620004bc9062000ce9565b6001600160a01b039091168152604060208201819052600090820152606001604051809103906000f080158015620004f8573d6000803e3d6000fd5b5090507f3699b7de9b98bb64c45028ff3593b0d6159da8016d0f85b6af11d765320c87bb858583604051620005309392919062000fea565b60405180910390a1949350505050565b6000546001600160a01b031633148015906200056757506005546001600160a01b03163314155b15620005865760405163607e454560e11b815260040160405180910390fd5b6001600160a01b0381166000818152600260209081526040808320805460ff191690558051938452908301919091527fad7caca61f64c5976fc697122c9ff26acc30fc936092716798ff3b43cc54f800910162000416565b60038181548110620005ef57600080fd5b9060005260206000200160009150905080546200060c906200102b565b80601f01602080910402602001604051908101604052809291908181526020018280546200063a906200102b565b80156200068b5780601f106200065f576101008083540402835291602001916200068b565b820191906000526020600020905b8154815290600101906020018083116200066d57829003601f168201915b505050505081565b6200069d62000c6a565b600060018484604051620006b392919062000fda565b90815260405190819003602001812054631b2ce7f360e11b82526001600160a01b0384811660048401521691508190633659cfe690602401600060405180830381600087803b1580156200070657600080fd5b505af11580156200071b573d6000803e3d6000fd5b505050507f52a6e00a16a485598386bd39b6aac98ed50e4fbde10ef9b5c18374faecb55010848484604051620007549392919062000fea565b60405180910390a150505050565b6000600183836040516200077892919062000fda565b908152604080516020928190038301812054635c60da1b60e01b825291516001600160a01b0390921692635c60da1b926004808401938290030181865afa158015620007c8573d6000803e3d6000fd5b505050506040513d601f19601f82011682018060405250810190620007ee919062001067565b9392505050565b620007ff62000c6a565b6200080b600062000c99565b565b6200081762000c6a565b600580546001600160a01b0319166001600160a01b0383169081179091556040519081527fefb5cfa1a8690c124332ab93324539c5c9c4be03f28aeb8be86f2d8a0c9fb99b9060200162000416565b6200087062000c6a565b6007805460ff60a01b19169055604051600081527fa5fea31b6dbd7aec6098ca4653b1d51af1ef786fcb19031c4c4e55b675535f1e906020015b60405180910390a1565b620008be62000c6a565b600680546001600160a01b0319166001600160a01b0383169081179091556040519081527f8041329bf7057543a2c2ff4e4071d1d488a31f82ed44e169b5cd2f04f5e3ac859060200162000416565b6000546001600160a01b031633148015906200093457506005546001600160a01b03163314155b15620009535760405163607e454560e11b815260040160405180910390fd5b6007805460ff60a01b1916600160a01b179055604051600181527fa5fea31b6dbd7aec6098ca4653b1d51af1ef786fcb19031c4c4e55b675535f1e90602001620008aa565b6000546001600160a01b03163314801590620009bf57506005546001600160a01b03163314155b15620009de5760405163607e454560e11b815260040160405180910390fd5b60006001600160a01b031660018484604051620009fd92919062000fda565b908152604051908190036020019020546001600160a01b03161462000a3557604051631f93a2cd60e01b815260040160405180910390fd5b803060405162000a459062000cf7565b6001600160a01b03928316815291166020820152604001604051809103906000f08015801562000a79573d6000803e3d6000fd5b506001848460405162000a8e92919062000fda565b90815260405190819003602001902080546001600160a01b03929092166001600160a01b0319909216919091179055600380546001810182556000919091527fc2575a0e9e593c00f959f8c92f12db2869c3395a3b0502d05e2516446f71f85b0162000afc838583620010dc565b507fa065c3b00cde146f5df407afa0661cfa2c0ed2efd62ac00b3241aaae02ff5d2e83838360405162000b329392919062000fea565b60405180910390a1505050565b60606003805480602002602001604051908101604052809291908181526020016000905b8282101562000c1957838290600052602060002001805462000b85906200102b565b80601f016020809104026020016040519081016040528092919081815260200182805462000bb3906200102b565b801562000c045780601f1062000bd85761010080835404028352916020019162000c04565b820191906000526020600020905b81548152906001019060200180831162000be657829003601f168201915b50505050508152602001906001019062000b63565b50505050905090565b62000c2c62000c6a565b6001600160a01b03811662000c5c57604051631e4fbdf760e01b8152600060048201526024015b60405180910390fd5b62000c678162000c99565b50565b6000546001600160a01b031633146200080b5760405163118cdaa760e01b815233600482015260240162000c53565b600080546001600160a01b038381166001600160a01b0319831681178455604051919092169283917f8be0079c531659141344cd1fd0a4f28419497f9722a3daafe3b4186f6b6457e09190a35050565b6105bf80620011ab83390190565b610438806200176a83390190565b6001600160a01b038116811462000c6757600080fd5b60006020828403121562000d2e57600080fd5b8135620007ee8162000d05565b60008083601f84011262000d4e57600080fd5b50813567ffffffffffffffff81111562000d6757600080fd5b60208301915083602082850101111562000d8057600080fd5b9250929050565b6000806020838503121562000d9b57600080fd5b823567ffffffffffffffff81111562000db357600080fd5b62000dc18582860162000d3b565b90969095509350505050565b634e487b7160e01b600052604160045260246000fd5b60006020828403121562000df657600080fd5b813567ffffffffffffffff8082111562000e0f57600080fd5b818401915084601f83011262000e2457600080fd5b81358181111562000e395762000e3962000dcd565b604051601f8201601f19908116603f0116810190838211818310171562000e645762000e6462000dcd565b8160405282815287602084870101111562000e7e57600080fd5b826020860160208301376000928101602001929092525095945050505050565b60006020828403121562000eb157600080fd5b5035919050565b6000815180845260005b8181101562000ee05760208185018101518683018201520162000ec2565b506000602082860101526020601f19601f83011685010191505092915050565b602081526000620007ee602083018462000eb8565b60008060006040848603121562000f2b57600080fd5b833567ffffffffffffffff81111562000f4357600080fd5b62000f518682870162000d3b565b909450925050602084013562000f678162000d05565b809150509250925092565b600060208083016020845280855180835260408601915060408160051b87010192506020870160005b8281101562000fcd57603f1988860301845262000fba85835162000eb8565b9450928501929085019060010162000f9b565b5092979650505050505050565b8183823760009101908152919050565b6040815282604082015282846060830137600060608483018101919091526001600160a01b03929092166020820152601f909201601f191690910101919050565b600181811c908216806200104057607f821691505b6020821081036200106157634e487b7160e01b600052602260045260246000fd5b50919050565b6000602082840312156200107a57600080fd5b8151620007ee8162000d05565b601f821115620010d7576000816000526020600020601f850160051c81016020861015620010b25750805b601f850160051c820191505b81811015620010d357828155600101620010be565b5050505b505050565b67ffffffffffffffff831115620010f757620010f762000dcd565b6200110f836200110883546200102b565b8362001087565b6000601f8411600181146200114657600085156200112d5750838201355b600019600387901b1c1916600186901b178355620011a3565b600083815260209020601f19861690835b8281101562001179578685013582556020948501946001909201910162001157565b5086821015620011975760001960f88860031b161c19848701351681555b505060018560011b0183555b505050505056fe60a06040526040516105bf3803806105bf83398101604081905261002291610387565b61002c828261003e565b506001600160a01b031660805261047e565b610047826100fe565b6040516001600160a01b038316907f1cf3b03a6cf19fa2baba4df148e9dcabedea7f8a5c07840e207e5c089be95d3e90600090a28051156100f2576100ed826001600160a01b0316635c60da1b6040518163ffffffff1660e01b8152600401602060405180830381865afa1580156100c3573d6000803e3d6000fd5b505050506040513d601f19601f820116820180604052508101906100e79190610447565b82610211565b505050565b6100fa610288565b5050565b806001600160a01b03163b60000361013957604051631933b43b60e21b81526001600160a01b03821660048201526024015b60405180910390fd5b807fa3f0ad74e5423aebfd80d3ef4346578335a9a72aeaee59ff6cb3582b35133d5080546001600160a01b0319166001600160a01b0392831617905560408051635c60da1b60e01b81529051600092841691635c60da1b9160048083019260209291908290030181865afa1580156101b5573d6000803e3d6000fd5b505050506040513d601f19601f820116820180604052508101906101d99190610447565b9050806001600160a01b03163b6000036100fa57604051634c9c8ce360e01b81526001600160a01b0382166004820152602401610130565b6060600080846001600160a01b03168460405161022e9190610462565b600060405180830381855af49150503d8060008114610269576040519150601f19603f3d011682016040523d82523d6000602084013e61026e565b606091505b50909250905061027f8583836102a9565b95945050505050565b34156102a75760405163b398979f60e01b815260040160405180910390fd5b565b6060826102be576102b982610308565b610301565b81511580156102d557506001600160a01b0384163b155b156102fe57604051639996b31560e01b81526001600160a01b0385166004820152602401610130565b50805b9392505050565b8051156103185780518082602001fd5b604051630a12f52160e11b815260040160405180910390fd5b80516001600160a01b038116811461034857600080fd5b919050565b634e487b7160e01b600052604160045260246000fd5b60005b8381101561037e578181015183820152602001610366565b50506000910152565b6000806040838503121561039a57600080fd5b6103a383610331565b60208401519092506001600160401b03808211156103c057600080fd5b818501915085601f8301126103d457600080fd5b8151818111156103e6576103e661034d565b604051601f8201601f19908116603f0116810190838211818310171561040e5761040e61034d565b8160405282815288602084870101111561042757600080fd5b610438836020830160208801610363565b80955050505050509250929050565b60006020828403121561045957600080fd5b61030182610331565b60008251610474818460208701610363565b9190910192915050565b6080516101276104986000396000601e01526101276000f3fe6080604052600a600c565b005b60186014601a565b60a0565b565b60007f00000000000000000000000000000000000000000000000000000000000000006001600160a01b0316635c60da1b6040518163ffffffff1660e01b8152600401602060405180830381865afa1580156079573d6000803e3d6000fd5b505050506040513d601f19601f82011682018060405250810190609b919060c3565b905090565b3660008037600080366000845af43d6000803e80801560be573d6000f35b3d6000fd5b60006020828403121560d457600080fd5b81516001600160a01b038116811460ea57600080fd5b939250505056fea2646970667358221220f780a023678971ab9378f877f5a108444c7c76e4672979c74167cc16fbe5b97b64736f6c63430008170033608060405234801561001057600080fd5b5060405161043838038061043883398101604081905261002f91610165565b806001600160a01b03811661005f57604051631e4fbdf760e01b8152600060048201526024015b60405180910390fd5b61006881610079565b50610072826100c9565b5050610198565b600080546001600160a01b038381166001600160a01b0319831681178455604051919092169283917f8be0079c531659141344cd1fd0a4f28419497f9722a3daafe3b4186f6b6457e09190a35050565b806001600160a01b03163b6000036100ff5760405163211eb15960e21b81526001600160a01b0382166004820152602401610056565b600180546001600160a01b0319166001600160a01b0383169081179091556040517fbc7cd75a20ee27fd9adebab32041f755214dbc6bffa90cc0225b39da2e5c2d3b90600090a250565b80516001600160a01b038116811461016057600080fd5b919050565b6000806040838503121561017857600080fd5b61018183610149565b915061018f60208401610149565b90509250929050565b610291806101a76000396000f3fe608060405234801561001057600080fd5b50600436106100575760003560e01c80633659cfe61461005c5780635c60da1b14610071578063715018a61461009a5780638da5cb5b146100a2578063f2fde38b146100b3575b600080fd5b61006f61006a36600461022b565b6100c6565b005b6001546001600160a01b03165b6040516001600160a01b03909116815260200160405180910390f35b61006f6100da565b6000546001600160a01b031661007e565b61006f6100c136600461022b565b6100ee565b6100ce61012e565b6100d78161015b565b50565b6100e261012e565b6100ec60006101db565b565b6100f661012e565b6001600160a01b03811661012557604051631e4fbdf760e01b8152600060048201526024015b60405180910390fd5b6100d7816101db565b6000546001600160a01b031633146100ec5760405163118cdaa760e01b815233600482015260240161011c565b806001600160a01b03163b6000036101915760405163211eb15960e21b81526001600160a01b038216600482015260240161011c565b600180546001600160a01b0319166001600160a01b0383169081179091556040517fbc7cd75a20ee27fd9adebab32041f755214dbc6bffa90cc0225b39da2e5c2d3b90600090a250565b600080546001600160a01b038381166001600160a01b0319831681178455604051919092169283917f8be0079c531659141344cd1fd0a4f28419497f9722a3daafe3b4186f6b6457e09190a35050565b60006020828403121561023d57600080fd5b81356001600160a01b038116811461025457600080fd5b939250505056fea26469706673582212208a96fa5183afb575b11850282807e898262ca83d69633f19e60de79a139818c164736f6c63430008170033a2646970667358221220fc1346aa7854c931574c6a79e0d95d49eb4c04be0a21e037d46e6133b652c58d64736f6c63430008170033","linkReferences":{}},"methodIdentifiers":{"addRebalancer(address)":"0c979919","addStrategy(string,address)":"cdd5d9dd","beefyFeeConfig()":"4746fb55","beefyFeeRecipient()":"8e145459","createStrategy(string)":"116fd501","getImplementation(string)":"6b683896","getStrategyTypes()":"ed8ea600","globalPause()":"f12d54d8","instances(string)":"41a1914e","keeper()":"aced1661","native()":"11b0b42d","owner()":"8da5cb5b","pauseAllStrats()":"c93d7715","rebalancers(address)":"a44d57a0","removeRebalancer(address)":"43bc4b9a","renounceOwnership()":"715018a6","setBeefyFeeConfig(address)":"106fdbd0","setBeefyFeeRecipient(address)":"a68833e5","setKeeper(address)":"748747e6","strategyTypes(uint256)":"517137ee","transferOwnership(address)":"f2fde38b","unpauseAllStrats()":"940a9fa1","upgradeTo(string,address)":"5a8b1a9f"},"id":17}