{"abi":[{"type":"constructor","inputs":[],"stateMutability":"nonpayable"},{"type":"function","name":"allowance","inputs":[{"name":"owner","type":"address","internalType":"address"},{"name":"spender","type":"address","internalType":"address"}],"outputs":[{"name":"","type":"uint256","internalType":"uint256"}],"stateMutability":"view"},{"type":"function","name":"approve","inputs":[{"name":"spender","type":"address","internalType":"address"},{"name":"amount","type":"uint256","internalType":"uint256"}],"outputs":[{"name":"","type":"bool","internalType":"bool"}],"stateMutability":"nonpayable"},{"type":"function","name":"balanceOf","inputs":[{"name":"account","type":"address","internalType":"address"}],"outputs":[{"name":"","type":"uint256","internalType":"uint256"}],"stateMutability":"view"},{"type":"function","name":"balances","inputs":[],"outputs":[{"name":"amount0","type":"uint256","internalType":"uint256"},{"name":"amount1","type":"uint256","internalType":"uint256"}],"stateMutability":"view"},{"type":"function","name":"decimals","inputs":[],"outputs":[{"name":"","type":"uint8","internalType":"uint8"}],"stateMutability":"view"},{"type":"function","name":"decreaseAllowance","inputs":[{"name":"spender","type":"address","internalType":"address"},{"name":"subtractedValue","type":"uint256","internalType":"uint256"}],"outputs":[{"name":"","type":"bool","internalType":"bool"}],"stateMutability":"nonpayable"},{"type":"function","name":"deposit","inputs":[{"name":"_amount0","type":"uint256","internalType":"uint256"},{"name":"_amount1","type":"uint256","internalType":"uint256"},{"name":"_minShares","type":"uint256","internalType":"uint256"}],"outputs":[],"stateMutability":"nonpayable"},{"type":"function","name":"inCaseTokensGetStuck","inputs":[{"name":"_token","type":"address","internalType":"address"}],"outputs":[],"stateMutability":"nonpayable"},{"type":"function","name":"increaseAllowance","inputs":[{"name":"spender","type":"address","internalType":"address"},{"name":"addedValue","type":"uint256","internalType":"uint256"}],"outputs":[{"name":"","type":"bool","internalType":"bool"}],"stateMutability":"nonpayable"},{"type":"function","name":"initialize","inputs":[{"name":"_strategy","type":"address","internalType":"address"},{"name":"_name","type":"string","internalType":"string"},{"name":"_symbol","type":"string","internalType":"string"}],"outputs":[],"stateMutability":"nonpayable"},{"type":"function","name":"isCalm","inputs":[],"outputs":[{"name":"","type":"bool","internalType":"bool"}],"stateMutability":"view"},{"type":"function","name":"name","inputs":[],"outputs":[{"name":"","type":"string","internalType":"string"}],"stateMutability":"view"},{"type":"function","name":"owner","inputs":[],"outputs":[{"name":"","type":"address","internalType":"address"}],"stateMutability":"view"},{"type":"function","name":"previewDeposit","inputs":[{"name":"_amount0","type":"uint256","internalType":"uint256"},{"name":"_amount1","type":"uint256","internalType":"uint256"}],"outputs":[{"name":"shares","type":"uint256","internalType":"uint256"},{"name":"amount0","type":"uint256","internalType":"uint256"},{"name":"amount1","type":"uint256","internalType":"uint256"}],"stateMutability":"view"},{"type":"function","name":"previewWithdraw","inputs":[{"name":"_shares","type":"uint256","internalType":"uint256"}],"outputs":[{"name":"amount0","type":"uint256","internalType":"uint256"},{"name":"amount1","type":"uint256","internalType":"uint256"}],"stateMutability":"view"},{"type":"function","name":"renounceOwnership","inputs":[],"outputs":[],"stateMutability":"nonpayable"},{"type":"function","name":"strategy","inputs":[],"outputs":[{"name":"","type":"address","internalType":"contract IStrategyConcLiq"}],"stateMutability":"view"},{"type":"function","name":"symbol","inputs":[],"outputs":[{"name":"","type":"string","internalType":"string"}],"stateMutability":"view"},{"type":"function","name":"totalSupply","inputs":[],"outputs":[{"name":"","type":"uint256","internalType":"uint256"}],"stateMutability":"view"},{"type":"function","name":"transfer","inputs":[{"name":"to","type":"address","internalType":"address"},{"name":"amount","type":"uint256","internalType":"uint256"}],"outputs":[{"name":"","type":"bool","internalType":"bool"}],"stateMutability":"nonpayable"},{"type":"function","name":"transferFrom","inputs":[{"name":"from","type":"address","internalType":"address"},{"name":"to","type":"address","internalType":"address"},{"name":"amount","type":"uint256","internalType":"uint256"}],"outputs":[{"name":"","type":"bool","internalType":"bool"}],"stateMutability":"nonpayable"},{"type":"function","name":"transferOwnership","inputs":[{"name":"newOwner","type":"address","internalType":"address"}],"outputs":[],"stateMutability":"nonpayable"},{"type":"function","name":"want","inputs":[],"outputs":[{"name":"_want","type":"address","internalType":"address"}],"stateMutability":"view"},{"type":"function","name":"wants","inputs":[],"outputs":[{"name":"token0","type":"address","internalType":"address"},{"name":"token1","type":"address","internalType":"address"}],"stateMutability":"view"},{"type":"function","name":"withdraw","inputs":[{"name":"_shares","type":"uint256","internalType":"uint256"},{"name":"_minAmount0","type":"uint256","internalType":"uint256"},{"name":"_minAmount1","type":"uint256","internalType":"uint256"}],"outputs":[],"stateMutability":"nonpayable"},{"type":"function","name":"withdrawAll","inputs":[{"name":"_minAmount0","type":"uint256","internalType":"uint256"},{"name":"_minAmount1","type":"uint256","internalType":"uint256"}],"outputs":[],"stateMutability":"nonpayable"},{"type":"event","name":"Approval","inputs":[{"name":"owner","type":"address","indexed":true,"internalType":"address"},{"name":"spender","type":"address","indexed":true,"internalType":"address"},{"name":"value","type":"uint256","indexed":false,"internalType":"uint256"}],"anonymous":false},{"type":"event","name":"Deposit","inputs":[{"name":"user","type":"address","indexed":true,"internalType":"address"},{"name":"shares","type":"uint256","indexed":false,"internalType":"uint256"},{"name":"amount0","type":"uint256","indexed":false,"internalType":"uint256"},{"name":"amount1","type":"uint256","indexed":false,"internalType":"uint256"}],"anonymous":false},{"type":"event","name":"Initialized","inputs":[{"name":"version","type":"uint8","indexed":false,"internalType":"uint8"}],"anonymous":false},{"type":"event","name":"OwnershipTransferred","inputs":[{"name":"previousOwner","type":"address","indexed":true,"internalType":"address"},{"name":"newOwner","type":"address","indexed":true,"internalType":"address"}],"anonymous":false},{"type":"event","name":"Transfer","inputs":[{"name":"from","type":"address","indexed":true,"internalType":"address"},{"name":"to","type":"address","indexed":true,"internalType":"address"},{"name":"value","type":"uint256","indexed":false,"internalType":"uint256"}],"anonymous":false},{"type":"event","name":"Withdraw","inputs":[{"name":"user","type":"address","indexed":true,"internalType":"address"},{"name":"shares","type":"uint256","indexed":false,"internalType":"uint256"},{"name":"amount0","type":"uint256","indexed":false,"internalType":"uint256"},{"name":"amount1","type":"uint256","indexed":false,"internalType":"uint256"}],"anonymous":false},{"type":"error","name":"NoShares","inputs":[]},{"type":"error","name":"NotEnoughTokens","inputs":[]},{"type":"error","name":"TooMuchSlippage","inputs":[]}],"bytecode":{"object":"0x608060405234801561001057600080fd5b5061001961001e565b6100dd565b600054610100900460ff161561008a5760405162461bcd60e51b815260206004820152602760248201527f496e697469616c697a61626c653a20636f6e747261637420697320696e697469604482015266616c697a696e6760c81b606482015260840160405180910390fd5b60005460ff908116146100db576000805460ff191660ff9081179091556040519081527f7f26b83ff96e1f2b6a682f133852f6798a09c465da95921460cefb38474024989060200160405180910390a15b565b61237980620000ed6000396000f3fe608060405234801561001057600080fd5b506004361061018d5760003560e01c80637aff49d7116100de578063a41fe49f11610097578063a9059cbb11610071578063a9059cbb14610386578063dd62ed3e14610399578063def68a9c146103ac578063f2fde38b146103bf57600080fd5b8063a41fe49f1461034d578063a457c2d714610360578063a8c62e761461037357600080fd5b80637aff49d7146102fe5780637bb98a68146103115780638da5cb5b14610319578063906571471461032a57806395d89b411461033d5780639bdde46b1461034557600080fd5b806323b872dd1161014b5780636584493411610125578063658449341461027757806370a082311461029f578063715018a6146102c85780637a7af70d146102d057600080fd5b806323b872dd14610242578063313ce56714610255578063395093511461026457600080fd5b8062aeef8a1461019257806306fdde03146101a7578063095ea7b3146101c55780630a28a477146101e857806318160ddd146102105780631f1fcd5114610222575b600080fd5b6101a56101a0366004611e2a565b6103d2565b005b6101af61075e565b6040516101bc9190611e7a565b60405180910390f35b6101d86101d3366004611ec2565b6107f0565b60405190151581526020016101bc565b6101fb6101f6366004611eee565b61080a565b604080519283526020830191909152016101bc565b6035545b6040519081526020016101bc565b61022a61085f565b6040516001600160a01b0390911681526020016101bc565b6101d8610250366004611f07565b6108d2565b604051601281526020016101bc565b6101d8610272366004611ec2565b6108f6565b61027f610918565b604080516001600160a01b039384168152929091166020830152016101bc565b6102146102ad366004611f48565b6001600160a01b031660009081526033602052604090205490565b6101a5610a11565b6102e36102de366004611f6c565b610a25565b604080519384526020840192909252908201526060016101bc565b6101a561030c366004611f6c565b610b96565b6101fb610bb5565b6065546001600160a01b031661022a565b6101a5610338366004611fd7565b610c2c565b6101af610ddd565b6101d8610dec565b6101a561035b366004611e2a565b610e5a565b6101d861036e366004611ec2565b611064565b60c95461022a906001600160a01b031681565b6101d8610394366004611ec2565b6110df565b6102146103a736600461205a565b6110ed565b6101a56103ba366004611f48565b611118565b6101a56103cd366004611f48565b6111a1565b6103da61121a565b6000806103e5610918565b9150915060c960009054906101000a90046001600160a01b03166001600160a01b03166317dd7a726040518163ffffffff1660e01b8152600401600060405180830381600087803b15801561043957600080fd5b505af115801561044d573d6000803e3d6000fd5b5050505060008061045c610bb5565b91509150600060c960009054906101000a90046001600160a01b03166001600160a01b031663a035b1fe6040518163ffffffff1660e01b8152600401602060405180830381865afa1580156104b5573d6000803e3d6000fd5b505050506040513d601f19601f820116820180604052508101906104d99190612093565b90506000806104eb838b8b8888611273565b91509150898211806104fc57508881115b1561051a576040516308aeed0f60e21b815260040160405180910390fd5b811561053c5760c95461053c906001600160a01b038981169133911685611413565b801561055e5760c95461055e906001600160a01b038881169133911684611413565b600080610569610bb5565b9150915060c960009054906101000a90046001600160a01b03166001600160a01b031663d0e30db06040518163ffffffff1660e01b8152600401600060405180830381600087803b1580156105bd57600080fd5b505af11580156105d1573d6000803e3d6000fd5b5050505086826105e191906120c2565b93506105ed86826120c2565b925060006a0c097ce7bc90715b34b9f160241b61060a87876120d5565b61061491906120ec565b61061e908561210e565b9050600061062b60355490565b90508015610699576000886a0c097ce7bc90715b34b9f160241b6001816106528c8f6120d5565b61065c919061210e565b61066691906120c2565b61067091906120ec565b61067a919061210e565b90508061068783856120d5565b61069191906120ec565b9250506106b5565b6106a56103e8836120c2565b91506106b561dead6103e8611484565b8b8210156106d65760405163fa6ad35560e01b815260040160405180910390fd5b816000036106f75760405163b317087b60e01b815260040160405180910390fd5b6107013383611484565b604080518381526020810188905290810186905233907f36af321ec8d3c75236829c5317affd40ddb308863a1236d2d277a4025cccee1e9060600160405180910390a250505050505050505050506107596001609755565b505050565b60606036805461076d90612121565b80601f016020809104026020016040519081016040528092919081815260200182805461079990612121565b80156107e65780601f106107bb576101008083540402835291602001916107e6565b820191906000526020600020905b8154815290600101906020018083116107c957829003601f168201915b5050505050905090565b6000336107fe81858561154c565b60019150505b92915050565b600080600080610818610bb5565b91509150600061082760355490565b90508061083487856120d5565b61083e91906120ec565b94508061084b87846120d5565b61085591906120ec565b9350505050915091565b60c954604080516316f0115b60e01b815290516000926001600160a01b0316916316f0115b9160048083019260209291908290030181865afa1580156108a9573d6000803e3d6000fd5b505050506040513d601f19601f820116820180604052508101906108cd919061215b565b905090565b6000336108e0858285611670565b6108eb8585856116e4565b506001949350505050565b6000336107fe81858561090983836110ed565b610913919061210e565b61154c565b60008060c960009054906101000a90046001600160a01b03166001600160a01b0316635ee167c06040518163ffffffff1660e01b8152600401602060405180830381865afa15801561096e573d6000803e3d6000fd5b505050506040513d601f19601f82011682018060405250810190610992919061215b565b915060c960009054906101000a90046001600160a01b03166001600160a01b031663877562b66040518163ffffffff1660e01b8152600401602060405180830381865afa1580156109e7573d6000803e3d6000fd5b505050506040513d601f19601f82011682018060405250810190610a0b919061215b565b90509091565b610a1961188f565b610a2360006118e9565b565b60008060008060c960009054906101000a90046001600160a01b03166001600160a01b031663a035b1fe6040518163ffffffff1660e01b8152600401602060405180830381865afa158015610a7e573d6000803e3d6000fd5b505050506040513d601f19601f82011682018060405250810190610aa29190612093565b9050600080610aaf610bb5565b91509150610ac08389898585611273565b90955093506000610ad060355490565b905080600003610ae1578892508791505b6a0c097ce7bc90715b34b9f160241b610afa85886120d5565b610b0491906120ec565b610b0e908661210e565b96508015610b7c576000826a0c097ce7bc90715b34b9f160241b600181610b3589896120d5565b610b3f919061210e565b610b4991906120c2565b610b5391906120ec565b610b5d919061210e565b905080610b6a838a6120d5565b610b7491906120ec565b975050610b8b565b610b886103e8886120c2565b96505b505050509250925092565b33600090815260336020526040902054610bb1908383610e5a565b5050565b60c95460408051630f77314d60e31b8152815160009384936001600160a01b0390911692637bb98a6892600480830193928290030181865afa158015610bff573d6000803e3d6000fd5b505050506040513d601f19601f82011682018060405250810190610c239190612178565b90939092509050565b600054610100900460ff1615808015610c4c5750600054600160ff909116105b80610c665750303b158015610c66575060005460ff166001145b610cce5760405162461bcd60e51b815260206004820152602e60248201527f496e697469616c697a61626c653a20636f6e747261637420697320616c72656160448201526d191e481a5b9a5d1a585b1a5e995960921b60648201526084015b60405180910390fd5b6000805460ff191660011790558015610cf1576000805461ff0019166101001790555b610d6485858080601f01602080910402602001604051908101604052809392919081815260200183838082843760009201919091525050604080516020601f8901819004810282018101909252878152925087915086908190840183828082843760009201919091525061193b92505050565b610d6c61196c565b610d7461199b565b60c980546001600160a01b0319166001600160a01b0388161790558015610dd5576000805461ff0019169055604051600181527f7f26b83ff96e1f2b6a682f133852f6798a09c465da95921460cefb38474024989060200160405180910390a15b505050505050565b60606037805461076d90612121565b60c95460408051639bdde46b60e01b815290516000926001600160a01b031691639bdde46b9160048083019260209291908290030181865afa158015610e36573d6000803e3d6000fd5b505050506040513d601f19601f820116820180604052508101906108cd919061219c565b82600003610e7b5760405163b317087b60e01b815260040160405180910390fd5b60c960009054906101000a90046001600160a01b03166001600160a01b03166317dd7a726040518163ffffffff1660e01b8152600401600060405180830381600087803b158015610ecb57600080fd5b505af1158015610edf573d6000803e3d6000fd5b505050506000610eee60355490565b9050610efa33856119ca565b600080610f05610bb5565b9092509050600083610f1788856120d5565b610f2191906120ec565b9050600084610f3089856120d5565b610f3a91906120ec565b60c954604051630441a3e760e41b815260048101859052602481018390529192506001600160a01b03169063441a3e7090604401600060405180830381600087803b158015610f8857600080fd5b505af1158015610f9c573d6000803e3d6000fd5b5050505086821080610fad57508581105b80610fbf575081158015610fbf575080155b15610fdd5760405163fa6ad35560e01b815260040160405180910390fd5b600080610fe8610918565b90925090506110016001600160a01b0383163386611afe565b6110156001600160a01b0382163385611afe565b604080518b81526020810186905290810184905233907f02f25270a4d87bea75db541cdfe559334a275b4a233520ed6c0a2429667cca949060600160405180910390a250505050505050505050565b6000338161107282866110ed565b9050838110156110d25760405162461bcd60e51b815260206004820152602560248201527f45524332303a2064656372656173656420616c6c6f77616e63652062656c6f77604482015264207a65726f60d81b6064820152608401610cc5565b6108eb828686840361154c565b6000336107fe8185856116e4565b6001600160a01b03918216600090815260346020908152604080832093909416825291909152205490565b61112061188f565b6040516370a0823160e01b81523060048201526000906001600160a01b038316906370a0823190602401602060405180830381865afa158015611167573d6000803e3d6000fd5b505050506040513d601f19601f8201168201806040525081019061118b9190612093565b9050610bb16001600160a01b0383163383611afe565b6111a961188f565b6001600160a01b03811661120e5760405162461bcd60e51b815260206004820152602660248201527f4f776e61626c653a206e6577206f776e657220697320746865207a65726f206160448201526564647265737360d01b6064820152608401610cc5565b611217816118e9565b50565b60026097540361126c5760405162461bcd60e51b815260206004820152601f60248201527f5265656e7472616e637947756172643a207265656e7472616e742063616c6c006044820152606401610cc5565b6002609755565b60008083158015611282575082155b15611291575084905083611409565b60006a0c097ce7bc90715b34b9f160241b6112ac89876120d5565b6112b691906120ec565b9050808410156113665760006112cc878661210e565b905060008282116112de57600061130c565b896a0c097ce7bc90715b34b9f160241b6112f885856120c2565b61130291906120d5565b61130c91906120ec565b905088811115611358578894506a0c097ce7bc90715b34b9f160241b8a61133387846120c2565b61133d91906120d5565b61134791906120ec565b61135190896120c2565b935061135f565b8094508793505b5050611407565b60006a0c097ce7bc90715b34b9f160241b6113818a8a6120d5565b61138b91906120ec565b611395908361210e565b905060008582116113a75760006113b1565b6113b186836120c2565b9050878111156113fd57896a0c097ce7bc90715b34b9f160241b6113d58a846120c2565b6113df91906120d5565b6113e991906120ec565b6113f3908a6120c2565b9450879350611404565b8894508093505b50505b505b9550959350505050565b6040516001600160a01b038085166024830152831660448201526064810182905261147e9085906323b872dd60e01b906084015b60408051601f198184030181529190526020810180516001600160e01b03166001600160e01b031990931692909217909152611b2e565b50505050565b6001600160a01b0382166114da5760405162461bcd60e51b815260206004820152601f60248201527f45524332303a206d696e7420746f20746865207a65726f2061646472657373006044820152606401610cc5565b80603560008282546114ec919061210e565b90915550506001600160a01b0382166000818152603360209081526040808320805486019055518481527fddf252ad1be2c89b69c2b068fc378daa952ba7f163c4a11628f55a4df523b3ef910160405180910390a35050565b6001609755565b6001600160a01b0383166115ae5760405162461bcd60e51b8152602060048201526024808201527f45524332303a20617070726f76652066726f6d20746865207a65726f206164646044820152637265737360e01b6064820152608401610cc5565b6001600160a01b03821661160f5760405162461bcd60e51b815260206004820152602260248201527f45524332303a20617070726f766520746f20746865207a65726f206164647265604482015261737360f01b6064820152608401610cc5565b6001600160a01b0383811660008181526034602090815260408083209487168084529482529182902085905590518481527f8c5be1e5ebec7d5bd14f71427d1e84f3dd0314c0f7b2291e5b200ac8c7c3b925910160405180910390a3505050565b600061167c84846110ed565b9050600019811461147e57818110156116d75760405162461bcd60e51b815260206004820152601d60248201527f45524332303a20696e73756666696369656e7420616c6c6f77616e63650000006044820152606401610cc5565b61147e848484840361154c565b6001600160a01b0383166117485760405162461bcd60e51b815260206004820152602560248201527f45524332303a207472616e736665722066726f6d20746865207a65726f206164604482015264647265737360d81b6064820152608401610cc5565b6001600160a01b0382166117aa5760405162461bcd60e51b815260206004820152602360248201527f45524332303a207472616e7366657220746f20746865207a65726f206164647260448201526265737360e81b6064820152608401610cc5565b6001600160a01b038316600090815260336020526040902054818110156118225760405162461bcd60e51b815260206004820152602660248201527f45524332303a207472616e7366657220616d6f756e7420657863656564732062604482015265616c616e636560d01b6064820152608401610cc5565b6001600160a01b0380851660008181526033602052604080822086860390559286168082529083902080548601905591517fddf252ad1be2c89b69c2b068fc378daa952ba7f163c4a11628f55a4df523b3ef906118829086815260200190565b60405180910390a361147e565b6065546001600160a01b03163314610a235760405162461bcd60e51b815260206004820181905260248201527f4f776e61626c653a2063616c6c6572206973206e6f7420746865206f776e65726044820152606401610cc5565b606580546001600160a01b038381166001600160a01b0319831681179093556040519116919082907f8be0079c531659141344cd1fd0a4f28419497f9722a3daafe3b4186f6b6457e090600090a35050565b600054610100900460ff166119625760405162461bcd60e51b8152600401610cc5906121be565b610bb18282611c03565b600054610100900460ff166119935760405162461bcd60e51b8152600401610cc5906121be565b610a23611c43565b600054610100900460ff166119c25760405162461bcd60e51b8152600401610cc5906121be565b610a23611c73565b6001600160a01b038216611a2a5760405162461bcd60e51b815260206004820152602160248201527f45524332303a206275726e2066726f6d20746865207a65726f206164647265736044820152607360f81b6064820152608401610cc5565b6001600160a01b03821660009081526033602052604090205481811015611a9e5760405162461bcd60e51b815260206004820152602260248201527f45524332303a206275726e20616d6f756e7420657863656564732062616c616e604482015261636560f01b6064820152608401610cc5565b6001600160a01b03831660008181526033602090815260408083208686039055603580548790039055518581529192917fddf252ad1be2c89b69c2b068fc378daa952ba7f163c4a11628f55a4df523b3ef910160405180910390a3505050565b6040516001600160a01b03831660248201526044810182905261075990849063a9059cbb60e01b90606401611447565b6000611b83826040518060400160405280602081526020017f5361666545524332303a206c6f772d6c6576656c2063616c6c206661696c6564815250856001600160a01b0316611c9a9092919063ffffffff16565b9050805160001480611ba4575080806020019051810190611ba4919061219c565b6107595760405162461bcd60e51b815260206004820152602a60248201527f5361666545524332303a204552433230206f7065726174696f6e20646964206e6044820152691bdd081cdd58d8d9595960b21b6064820152608401610cc5565b600054610100900460ff16611c2a5760405162461bcd60e51b8152600401610cc5906121be565b6036611c368382612267565b5060376107598282612267565b600054610100900460ff16611c6a5760405162461bcd60e51b8152600401610cc5906121be565b610a23336118e9565b600054610100900460ff166115455760405162461bcd60e51b8152600401610cc5906121be565b6060611ca98484600085611cb1565b949350505050565b606082471015611d125760405162461bcd60e51b815260206004820152602660248201527f416464726573733a20696e73756666696369656e742062616c616e636520666f6044820152651c8818d85b1b60d21b6064820152608401610cc5565b600080866001600160a01b03168587604051611d2e9190612327565b60006040518083038185875af1925050503d8060008114611d6b576040519150601f19603f3d011682016040523d82523d6000602084013e611d70565b606091505b5091509150611d8187838387611d8c565b979650505050505050565b60608315611dfb578251600003611df4576001600160a01b0385163b611df45760405162461bcd60e51b815260206004820152601d60248201527f416464726573733a2063616c6c20746f206e6f6e2d636f6e74726163740000006044820152606401610cc5565b5081611ca9565b611ca98383815115611e105781518083602001fd5b8060405162461bcd60e51b8152600401610cc59190611e7a565b600080600060608486031215611e3f57600080fd5b505081359360208301359350604090920135919050565b60005b83811015611e71578181015183820152602001611e59565b50506000910152565b6020815260008251806020840152611e99816040850160208701611e56565b601f01601f19169190910160400192915050565b6001600160a01b038116811461121757600080fd5b60008060408385031215611ed557600080fd5b8235611ee081611ead565b946020939093013593505050565b600060208284031215611f0057600080fd5b5035919050565b600080600060608486031215611f1c57600080fd5b8335611f2781611ead565b92506020840135611f3781611ead565b929592945050506040919091013590565b600060208284031215611f5a57600080fd5b8135611f6581611ead565b9392505050565b60008060408385031215611f7f57600080fd5b50508035926020909101359150565b60008083601f840112611fa057600080fd5b50813567ffffffffffffffff811115611fb857600080fd5b602083019150836020828501011115611fd057600080fd5b9250929050565b600080600080600060608688031215611fef57600080fd5b8535611ffa81611ead565b9450602086013567ffffffffffffffff8082111561201757600080fd5b61202389838a01611f8e565b9096509450604088013591508082111561203c57600080fd5b5061204988828901611f8e565b969995985093965092949392505050565b6000806040838503121561206d57600080fd5b823561207881611ead565b9150602083013561208881611ead565b809150509250929050565b6000602082840312156120a557600080fd5b5051919050565b634e487b7160e01b600052601160045260246000fd5b81810381811115610804576108046120ac565b8082028115828204841417610804576108046120ac565b60008261210957634e487b7160e01b600052601260045260246000fd5b500490565b80820180821115610804576108046120ac565b600181811c9082168061213557607f821691505b60208210810361215557634e487b7160e01b600052602260045260246000fd5b50919050565b60006020828403121561216d57600080fd5b8151611f6581611ead565b6000806040838503121561218b57600080fd5b505080516020909101519092909150565b6000602082840312156121ae57600080fd5b81518015158114611f6557600080fd5b6020808252602b908201527f496e697469616c697a61626c653a20636f6e7472616374206973206e6f74206960408201526a6e697469616c697a696e6760a81b606082015260800190565b634e487b7160e01b600052604160045260246000fd5b601f821115610759576000816000526020600020601f850160051c810160208610156122485750805b601f850160051c820191505b81811015610dd557828155600101612254565b815167ffffffffffffffff81111561228157612281612209565b6122958161228f8454612121565b8461221f565b602080601f8311600181146122ca57600084156122b25750858301515b600019600386901b1c1916600185901b178555610dd5565b600085815260208120601f198616915b828110156122f9578886015182559484019460019091019084016122da565b50858210156123175787850151600019600388901b60f8161c191681555b5050505050600190811b01905550565b60008251612339818460208701611e56565b919091019291505056fea26469706673582212209e59ecd672e37d20d58c787c4763b5b7aaf81d639e6b4c100a294ac02def3d3f64736f6c63430008170033","linkReferences":{}},"methodIdentifiers":{"allowance(address,address)":"dd62ed3e","approve(address,uint256)":"095ea7b3","balanceOf(address)":"70a08231","balances()":"7bb98a68","decimals()":"313ce567","decreaseAllowance(address,uint256)":"a457c2d7","deposit(uint256,uint256,uint256)":"00aeef8a","inCaseTokensGetStuck(address)":"def68a9c","increaseAllowance(address,uint256)":"39509351","initialize(address,string,string)":"90657147","isCalm()":"9bdde46b","name()":"06fdde03","owner()":"8da5cb5b","previewDeposit(uint256,uint256)":"7a7af70d","previewWithdraw(uint256)":"0a28a477","renounceOwnership()":"715018a6","strategy()":"a8c62e76","symbol()":"95d89b41","totalSupply()":"18160ddd","transfer(address,uint256)":"a9059cbb","transferFrom(address,address,uint256)":"23b872dd","transferOwnership(address)":"f2fde38b","want()":"1f1fcd51","wants()":"65844934","withdraw(uint256,uint256,uint256)":"a41fe49f","withdrawAll(uint256,uint256)":"7aff49d7"},"id":28}