{
  "_format": "hh-sol-artifact-1",
  "contractName": "StrategyPassiveManagerUniswap",
  "sourceName": "contracts/strategies/uniswap/StrategyPassiveManagerUniswap.sol",
  "abi": [
    {
      "inputs": [],
      "stateMutability": "nonpayable",
      "type": "constructor"
    },
    {
      "inputs": [
        {
          "internalType": "address",
          "name": "target",
          "type": "address"
        }
      ],
      "name": "AddressEmptyCode",
      "type": "error"
    },
    {
      "inputs": [
        {
          "internalType": "address",
          "name": "account",
          "type": "address"
        }
      ],
      "name": "AddressInsufficientBalance",
      "type": "error"
    },
    {
      "inputs": [],
      "name": "FailedInnerCall",
      "type": "error"
    },
    {
      "inputs": [],
      "name": "InvalidEntry",
      "type": "error"
    },
    {
      "inputs": [],
      "name": "InvalidInput",
      "type": "error"
    },
    {
      "inputs": [],
      "name": "InvalidOutput",
      "type": "error"
    },
    {
      "inputs": [],
      "name": "NotAuthorized",
      "type": "error"
    },
    {
      "inputs": [],
      "name": "NotCalm",
      "type": "error"
    },
    {
      "inputs": [],
      "name": "NotManager",
      "type": "error"
    },
    {
      "inputs": [],
      "name": "NotPool",
      "type": "error"
    },
    {
      "inputs": [],
      "name": "NotStrategist",
      "type": "error"
    },
    {
      "inputs": [],
      "name": "NotVault",
      "type": "error"
    },
    {
      "inputs": [],
      "name": "OverLimit",
      "type": "error"
    },
    {
      "inputs": [
        {
          "internalType": "address",
          "name": "token",
          "type": "address"
        }
      ],
      "name": "SafeERC20FailedOperation",
      "type": "error"
    },
    {
      "inputs": [],
      "name": "StrategyPaused",
      "type": "error"
    },
    {
      "inputs": [],
      "name": "TooMuchSlippage",
      "type": "error"
    },
    {
      "anonymous": false,
      "inputs": [
        {
          "indexed": false,
          "internalType": "uint256",
          "name": "callFeeAmount",
          "type": "uint256"
        },
        {
          "indexed": false,
          "internalType": "uint256",
          "name": "beefyFeeAmount",
          "type": "uint256"
        },
        {
          "indexed": false,
          "internalType": "uint256",
          "name": "strategistFeeAmount",
          "type": "uint256"
        }
      ],
      "name": "ChargedFees",
      "type": "event"
    },
    {
      "anonymous": false,
      "inputs": [
        {
          "indexed": false,
          "internalType": "uint256",
          "name": "feeMain0",
          "type": "uint256"
        },
        {
          "indexed": false,
          "internalType": "uint256",
          "name": "feeMain1",
          "type": "uint256"
        },
        {
          "indexed": false,
          "internalType": "uint256",
          "name": "feeAlt0",
          "type": "uint256"
        },
        {
          "indexed": false,
          "internalType": "uint256",
          "name": "feeAlt1",
          "type": "uint256"
        }
      ],
      "name": "ClaimedFees",
      "type": "event"
    },
    {
      "anonymous": false,
      "inputs": [
        {
          "indexed": false,
          "internalType": "uint256",
          "name": "bal0",
          "type": "uint256"
        },
        {
          "indexed": false,
          "internalType": "uint256",
          "name": "bal1",
          "type": "uint256"
        }
      ],
      "name": "Deposit",
      "type": "event"
    },
    {
      "anonymous": false,
      "inputs": [
        {
          "indexed": false,
          "internalType": "uint256",
          "name": "fee0",
          "type": "uint256"
        },
        {
          "indexed": false,
          "internalType": "uint256",
          "name": "fee1",
          "type": "uint256"
        }
      ],
      "name": "Harvest",
      "type": "event"
    },
    {
      "anonymous": false,
      "inputs": [
        {
          "indexed": false,
          "internalType": "uint8",
          "name": "version",
          "type": "uint8"
        }
      ],
      "name": "Initialized",
      "type": "event"
    },
    {
      "anonymous": false,
      "inputs": [
        {
          "indexed": true,
          "internalType": "address",
          "name": "previousOwner",
          "type": "address"
        },
        {
          "indexed": true,
          "internalType": "address",
          "name": "newOwner",
          "type": "address"
        }
      ],
      "name": "OwnershipTransferred",
      "type": "event"
    },
    {
      "anonymous": false,
      "inputs": [
        {
          "indexed": false,
          "internalType": "address",
          "name": "account",
          "type": "address"
        }
      ],
      "name": "Paused",
      "type": "event"
    },
    {
      "anonymous": false,
      "inputs": [
        {
          "indexed": false,
          "internalType": "int56",
          "name": "maxTickDeviation",
          "type": "int56"
        }
      ],
      "name": "SetDeviation",
      "type": "event"
    },
    {
      "anonymous": false,
      "inputs": [
        {
          "indexed": false,
          "internalType": "bytes",
          "name": "path",
          "type": "bytes"
        }
      ],
      "name": "SetLpToken0ToNativePath",
      "type": "event"
    },
    {
      "anonymous": false,
      "inputs": [
        {
          "indexed": false,
          "internalType": "bytes",
          "name": "path",
          "type": "bytes"
        }
      ],
      "name": "SetLpToken1ToNativePath",
      "type": "event"
    },
    {
      "anonymous": false,
      "inputs": [
        {
          "indexed": false,
          "internalType": "int24",
          "name": "oldWidth",
          "type": "int24"
        },
        {
          "indexed": false,
          "internalType": "int24",
          "name": "width",
          "type": "int24"
        }
      ],
      "name": "SetPositionWidth",
      "type": "event"
    },
    {
      "anonymous": false,
      "inputs": [
        {
          "indexed": false,
          "internalType": "address",
          "name": "quoter",
          "type": "address"
        }
      ],
      "name": "SetQuoter",
      "type": "event"
    },
    {
      "anonymous": false,
      "inputs": [
        {
          "indexed": false,
          "internalType": "uint256",
          "name": "feeId",
          "type": "uint256"
        }
      ],
      "name": "SetStratFeeId",
      "type": "event"
    },
    {
      "anonymous": false,
      "inputs": [
        {
          "indexed": false,
          "internalType": "address",
          "name": "strategist",
          "type": "address"
        }
      ],
      "name": "SetStrategist",
      "type": "event"
    },
    {
      "anonymous": false,
      "inputs": [
        {
          "indexed": false,
          "internalType": "uint32",
          "name": "oldInterval",
          "type": "uint32"
        },
        {
          "indexed": false,
          "internalType": "uint32",
          "name": "interval",
          "type": "uint32"
        }
      ],
      "name": "SetTwapInterval",
      "type": "event"
    },
    {
      "anonymous": false,
      "inputs": [
        {
          "indexed": false,
          "internalType": "address",
          "name": "unirouter",
          "type": "address"
        }
      ],
      "name": "SetUnirouter",
      "type": "event"
    },
    {
      "anonymous": false,
      "inputs": [
        {
          "indexed": false,
          "internalType": "address",
          "name": "account",
          "type": "address"
        }
      ],
      "name": "Unpaused",
      "type": "event"
    },
    {
      "anonymous": false,
      "inputs": [
        {
          "indexed": false,
          "internalType": "uint256",
          "name": "bal0",
          "type": "uint256"
        },
        {
          "indexed": false,
          "internalType": "uint256",
          "name": "bal1",
          "type": "uint256"
        }
      ],
      "name": "Withdraw",
      "type": "event"
    },
    {
      "inputs": [],
      "name": "balances",
      "outputs": [
        {
          "internalType": "uint256",
          "name": "token0Bal",
          "type": "uint256"
        },
        {
          "internalType": "uint256",
          "name": "token1Bal",
          "type": "uint256"
        }
      ],
      "stateMutability": "view",
      "type": "function"
    },
    {
      "inputs": [],
      "name": "balancesOfPool",
      "outputs": [
        {
          "internalType": "uint256",
          "name": "token0Bal",
          "type": "uint256"
        },
        {
          "internalType": "uint256",
          "name": "token1Bal",
          "type": "uint256"
        },
        {
          "internalType": "uint256",
          "name": "mainAmount0",
          "type": "uint256"
        },
        {
          "internalType": "uint256",
          "name": "mainAmount1",
          "type": "uint256"
        },
        {
          "internalType": "uint256",
          "name": "altAmount0",
          "type": "uint256"
        },
        {
          "internalType": "uint256",
          "name": "altAmount1",
          "type": "uint256"
        }
      ],
      "stateMutability": "view",
      "type": "function"
    },
    {
      "inputs": [],
      "name": "balancesOfThis",
      "outputs": [
        {
          "internalType": "uint256",
          "name": "token0Bal",
          "type": "uint256"
        },
        {
          "internalType": "uint256",
          "name": "token1Bal",
          "type": "uint256"
        }
      ],
      "stateMutability": "view",
      "type": "function"
    },
    {
      "inputs": [],
      "name": "beefyFeeConfig",
      "outputs": [
        {
          "internalType": "contract IFeeConfig",
          "name": "",
          "type": "address"
        }
      ],
      "stateMutability": "view",
      "type": "function"
    },
    {
      "inputs": [],
      "name": "beefyFeeRecipient",
      "outputs": [
        {
          "internalType": "address",
          "name": "",
          "type": "address"
        }
      ],
      "stateMutability": "view",
      "type": "function"
    },
    {
      "inputs": [],
      "name": "beforeAction",
      "outputs": [],
      "stateMutability": "nonpayable",
      "type": "function"
    },
    {
      "inputs": [],
      "name": "claimEarnings",
      "outputs": [
        {
          "internalType": "uint256",
          "name": "fee0",
          "type": "uint256"
        },
        {
          "internalType": "uint256",
          "name": "fee1",
          "type": "uint256"
        },
        {
          "internalType": "uint256",
          "name": "feeAlt0",
          "type": "uint256"
        },
        {
          "internalType": "uint256",
          "name": "feeAlt1",
          "type": "uint256"
        }
      ],
      "stateMutability": "nonpayable",
      "type": "function"
    },
    {
      "inputs": [],
      "name": "currentTick",
      "outputs": [
        {
          "internalType": "int24",
          "name": "tick",
          "type": "int24"
        }
      ],
      "stateMutability": "view",
      "type": "function"
    },
    {
      "inputs": [],
      "name": "deposit",
      "outputs": [],
      "stateMutability": "nonpayable",
      "type": "function"
    },
    {
      "inputs": [],
      "name": "depositFee",
      "outputs": [
        {
          "internalType": "uint256",
          "name": "",
          "type": "uint256"
        }
      ],
      "stateMutability": "view",
      "type": "function"
    },
    {
      "inputs": [],
      "name": "factory",
      "outputs": [
        {
          "internalType": "contract IStrategyFactory",
          "name": "",
          "type": "address"
        }
      ],
      "stateMutability": "view",
      "type": "function"
    },
    {
      "inputs": [],
      "name": "fees0",
      "outputs": [
        {
          "internalType": "uint256",
          "name": "",
          "type": "uint256"
        }
      ],
      "stateMutability": "view",
      "type": "function"
    },
    {
      "inputs": [],
      "name": "fees1",
      "outputs": [
        {
          "internalType": "uint256",
          "name": "",
          "type": "uint256"
        }
      ],
      "stateMutability": "view",
      "type": "function"
    },
    {
      "inputs": [],
      "name": "getAllFees",
      "outputs": [
        {
          "components": [
            {
              "components": [
                {
                  "internalType": "uint256",
                  "name": "total",
                  "type": "uint256"
                },
                {
                  "internalType": "uint256",
                  "name": "beefy",
                  "type": "uint256"
                },
                {
                  "internalType": "uint256",
                  "name": "call",
                  "type": "uint256"
                },
                {
                  "internalType": "uint256",
                  "name": "strategist",
                  "type": "uint256"
                },
                {
                  "internalType": "string",
                  "name": "label",
                  "type": "string"
                },
                {
                  "internalType": "bool",
                  "name": "active",
                  "type": "bool"
                }
              ],
              "internalType": "struct IFeeConfig.FeeCategory",
              "name": "performance",
              "type": "tuple"
            },
            {
              "internalType": "uint256",
              "name": "deposit",
              "type": "uint256"
            },
            {
              "internalType": "uint256",
              "name": "withdraw",
              "type": "uint256"
            }
          ],
          "internalType": "struct IFeeConfig.AllFees",
          "name": "",
          "type": "tuple"
        }
      ],
      "stateMutability": "view",
      "type": "function"
    },
    {
      "inputs": [],
      "name": "getKeys",
      "outputs": [
        {
          "internalType": "bytes32",
          "name": "keyMain",
          "type": "bytes32"
        },
        {
          "internalType": "bytes32",
          "name": "keyAlt",
          "type": "bytes32"
        }
      ],
      "stateMutability": "view",
      "type": "function"
    },
    {
      "inputs": [],
      "name": "getStratFeeId",
      "outputs": [
        {
          "internalType": "uint256",
          "name": "",
          "type": "uint256"
        }
      ],
      "stateMutability": "view",
      "type": "function"
    },
    {
      "inputs": [
        {
          "internalType": "address",
          "name": "_callFeeRecipient",
          "type": "address"
        }
      ],
      "name": "harvest",
      "outputs": [],
      "stateMutability": "nonpayable",
      "type": "function"
    },
    {
      "inputs": [],
      "name": "harvest",
      "outputs": [],
      "stateMutability": "nonpayable",
      "type": "function"
    },
    {
      "inputs": [
        {
          "internalType": "address",
          "name": "_pool",
          "type": "address"
        },
        {
          "internalType": "address",
          "name": "_quoter",
          "type": "address"
        },
        {
          "internalType": "int24",
          "name": "_positionWidth",
          "type": "int24"
        },
        {
          "internalType": "bytes",
          "name": "_lpToken0ToNativePath",
          "type": "bytes"
        },
        {
          "internalType": "bytes",
          "name": "_lpToken1ToNativePath",
          "type": "bytes"
        },
        {
          "components": [
            {
              "internalType": "address",
              "name": "vault",
              "type": "address"
            },
            {
              "internalType": "address",
              "name": "unirouter",
              "type": "address"
            },
            {
              "internalType": "address",
              "name": "strategist",
              "type": "address"
            },
            {
              "internalType": "address",
              "name": "factory",
              "type": "address"
            }
          ],
          "internalType": "struct StratFeeManagerInitializable.CommonAddresses",
          "name": "_commonAddresses",
          "type": "tuple"
        }
      ],
      "name": "initialize",
      "outputs": [],
      "stateMutability": "nonpayable",
      "type": "function"
    },
    {
      "inputs": [],
      "name": "isCalm",
      "outputs": [
        {
          "internalType": "bool",
          "name": "",
          "type": "bool"
        }
      ],
      "stateMutability": "view",
      "type": "function"
    },
    {
      "inputs": [],
      "name": "keeper",
      "outputs": [
        {
          "internalType": "address",
          "name": "",
          "type": "address"
        }
      ],
      "stateMutability": "view",
      "type": "function"
    },
    {
      "inputs": [],
      "name": "lastHarvest",
      "outputs": [
        {
          "internalType": "uint256",
          "name": "",
          "type": "uint256"
        }
      ],
      "stateMutability": "view",
      "type": "function"
    },
    {
      "inputs": [],
      "name": "lockedProfit",
      "outputs": [
        {
          "internalType": "uint256",
          "name": "locked0",
          "type": "uint256"
        },
        {
          "internalType": "uint256",
          "name": "locked1",
          "type": "uint256"
        }
      ],
      "stateMutability": "view",
      "type": "function"
    },
    {
      "inputs": [],
      "name": "lpToken0",
      "outputs": [
        {
          "internalType": "address",
          "name": "",
          "type": "address"
        }
      ],
      "stateMutability": "view",
      "type": "function"
    },
    {
      "inputs": [],
      "name": "lpToken0ToNative",
      "outputs": [
        {
          "internalType": "address[]",
          "name": "",
          "type": "address[]"
        }
      ],
      "stateMutability": "view",
      "type": "function"
    },
    {
      "inputs": [],
      "name": "lpToken0ToNativePath",
      "outputs": [
        {
          "internalType": "bytes",
          "name": "",
          "type": "bytes"
        }
      ],
      "stateMutability": "view",
      "type": "function"
    },
    {
      "inputs": [],
      "name": "lpToken0ToNativePrice",
      "outputs": [
        {
          "internalType": "uint256",
          "name": "",
          "type": "uint256"
        }
      ],
      "stateMutability": "nonpayable",
      "type": "function"
    },
    {
      "inputs": [],
      "name": "lpToken1",
      "outputs": [
        {
          "internalType": "address",
          "name": "",
          "type": "address"
        }
      ],
      "stateMutability": "view",
      "type": "function"
    },
    {
      "inputs": [],
      "name": "lpToken1ToNative",
      "outputs": [
        {
          "internalType": "address[]",
          "name": "",
          "type": "address[]"
        }
      ],
      "stateMutability": "view",
      "type": "function"
    },
    {
      "inputs": [],
      "name": "lpToken1ToNativePath",
      "outputs": [
        {
          "internalType": "bytes",
          "name": "",
          "type": "bytes"
        }
      ],
      "stateMutability": "view",
      "type": "function"
    },
    {
      "inputs": [],
      "name": "lpToken1ToNativePrice",
      "outputs": [
        {
          "internalType": "uint256",
          "name": "",
          "type": "uint256"
        }
      ],
      "stateMutability": "nonpayable",
      "type": "function"
    },
    {
      "inputs": [],
      "name": "maxTickDeviation",
      "outputs": [
        {
          "internalType": "int56",
          "name": "",
          "type": "int56"
        }
      ],
      "stateMutability": "view",
      "type": "function"
    },
    {
      "inputs": [],
      "name": "native",
      "outputs": [
        {
          "internalType": "address",
          "name": "",
          "type": "address"
        }
      ],
      "stateMutability": "view",
      "type": "function"
    },
    {
      "inputs": [],
      "name": "owner",
      "outputs": [
        {
          "internalType": "address",
          "name": "",
          "type": "address"
        }
      ],
      "stateMutability": "view",
      "type": "function"
    },
    {
      "inputs": [
        {
          "internalType": "uint256",
          "name": "_minAmount0",
          "type": "uint256"
        },
        {
          "internalType": "uint256",
          "name": "_minAmount1",
          "type": "uint256"
        }
      ],
      "name": "panic",
      "outputs": [],
      "stateMutability": "nonpayable",
      "type": "function"
    },
    {
      "inputs": [],
      "name": "paused",
      "outputs": [
        {
          "internalType": "bool",
          "name": "",
          "type": "bool"
        }
      ],
      "stateMutability": "view",
      "type": "function"
    },
    {
      "inputs": [],
      "name": "pool",
      "outputs": [
        {
          "internalType": "address",
          "name": "",
          "type": "address"
        }
      ],
      "stateMutability": "view",
      "type": "function"
    },
    {
      "inputs": [],
      "name": "positionAlt",
      "outputs": [
        {
          "internalType": "int24",
          "name": "tickLower",
          "type": "int24"
        },
        {
          "internalType": "int24",
          "name": "tickUpper",
          "type": "int24"
        }
      ],
      "stateMutability": "view",
      "type": "function"
    },
    {
      "inputs": [],
      "name": "positionMain",
      "outputs": [
        {
          "internalType": "int24",
          "name": "tickLower",
          "type": "int24"
        },
        {
          "internalType": "int24",
          "name": "tickUpper",
          "type": "int24"
        }
      ],
      "stateMutability": "view",
      "type": "function"
    },
    {
      "inputs": [],
      "name": "positionWidth",
      "outputs": [
        {
          "internalType": "int24",
          "name": "",
          "type": "int24"
        }
      ],
      "stateMutability": "view",
      "type": "function"
    },
    {
      "inputs": [],
      "name": "price",
      "outputs": [
        {
          "internalType": "uint256",
          "name": "_price",
          "type": "uint256"
        }
      ],
      "stateMutability": "view",
      "type": "function"
    },
    {
      "inputs": [],
      "name": "quoter",
      "outputs": [
        {
          "internalType": "address",
          "name": "",
          "type": "address"
        }
      ],
      "stateMutability": "view",
      "type": "function"
    },
    {
      "inputs": [],
      "name": "range",
      "outputs": [
        {
          "internalType": "uint256",
          "name": "lowerPrice",
          "type": "uint256"
        },
        {
          "internalType": "uint256",
          "name": "upperPrice",
          "type": "uint256"
        }
      ],
      "stateMutability": "view",
      "type": "function"
    },
    {
      "inputs": [],
      "name": "rebalance",
      "outputs": [],
      "stateMutability": "nonpayable",
      "type": "function"
    },
    {
      "inputs": [],
      "name": "renounceOwnership",
      "outputs": [],
      "stateMutability": "nonpayable",
      "type": "function"
    },
    {
      "inputs": [],
      "name": "retireVault",
      "outputs": [],
      "stateMutability": "nonpayable",
      "type": "function"
    },
    {
      "inputs": [
        {
          "internalType": "int56",
          "name": "_maxDeviation",
          "type": "int56"
        }
      ],
      "name": "setDeviation",
      "outputs": [],
      "stateMutability": "nonpayable",
      "type": "function"
    },
    {
      "inputs": [
        {
          "internalType": "bytes",
          "name": "_path",
          "type": "bytes"
        }
      ],
      "name": "setLpToken0ToNativePath",
      "outputs": [],
      "stateMutability": "nonpayable",
      "type": "function"
    },
    {
      "inputs": [
        {
          "internalType": "bytes",
          "name": "_path",
          "type": "bytes"
        }
      ],
      "name": "setLpToken1ToNativePath",
      "outputs": [],
      "stateMutability": "nonpayable",
      "type": "function"
    },
    {
      "inputs": [
        {
          "internalType": "int24",
          "name": "_width",
          "type": "int24"
        }
      ],
      "name": "setPositionWidth",
      "outputs": [],
      "stateMutability": "nonpayable",
      "type": "function"
    },
    {
      "inputs": [
        {
          "internalType": "uint256",
          "name": "_feeId",
          "type": "uint256"
        }
      ],
      "name": "setStratFeeId",
      "outputs": [],
      "stateMutability": "nonpayable",
      "type": "function"
    },
    {
      "inputs": [
        {
          "internalType": "address",
          "name": "_strategist",
          "type": "address"
        }
      ],
      "name": "setStrategist",
      "outputs": [],
      "stateMutability": "nonpayable",
      "type": "function"
    },
    {
      "inputs": [
        {
          "internalType": "uint32",
          "name": "_interval",
          "type": "uint32"
        }
      ],
      "name": "setTwapInterval",
      "outputs": [],
      "stateMutability": "nonpayable",
      "type": "function"
    },
    {
      "inputs": [
        {
          "internalType": "address",
          "name": "_unirouter",
          "type": "address"
        }
      ],
      "name": "setUnirouter",
      "outputs": [],
      "stateMutability": "nonpayable",
      "type": "function"
    },
    {
      "inputs": [],
      "name": "sqrtPrice",
      "outputs": [
        {
          "internalType": "uint160",
          "name": "sqrtPriceX96",
          "type": "uint160"
        }
      ],
      "stateMutability": "view",
      "type": "function"
    },
    {
      "inputs": [],
      "name": "strategist",
      "outputs": [
        {
          "internalType": "address",
          "name": "",
          "type": "address"
        }
      ],
      "stateMutability": "view",
      "type": "function"
    },
    {
      "inputs": [],
      "name": "totalLocked0",
      "outputs": [
        {
          "internalType": "uint256",
          "name": "",
          "type": "uint256"
        }
      ],
      "stateMutability": "view",
      "type": "function"
    },
    {
      "inputs": [],
      "name": "totalLocked1",
      "outputs": [
        {
          "internalType": "uint256",
          "name": "",
          "type": "uint256"
        }
      ],
      "stateMutability": "view",
      "type": "function"
    },
    {
      "inputs": [
        {
          "internalType": "address",
          "name": "newOwner",
          "type": "address"
        }
      ],
      "name": "transferOwnership",
      "outputs": [],
      "stateMutability": "nonpayable",
      "type": "function"
    },
    {
      "inputs": [],
      "name": "twap",
      "outputs": [
        {
          "internalType": "int56",
          "name": "twapTick",
          "type": "int56"
        }
      ],
      "stateMutability": "view",
      "type": "function"
    },
    {
      "inputs": [],
      "name": "twapInterval",
      "outputs": [
        {
          "internalType": "uint32",
          "name": "",
          "type": "uint32"
        }
      ],
      "stateMutability": "view",
      "type": "function"
    },
    {
      "inputs": [],
      "name": "unirouter",
      "outputs": [
        {
          "internalType": "address",
          "name": "",
          "type": "address"
        }
      ],
      "stateMutability": "view",
      "type": "function"
    },
    {
      "inputs": [
        {
          "internalType": "uint256",
          "name": "amount0",
          "type": "uint256"
        },
        {
          "internalType": "uint256",
          "name": "amount1",
          "type": "uint256"
        },
        {
          "internalType": "bytes",
          "name": "",
          "type": "bytes"
        }
      ],
      "name": "uniswapV3MintCallback",
      "outputs": [],
      "stateMutability": "nonpayable",
      "type": "function"
    },
    {
      "inputs": [],
      "name": "unpause",
      "outputs": [],
      "stateMutability": "nonpayable",
      "type": "function"
    },
    {
      "inputs": [],
      "name": "vault",
      "outputs": [
        {
          "internalType": "address",
          "name": "",
          "type": "address"
        }
      ],
      "stateMutability": "view",
      "type": "function"
    },
    {
      "inputs": [
        {
          "internalType": "uint256",
          "name": "_amount0",
          "type": "uint256"
        },
        {
          "internalType": "uint256",
          "name": "_amount1",
          "type": "uint256"
        }
      ],
      "name": "withdraw",
      "outputs": [],
      "stateMutability": "nonpayable",
      "type": "function"
    },
    {
      "inputs": [],
      "name": "withdrawFee",
      "outputs": [
        {
          "internalType": "uint256",
          "name": "",
          "type": "uint256"
        }
      ],
      "stateMutability": "view",
      "type": "function"
    }
  ],
  "bytecode": "0x60806040523480156200001157600080fd5b506200001c62000022565b620000e3565b600054610100900460ff16156200008f5760405162461bcd60e51b815260206004820152602760248201527f496e697469616c697a61626c653a20636f6e747261637420697320696e697469604482015266616c697a696e6760c81b606482015260840160405180910390fd5b60005460ff90811614620000e1576000805460ff191660ff9081179091556040519081527f7f26b83ff96e1f2b6a682f133852f6798a09c465da95921460cefb38474024989060200160405180910390a15b565b615b6280620000f36000396000f3fe608060405234801561001057600080fd5b50600436106103f05760003560e01c8063715018a611610215578063b3a60cb311610125578063d3487997116100b8578063e97206a911610087578063e97206a9146107ff578063f1a392da14610807578063f2fde38b14610810578063fbfa77cf14610823578063fcc25e131461083657600080fd5b8063d3487997146107b1578063d92f3d73146107c4578063d9ceab13146107d7578063e941fa781461063f57600080fd5b8063c6bbd5a7116100f4578063c6bbd5a71461077b578063c6ebd4ae1461078e578063c7b9d53014610796578063d0e30db0146107a957600080fd5b8063b3a60cb31461073f578063b83d268314610747578063bc415d8a1461074f578063c45a01551461076857600080fd5b80638e145459116101a85780639bdde46b116101775780639bdde46b1461070a5780639c6d490414610712578063a035b1fe1461071a578063aced166114610722578063b20feaaf1461072a57600080fd5b80638e145459146106be57806393f1c442146106c6578063953d329f146106cf57806399cd2446146106d757600080fd5b80638097e249116101e45780638097e24914610685578063877562b6146106925780638cfc0250146106a55780638da5cb5b146106ad57600080fd5b8063715018a61461065a5780637bb98a68146106625780637d7c2a1c1461066a5780637f10e4b91461067257600080fd5b8063257ae0de1161031057806344b81396116102a35780635c975abb116102725780635c975abb146106025780635ee167c014610619578063609913461461062c57806367a527931461063f578063696c58e51461064657600080fd5b806344b81396146105e15780634641257d146105e95780634746fb55146105f15780634c02a21c146105f957600080fd5b80633c1d5df0116102df5780633c1d5df0146105875780633e55f932146105b35780633f4ba83a146105c6578063441a3e70146105ce57600080fd5b8063257ae0de146105435780632b950b66146105565780632e773d321461055f578063362c28c61461057457600080fd5b806316b9cd9c116103885780631dcfeddd116103575780631dcfeddd146105005780631fe4a686146105155780632150c51814610528578063236db0421461053057600080fd5b806316b9cd9c146104ca57806316f0115b146104d257806317dd7a72146104e55780631d27050f146104ed57600080fd5b80630e5c011e116103c45780630e5c011e1461045e57806311b0b42d146104715780631208aa181461049c57806312cf1381146104b757600080fd5b8062a4b5c9146103f557806304c404b314610417578063065e53601461042e57806308898ea014610449575b600080fd5b6103fd61086b565b604080519283526020830191909152015b60405180910390f35b610420609d5481565b60405190815260200161040e565b610436610950565b60405160029190910b815260200161040e565b61045c610457366004614c18565b6109ca565b005b61045c61046c366004614c6f565b610b16565b609754610484906001600160a01b031681565b6040516001600160a01b03909116815260200161040e565b6104a4610b22565b60405160069190910b815260200161040e565b61045c6104c5366004614c9b565b610c91565b610420610d12565b60d054610484906001600160a01b031681565b61045c610e50565b61045c6104fb366004614cca565b610e6e565b610508610f0f565b60405161040e9190614d37565b609a54610484906001600160a01b031681565b6103fd610f9d565b61045c61053e366004614c18565b611029565b609954610484906001600160a01b031681565b610420609c5481565b610567611167565b60405161040e9190614d4a565b61045c610582366004614da6565b611249565b60da5461059e90600160501b900463ffffffff1681565b60405163ffffffff909116815260200161040e565b61045c6105c1366004614dc3565b6112ec565b61045c6113e1565b61045c6105dc366004614ddc565b61148e565b6103fd611540565b61045c61164d565b610484611656565b61042060d55481565b60655460ff165b604051901515815260200161040e565b60d254610484906001600160a01b031681565b61045c61063a366004614ddc565b6116c4565b6000610420565b60da546104a4906301000000900460060b81565b61045c61177a565b6103fd61178c565b61045c611838565b61045c610680366004614dfe565b6118dd565b60da546104369060020b81565b60d354610484906001600160a01b031681565b610420611b76565b6033546001600160a01b0316610484565b610484611bea565b61042060d45481565b610508611c34565b60d9546106f090600281810b9163010000009004900b82565b60408051600293840b81529190920b60208201520161040e565b610609611c41565b610420611ce9565b610420611dd3565b610484611e0c565b610732611e56565b60405161040e9190614ec2565b61045c611e86565b610484612050565b60d8546106f090600281810b9163010000009004900b82565b609b54610484906001600160a01b031681565b60d154610484906001600160a01b031681565b6105676120ca565b61045c6107a4366004614c6f565b6120f9565b61045c612172565b61045c6107bf366004614fd7565b612205565b61045c6107d2366004614c6f565b6122b2565b6107df61231e565b60408051948552602085019390935291830152606082015260800161040e565b6103fd61233a565b610420609e5481565b61045c61081e366004614c6f565b6123a9565b609854610484906001600160a01b031681565b61083e61241f565b604080519687526020870195909552938501929092526060840152608083015260a082015260c00161040e565b60d2546040516370a0823160e01b815230600482015260009182916001600160a01b03909116906370a0823190602401602060405180830381865afa1580156108b8573d6000803e3d6000fd5b505050506040513d601f19601f820116820180604052508101906108dc919061506a565b60d3546040516370a0823160e01b81523060048201526001600160a01b03909116906370a0823190602401602060405180830381865afa158015610924573d6000803e3d6000fd5b505050506040513d601f19601f82011682018060405250810190610948919061506a565b915091509091565b60d05460408051633850c7bd60e01b815290516000926001600160a01b031691633850c7bd9160048083019260e09291908290030181865afa15801561099a573d6000803e3d6000fd5b505050506040513d601f19601f820116820180604052508101906109be91906150a5565b50939695505050505050565b6109d261261c565b8015610b12576000610a1983838080601f01602080910402602001604051908101604052809392919081815260200183838082843760009201919091525061267692505050565b60d35481519192506001600160a01b0316908290600090610a3c57610a3c615132565b60200260200101516001600160a01b031614610a6b5760405163b4fa3fb360e01b815260040160405180910390fd5b60975481516001600160a01b03909116908290610a8a9060019061515e565b81518110610a9a57610a9a615132565b60200260200101516001600160a01b031614610ac9576040516398f7360960e01b815260040160405180910390fd5b60d7610ad68385836151f3565b507f1b9728f4ac995937074d8e70e21a1660544fb7c16be984e1c289f262f2be9c748383604051610b089291906152b3565b60405180910390a1505b5050565b610b1f81612777565b50565b6040805160028082526060820183526000928392919060208301908036833701905050905060da600a9054906101000a900463ffffffff1681600081518110610b6d57610b6d615132565b602002602001019063ffffffff16908163ffffffff1681525050600081600181518110610b9c57610b9c615132565b63ffffffff9092166020928302919091019091015260d05460405163883bdbfd60e01b81526000916001600160a01b03169063883bdbfd90610be29085906004016152e2565b600060405180830381865afa158015610bff573d6000803e3d6000fd5b505050506040513d6000823e601f3d908101601f19168201604052610c2791908101906153b7565b50905060da600a9054906101000a900463ffffffff1660030b81600081518110610c5357610c53615132565b602002602001015182600181518110610c6e57610c6e615132565b6020026020010151610c80919061547c565b610c8a91906154bf565b9250505090565b610c9961261c565b60da5460408051600292830b81529183900b60208301527f69d927977053f4ff4a26e8d792564e367e844a869cda4df12630bf7b62a632de910160405180910390a1610ce3612821565b50505050610cef612c20565b60da805462ffffff191662ffffff8316179055610d0a612f7a565b610b1f612fcc565b600080600a60d360009054906101000a90046001600160a01b03166001600160a01b031663313ce5676040518163ffffffff1660e01b8152600401602060405180830381865afa158015610d6a573d6000803e3d6000fd5b505050506040513d601f19601f82011682018060405250810190610d8e91906154fd565b610d9990600a615604565b610da39190615613565b60975460d3549192506001600160a01b03908116911603610dcf57610dc981600a615627565b91505090565b60d15460405163cdca175360e01b81526001600160a01b039091169063cdca175390610e029060d790859060040161563e565b6020604051808303816000875af1158015610e21573d6000803e3d6000fd5b505050506040513d601f19601f82011682018060405250810190610e45919061506a565b610dc990600a615627565b610e5861325b565b610e60612821565b50505050610e6c612c20565b565b610e7661261c565b60da546040805163ffffffff600160501b9093048316815291831660208301527f86139943149914833c057d2c24f3a3967cce8e6aba2eb12e422500d8a51ffc7b910160405180910390a1603c8163ffffffff161015610ee95760405163b4fa3fb360e01b815260040160405180910390fd5b60da805463ffffffff909216600160501b0263ffffffff60501b19909216919091179055565b60d68054610f1c90615171565b80601f0160208091040260200160405190810160405280929190818152602001828054610f4890615171565b8015610f955780601f10610f6a57610100808354040283529160200191610f95565b820191906000526020600020905b815481529060010190602001808311610f7857829003601f168201915b505050505081565b60d854604080513060601b6bffffffffffffffffffffffff1916602080830182905260e885811b6034850152630100000095869004811b60378501528451601a818603018152603a8501865280519083012060d954605a86019490945283821b606e8601529590920490911b607183015282516054818403018152607490920190925280519101209091565b61103161261c565b8015610b1257600061107883838080601f01602080910402602001604051908101604052809392919081815260200183838082843760009201919091525061267692505050565b60d25481519192506001600160a01b031690829060009061109b5761109b615132565b60200260200101516001600160a01b0316146110ca5760405163b4fa3fb360e01b815260040160405180910390fd5b60975481516001600160a01b039091169082906110e99060019061515e565b815181106110f9576110f9615132565b60200260200101516001600160a01b031614611128576040516398f7360960e01b815260040160405180910390fd5b60d66111358385836151f3565b507f203244158601764729526c0736d6b833b1f3da905ae0a631a059bbb9040541f08383604051610b089291906152b3565b606060d6805461117690615171565b90506000036111b15760005b6040519080825280602002602001820160405280156111ab578160200160208202803683370190505b50905090565b61124460d680546111c190615171565b80601f01602080910402602001604051908101604052809291908181526020018280546111ed90615171565b801561123a5780601f1061120f5761010080835404028352916020019161123a565b820191906000526020600020905b81548152906001019060200180831161121d57829003601f168201915b5050505050612676565b905090565b61125161261c565b604051600682900b81527f69d3f73bfb3c2f0de63dc1de2ed486cf45d88ebfff8cb1e8f124b085d2bafb979060200160405180910390a1611290613286565b61129b9060046156d5565b60020b8160060b126112c05760405163b4fa3fb360e01b815260040160405180910390fd5b60da805466ffffffffffffff90921663010000000269ffffffffffffff00000019909216919091179055565b6033546001600160a01b03163314801590611320575061130a611e0c565b6001600160a01b0316336001600160a01b031614155b1561133e5760405163607e454560e11b815260040160405180910390fd5b611346611656565b6001600160a01b0316633e55f932826040518263ffffffff1660e01b815260040161137391815260200190565b600060405180830381600087803b15801561138d57600080fd5b505af11580156113a1573d6000803e3d6000fd5b505050507f9163810ee1e29168d4ce900e48a333fb8fbd3fd070d2bef67f6d4db0846a469f816040516113d691815260200190565b60405180910390a150565b6033546001600160a01b0316331480159061141557506113ff611e0c565b6001600160a01b0316336001600160a01b031614155b156114335760405163607e454560e11b815260040160405180910390fd5b60006114476033546001600160a01b031690565b6001600160a01b03160361146e5760405163ea8e4eb560e01b815260040160405180910390fd5b6114766132f4565b61147e613332565b611486612f7a565b610e6c612fcc565b61149661325b565b81156114b95760985460d2546114b9916001600160a01b03918216911684613384565b80156114dc5760985460d3546114dc916001600160a01b03918216911683613384565b6114e46133e3565b6114f0576114f0612fcc565b6000806114fb61178c565b60408051838152602081018390529294509092507f56ca301a9219608c91e7bcee90e083c19671d2cdcc96752c7af291cee5f9c8c8910160405180910390a150505050565b60008060008061154e61086b565b9150915060008061155d61241f565b50505050915091506000828561157391906156fc565b9050600061158183866156fc565b90506000609e5442611593919061515e565b90506000610e1082106115a75760006115b3565b6115b382610e1061515e565b9050609c548411156115e157610e1081609c546115d09190615627565b6115da9190615613565b99506115fb565b610e106115ee8286615627565b6115f89190615613565b99505b609d5483111561162757610e1081609d546116169190615627565b6116209190615613565b9850611641565b610e106116348285615627565b61163e9190615613565b98505b50505050505050509091565b610e6c32612777565b609b5460408051634746fb5560e01b815290516000926001600160a01b031691634746fb559160048083019260209291908290030181865afa1580156116a0573d6000803e3d6000fd5b505050506040513d601f19601f82011682018060405250810190611244919061570f565b6033546001600160a01b031633148015906116f857506116e2611e0c565b6001600160a01b0316336001600160a01b031614155b156117165760405163607e454560e11b815260040160405180910390fd5b61171e612821565b5050505061172a612c20565b61173261346e565b61173a6134aa565b60008061174561178c565b915091508382108061175657508281105b156117745760405163fa6ad35560e01b815260040160405180910390fd5b50505050565b61178261261c565b610e6c60006134e7565b60008060008061179a61086b565b915091506000806117a961241f565b50505050915091506000806117bc611540565b90925090506000826117ce86896156fc565b6117d8919061515e565b90506000826117e786896156fc565b6117f1919061515e565b60d45460d5549192509083821115611807578391505b828111156118125750815b61181c828561515e565b611826828561515e565b9b509b50505050505050505050509091565b611840613539565b609b546040516305226abd60e51b81523360048201526001600160a01b039091169063a44d57a090602401602060405180830381865afa158015611888573d6000803e3d6000fd5b505050506040513d601f19601f820116820180604052508101906118ac919061572c565b6118c95760405163ea8e4eb560e01b815260040160405180910390fd5b6118d1612821565b5050505061147e612c20565b600054610100900460ff16158080156118fd5750600054600160ff909116105b806119175750303b158015611917575060005460ff166001145b61197f5760405162461bcd60e51b815260206004820152602e60248201527f496e697469616c697a61626c653a20636f6e747261637420697320616c72656160448201526d191e481a5b9a5d1a585b1a5e995960921b60648201526084015b60405180910390fd5b6000805460ff1916600117905580156119a2576000805461ff0019166101001790555b6119ab8261355e565b60d080546001600160a01b03808c166001600160a01b0319928316811790935560d18054918c169190921617905560408051630dfe168160e01b81529051630dfe1681916004808201926020929091908290030181865afa158015611a14573d6000803e3d6000fd5b505050506040513d601f19601f82011682018060405250810190611a38919061570f565b60d260006101000a8154816001600160a01b0302191690836001600160a01b03160217905550886001600160a01b031663d21220a76040518163ffffffff1660e01b8152600401602060405180830381865afa158015611a9c573d6000803e3d6000fd5b505050506040513d601f19601f82011682018060405250810190611ac0919061570f565b60d380546001600160a01b0319166001600160a01b039290921691909117905560da805462ffffff191662ffffff8916179055611afd8686611029565b611b0784846109ca565b60da805463ffffffff60501b1916600f60531b179055611b256132f4565b8015611b6b576000805461ff0019169055604051600181527f7f26b83ff96e1f2b6a682f133852f6798a09c465da95921460cefb38474024989060200160405180910390a15b505050505050505050565b6000611b80611656565b604051636788231160e11b81523060048201526001600160a01b03919091169063cf10462290602401602060405180830381865afa158015611bc6573d6000803e3d6000fd5b505050506040513d601f19601f82011682018060405250810190611244919061506a565b609b5460408051638e14545960e01b815290516000926001600160a01b031691638e1454599160048083019260209291908290030181865afa1580156116a0573d6000803e3d6000fd5b60d78054610f1c90615171565b600080611c4c610950565b90506000611c58610b22565b60da54909150600090611c8690611c79906301000000900460060b8461547c565b60060b620d89e7196136d3565b60da54909150600090611cb390611ca7906301000000900460060b85615747565b60060b620d89e86136ed565b90508360020b8260060b1380611cce57508360020b8160060b125b15611cde57600094505050505090565b600194505050505090565b600080600a60d260009054906101000a90046001600160a01b03166001600160a01b031663313ce5676040518163ffffffff1660e01b8152600401602060405180830381865afa158015611d41573d6000803e3d6000fd5b505050506040513d601f19601f82011682018060405250810190611d6591906154fd565b611d7090600a615604565b611d7a9190615613565b60975460d2549192506001600160a01b03908116911603611da057610dc981600a615627565b60d15460405163cdca175360e01b81526001600160a01b039091169063cdca175390610e029060d690859060040161563e565b600080611dde612050565b90506002611e02826001600160a01b0316670de0b6b3a7640000600160601b6136fc565b610dc99190615604565b609b546040805163aced166160e01b815290516000926001600160a01b03169163aced16619160048083019260209291908290030181865afa1580156116a0573d6000803e3d6000fd5b611e5e614b75565b6040518060600160405280611e716137b0565b81526020016000815260200160009052919050565b611e8e61261c565b609860009054906101000a90046001600160a01b03166001600160a01b03166318160ddd6040518163ffffffff1660e01b8152600401602060405180830381865afa158015611ee1573d6000803e3d6000fd5b505050506040513d601f19601f82011682018060405250810190611f05919061506a565b6103e814611f265760405163ea8e4eb560e01b815260040160405180910390fd5b611f316000806116c4565b6000611f3b611bea565b60d2546040516370a0823160e01b8152306004820152919250611fc19183916001600160a01b0316906370a0823190602401602060405180830381865afa158015611f8a573d6000803e3d6000fd5b505050506040513d601f19601f82011682018060405250810190611fae919061506a565b60d2546001600160a01b03169190613384565b60d3546040516370a0823160e01b81523060048201526120469183916001600160a01b03909116906370a0823190602401602060405180830381865afa15801561200f573d6000803e3d6000fd5b505050506040513d601f19601f82011682018060405250810190612033919061506a565b60d3546001600160a01b03169190613384565b610b1f60006134e7565b60d05460408051633850c7bd60e01b815290516000926001600160a01b031691633850c7bd9160048083019260e09291908290030181865afa15801561209a573d6000803e3d6000fd5b505050506040513d601f19601f820116820180604052508101906120be91906150a5565b50949695505050505050565b606060d780546120d990615171565b90506000036120e9576000611182565b61124460d780546111c190615171565b609a546001600160a01b0316331461212457604051633163ba6d60e11b815260040160405180910390fd5b609a80546001600160a01b0319166001600160a01b0383169081179091556040519081527f46d58e3fa07bf19b1d27240f0e286b27e9f7c1b0d88933333fe833b60eec5412906020016113d6565b61217a613539565b61218261325b565b60da54600160781b900460ff166121af5761219b612f7a565b60da805460ff60781b1916600160781b1790555b6121b7612fcc565b6000806121c261178c565b60408051838152602081018390529294509092507fa3af609bf46297028ce551832669030f9effef2b02606d02cbbcc40fe6b47c55910160405180910390a15050565b60d0546001600160a01b0316331461223057604051636f61f64160e01b815260040160405180910390fd5b60da54600160701b900460ff1661225a5760405163887efaa560e01b815260040160405180910390fd5b821561227d5760d05460d25461227d916001600160a01b03918216911685613384565b81156122a05760d05460d3546122a0916001600160a01b03918216911684613384565b505060da805460ff60701b1916905550565b6122ba61261c565b6122c261346e565b609980546001600160a01b0319166001600160a01b0383161790556122e56132f4565b6040516001600160a01b03821681527f5ca6e64c4522e68e154aa9372f2c5969cd37d9640e59f66953dc472f54ee86fa906020016113d6565b60008060008061232c612821565b929791965094509092509050565b60d85460009081906002906123709061235490830b613861565b6001600160a01b0316670de0b6b3a7640000600160601b6136fc565b61237a9190615604565b60d854909250600290612399906123549063010000009004830b613861565b6123a39190615604565b90509091565b6123b161261c565b6001600160a01b0381166124165760405162461bcd60e51b815260206004820152602660248201527f4f776e61626c653a206e6577206f776e657220697320746865207a65726f206160448201526564647265737360d01b6064820152608401611976565b610b1f816134e7565b600080600080600080600080612433610f9d565b915091506000612441612050565b60d05460405163514ea4bf60e01b815260048101869052919250600091829182916001600160a01b039091169063514ea4bf9060240160a060405180830381865afa158015612494573d6000803e3d6000fd5b505050506040513d601f19601f820116820180604052508101906124b8919061578b565b60d05460405163514ea4bf60e01b8152600481018c90529598506001600160801b039283169750911694506000938493508392506001600160a01b039091169063514ea4bf9060240160a060405180830381865afa15801561251e573d6000803e3d6000fd5b505050506040513d601f19601f82011682018060405250810190612542919061578b565b60d8549497506001600160801b039182169650169350612588928a925061256c915060020b613861565b60d854612582906301000000900460020b613861565b89613b97565b60d954919e509c506125be9088906125a29060020b613861565b60d9546125b8906301000000900460020b613861565b86613b97565b909b5099506125cd858e6156fc565b9c506125d9848d6156fc565b9b506125e5828c6156fc565b9a506125f1818b6156fc565b99506125fd8b8e6156fc565b9e506126098a8d6156fc565b9d50505050505050505050909192939495565b6033546001600160a01b03163314610e6c5760405162461bcd60e51b815260206004820181905260248201527f4f776e61626c653a2063616c6c6572206973206e6f7420746865206f776e65726044820152606401611976565b6060600061268383613c33565b905060006126928260016156fc565b67ffffffffffffffff8111156126aa576126aa614f3f565b6040519080825280602002602001820160405280156126d3578160200160208202803683370190505b50905060005b8281101561276f576000806126ed87613c59565b50915091508184848151811061270557612705615132565b6001600160a01b0390921660209283029190910190910152808461272a8560016156fc565b8151811061273a5761273a615132565b60200260200101906001600160a01b031690816001600160a01b03168152505061276387613c95565b965050506001016126d9565b509392505050565b61277f612821565b5050505061278b612c20565b60008061279d8360d45460d554613cc6565b915091506127a9612fcc565b600060d481905560d5819055806127be611540565b90925090506127cd82856156fc565b609c556127da81846156fc565b609d5542609e5560408051858152602081018590527f6c8433a8e155f0af04dba058d4e4695f7da554578963d876bdf4a6d8d6399d9c910160405180910390a15050505050565b600080600080600080612832610f9d565b60d05460405163514ea4bf60e01b8152600481018490529294509092506000916001600160a01b039091169063514ea4bf9060240160a060405180830381865afa158015612884573d6000803e3d6000fd5b505050506040513d601f19601f820116820180604052508101906128a8919061578b565b505060d05460405163514ea4bf60e01b8152600481018790529394506000936001600160a01b03909116925063514ea4bf915060240160a060405180830381865afa1580156128fb573d6000803e3d6000fd5b505050506040513d601f19601f8201168201806040525081019061291f919061578b565b5050505090506000826001600160801b031611156129c05760d05460d85460405163a34123a760e01b81526001600160a01b039092169163a34123a79161297b91600282810b9263010000009004900b906000906004016157e2565b60408051808303816000875af1158015612999573d6000803e3d6000fd5b505050506040513d601f19601f820116820180604052508101906129bd9190615808565b50505b6001600160801b03811615612a585760d05460d95460405163a34123a760e01b81526001600160a01b039092169163a34123a791612a1391600282810b9263010000009004900b906000906004016157e2565b60408051808303816000875af1158015612a31573d6000803e3d6000fd5b505050506040513d601f19601f82011682018060405250810190612a559190615808565b50505b60d05460d8546040516309e3d67b60e31b81526001600160a01b0390921691634f1eb3d891612aa7913091600281810b926301000000909204900b906001600160801b0390819060040161582c565b60408051808303816000875af1158015612ac5573d6000803e3d6000fd5b505050506040513d601f19601f82011682018060405250810190612ae99190615869565b60d05460d9546040516309e3d67b60e31b81526001600160801b039485169c509284169a506001600160a01b0390911692634f1eb3d892612b41923092600282810b936301000000909304900b91819060040161582c565b60408051808303816000875af1158015612b5f573d6000803e3d6000fd5b505050506040513d601f19601f82011682018060405250810190612b839190615869565b60d4546001600160801b039283169850911695508690612ba4908a906156fc565b612bae91906156fc565b60d45560d5548590612bc19089906156fc565b612bcb91906156fc565b60d5556040805189815260208101899052908101879052606081018690527f6fe7c663aa15def6e80578b76ddd894fcefeabf14a0106afbec24da4a6c578729060800160405180910390a15050505090919293565b600080612c2b610f9d565b60d05460405163514ea4bf60e01b8152600481018490529294509092506000916001600160a01b039091169063514ea4bf9060240160a060405180830381865afa158015612c7d573d6000803e3d6000fd5b505050506040513d601f19601f82011682018060405250810190612ca1919061578b565b505060d05460405163514ea4bf60e01b8152600481018790529394506000936001600160a01b03909116925063514ea4bf915060240160a060405180830381865afa158015612cf4573d6000803e3d6000fd5b505050506040513d601f19601f82011682018060405250810190612d18919061578b565b5050505090506000826001600160801b03161115612e4b5760d05460d85460405163a34123a760e01b81526001600160a01b039092169163a34123a791612d7391600282810b9263010000009004900b9087906004016157e2565b60408051808303816000875af1158015612d91573d6000803e3d6000fd5b505050506040513d601f19601f82011682018060405250810190612db59190615808565b505060d05460d8546040516309e3d67b60e31b81526001600160a01b0390921691634f1eb3d891612e06913091600281810b926301000000909204900b906001600160801b0390819060040161582c565b60408051808303816000875af1158015612e24573d6000803e3d6000fd5b505050506040513d601f19601f82011682018060405250810190612e489190615869565b50505b6001600160801b038116156117745760d05460d95460405163a34123a760e01b81526001600160a01b039092169163a34123a791612e9d91600282810b9263010000009004900b9086906004016157e2565b60408051808303816000875af1158015612ebb573d6000803e3d6000fd5b505050506040513d601f19601f82011682018060405250810190612edf9190615808565b505060d05460d9546040516309e3d67b60e31b81526001600160a01b0390921691634f1eb3d891612f30913091600281810b926301000000909204900b906001600160801b0390819060040161582c565b60408051808303816000875af1158015612f4e573d6000803e3d6000fd5b505050506040513d601f19601f82011682018060405250810190612f729190615869565b505050505050565b612f82613539565b6000612f8c610950565b90506000612f98613286565b60da54909150600090612faf90839060020b6156d5565b9050612fbc838383613fc0565b612fc7838383613ffb565b505050565b612fd4614103565b600080612fdf61086b565b915091506000612fed612050565b60d8549091506000906130259083906130089060020b613861565b60d85461301e906301000000900460020b613861565b87876141a4565b60d854909150600090613048908390600281810b9163010000009004900b614268565b90506000826001600160801b03161180156130605750805b156131355760da805460ff60701b1916600160701b17905560d05460d854604051633c8a7d8d60e01b8152306004820152600282810b6024830152630100000090920490910b60448201526001600160801b038416606482015260a06084820152600a60a4820152692132b2b33c9026b0b4b760b11b60c48201526001600160a01b0390911690633c8a7d8d9060e40160408051808303816000875af115801561310e573d6000803e3d6000fd5b505050506040513d601f19601f820116820180604052508101906131329190615808565b50505b61313d61086b565b60d95491965094506131749084906131579060020b613861565b60d95461316d906301000000900460020b613861565b88886141a4565b91506001600160801b038216156132545760da805460ff60701b1916600160701b17905560d05460d954604051633c8a7d8d60e01b8152306004820152600282810b6024830152630100000090920490910b60448201526001600160801b038416606482015260a06084820152600960a482015268109959599e48105b1d60ba1b60c48201526001600160a01b0390911690633c8a7d8d9060e40160408051808303816000875af115801561322d573d6000803e3d6000fd5b505050506040513d601f19601f820116820180604052508101906132519190615808565b50505b5050505050565b6098546001600160a01b03163314610e6c576040516362df054560e01b815260040160405180910390fd5b60d054604080516334324e9f60e21b815290516000926001600160a01b03169163d0c93a7c9160048083019260209291908290030181865afa1580156132d0573d6000803e3d6000fd5b505050506040513d601f19601f82011682018060405250810190611244919061589c565b60995460d254613313916001600160a01b0391821691166000196142b6565b60995460d354610e6c916001600160a01b0391821691166000196142b6565b61333a614346565b6065805460ff191690557f5db9ee0a495bf2e6ff9c91a7834c1ba4fdd244a5e8aa4e537bd38aeae4b073aa335b6040516001600160a01b03909116815260200160405180910390a1565b6040516001600160a01b03838116602483015260448201839052612fc791859182169063a9059cbb906064015b604051602081830303815290604052915060e01b6020820180516001600160e01b03838183161783525050505061438f565b60006133f160655460ff1690565b806112445750609b60009054906101000a90046001600160a01b03166001600160a01b031663f12d54d86040518163ffffffff1660e01b8152600401602060405180830381865afa15801561344a573d6000803e3d6000fd5b505050506040513d601f19601f82011682018060405250810190611244919061572c565b60995460d25461348c916001600160a01b03918216911660006142b6565b60995460d354610e6c916001600160a01b03918216911660006142b6565b6134b26143f2565b6065805460ff191660011790557f62e78cea01bee320cd4e420270b5ea74000d11b0c9f74754ebdbfc544b05a2586133673390565b603380546001600160a01b038381166001600160a01b0319831681179093556040519116919082907f8be0079c531659141344cd1fd0a4f28419497f9722a3daafe3b4186f6b6457e090600090a35050565b613541611c41565b610e6c576040516313643c3b60e11b815260040160405180910390fd5b600054610100900460ff166135855760405162461bcd60e51b8152600401611976906158b9565b61358d614438565b613595614467565b6135a26020820182614c6f565b609880546001600160a01b0319166001600160a01b03929092169190911790556135d26040820160208301614c6f565b609980546001600160a01b0319166001600160a01b03929092169190911790556136026060820160408301614c6f565b609a80546001600160a01b0319166001600160a01b03929092169190911790556136326080820160608301614c6f565b609b80546001600160a01b0319166001600160a01b03929092169182179055604080516311b0b42d60e01b815290516311b0b42d916004808201926020929091908290030181865afa15801561368c573d6000803e3d6000fd5b505050506040513d601f19601f820116820180604052508101906136b0919061570f565b609780546001600160a01b0319166001600160a01b039290921691909117905550565b60008183136136e257816136e4565b825b90505b92915050565b60008183126136e257816136e4565b6000808060001985870985870292508281108382030391505080600003613735576000841161372a57600080fd5b5082900490506137a9565b80841161374157600080fd5b600084868809851960019081018716968790049682860381900495909211909303600082900391909104909201919091029190911760038402600290811880860282030280860282030280860282030280860282030280860282030280860290910302029150505b9392505050565b6137eb6040518060c0016040528060008152602001600081526020016000815260200160008152602001606081526020016000151581525090565b6137f3611656565b604051639af608c960e01b81523060048201526001600160a01b039190911690639af608c990602401600060405180830381865afa158015613839573d6000803e3d6000fd5b505050506040513d6000823e601f3d908101601f191682016040526112449190810190615904565b60008060008360020b12613878578260020b613880565b8260020b6000035b9050620d89e88111156138b95760405162461bcd60e51b81526020600482015260016024820152601560fa1b6044820152606401611976565b6000816001166000036138d057600160801b6138e2565b6ffffcb933bd6fad37aa2d162d1a5940015b70ffffffffffffffffffffffffffffffffff1690506002821615613916576ffff97272373d413259a46990580e213a0260801c5b6004821615613935576ffff2e50f5f656932ef12357cf3c7fdcc0260801c5b6008821615613954576fffe5caca7e10e4e61c3624eaa0941cd00260801c5b6010821615613973576fffcb9843d60f6159c9db58835c9266440260801c5b6020821615613992576fff973b41fa98c081472e6896dfb254c00260801c5b60408216156139b1576fff2ea16466c96a3843ec78b326b528610260801c5b60808216156139d0576ffe5dee046a99a2a811c461f1969c30530260801c5b6101008216156139f0576ffcbe86c7900a88aedcffc83b479aa3a40260801c5b610200821615613a10576ff987a7253ac413176f2b074cf7815e540260801c5b610400821615613a30576ff3392b0822b70005940c7a398e4b70f30260801c5b610800821615613a50576fe7159475a2c29b7443b29c7fa6e889d90260801c5b611000821615613a70576fd097f3bdfd2022b8845ad8f792aa58250260801c5b612000821615613a90576fa9f746462d870fdf8a65dc1f90e061e50260801c5b614000821615613ab0576f70d869a156d2a1b890bb3df62baf32f70260801c5b618000821615613ad0576f31be135f97d08fd981231505542fcfa60260801c5b62010000821615613af1576f09aa508b5b7a84e1c677de54f3e99bc90260801c5b62020000821615613b11576e5d6af8dedb81196699c329225ee6040260801c5b62040000821615613b30576d2216e584f5fa1ea926041bedfe980260801c5b62080000821615613b4d576b048a170391f7dc42444e8fa20260801c5b60008460020b1315613b6e578060001981613b6a57613b6a6154a9565b0490505b640100000000810615613b82576001613b85565b60005b60ff16602082901c0192505050919050565b600080836001600160a01b0316856001600160a01b03161115613bb8579293925b846001600160a01b0316866001600160a01b031611613be357613bdc858585614496565b9150613c2a565b836001600160a01b0316866001600160a01b03161015613c1c57613c08868585614496565b9150613c15858785614511565b9050613c2a565b613c27858585614511565b90505b94509492505050565b6000613c41600360146156fc565b60148351613c4f919061515e565b6136e79190615613565b60008080613c67848261455b565b9250613c748460146145c0565b9050613c8c613c85600360146156fc565b859061455b565b91509193909250565b60606136e7613ca6600360146156fc565b613cb2600360146156fc565b8451613cbe919061515e565b84919061466b565b6000806000613cd36137b0565b905060008515613e09578151600090670de0b6b3a764000090613cf69089615627565b613d009190615613565b9050613d0c818861515e565b60975460d2549196506000916001600160a01b03908116911614613dd05760995460d68054613dcd926001600160a01b03169190613d4990615171565b80601f0160208091040260200160405190810160405280929190818152602001828054613d7590615171565b8015613dc25780601f10613d9757610100808354040283529160200191613dc2565b820191906000526020600020905b815481529060010190602001808311613da557829003601f168201915b505050505084614778565b90505b60975460d2546001600160a01b03918216911603613df957613df282846156fc565b9250613e06565b613e0381846156fc565b92505b50505b8415613eb7578151600090670de0b6b3a764000090613e289088615627565b613e329190615613565b9050613e3e818761515e565b60975460d3549195506000916001600160a01b03908116911614613e7e5760995460d78054613e7b926001600160a01b03169190613d4990615171565b90505b60975460d3546001600160a01b03918216911603613ea757613ea082846156fc565b9250613eb4565b613eb181846156fc565b92505b50505b6000670de0b6b3a7640000836040015183613ed29190615627565b613edc9190615613565b609754909150613ef6906001600160a01b03168983613384565b6000670de0b6b3a7640000846060015184613f119190615627565b613f1b9190615613565b609a54609754919250613f3b916001600160a01b03908116911683613384565b600081613f48848661515e565b613f52919061515e565b9050613f72613f5f611bea565b6097546001600160a01b03169083613384565b60408051848152602081018390529081018390527fd255b592c7f268a73e534da5219a60ff911b4cf6daae21c7d20527dd657bd99a9060600160405180910390a15050505050935093915050565b613fcb838284614808565b60d8805465ffffffffffff1916630100000062ffffff9384160262ffffff19161792909116919091179055505050565b60008061400661086b565b909250905060008215614042576ec097ce7bc90715b34b9f100000000061402b611dd3565b6140359085615627565b61403f9190615613565b90505b818110156140a157614055868587614808565b5060d9805462ffffff191662ffffff92909216919091179055614079868680614808565b5060d9805462ffffff90921663010000000265ffffff00000019909216919091179055612f72565b80821015612f72576140b4868687614808565b60d9805462ffffff191662ffffff92909216919091179055506140d8868587614808565b60d9805462ffffff90921663010000000265ffffff0000001990921691909117905550505050505050565b60655460ff16806141865750609b60009054906101000a90046001600160a01b03166001600160a01b031663f12d54d86040518163ffffffff1660e01b8152600401602060405180830381865afa158015614162573d6000803e3d6000fd5b505050506040513d601f19601f82011682018060405250810190614186919061572c565b15610e6c5760405163e628b94960e01b815260040160405180910390fd5b6000836001600160a01b0316856001600160a01b031611156141c4579293925b846001600160a01b0316866001600160a01b0316116141ef576141e885858561483a565b905061425f565b836001600160a01b0316866001600160a01b0316101561425157600061421687868661483a565b905060006142258789866148a4565b9050806001600160801b0316826001600160801b0316106142465780614248565b815b9250505061425f565b61425c8585846148a4565b90505b95945050505050565b600080600061428a614278612050565b61428187613861565b61258287613861565b91509150816000148061429b575080155b156142ab576000925050506137a9565b6001925050506137a9565b604080516001600160a01b038416602482015260448082018490528251808303909101815260649091019091526020810180516001600160e01b031663095ea7b360e01b17905261430784826148da565b611774576040516001600160a01b0384811660248301526000604483015261433c91869182169063095ea7b3906064016133b1565b611774848261438f565b60655460ff16610e6c5760405162461bcd60e51b815260206004820152601460248201527314185d5cd8589b194e881b9bdd081c185d5cd95960621b6044820152606401611976565b60006143a46001600160a01b0384168361497d565b905080516000141580156143c95750808060200190518101906143c7919061572c565b155b15612fc757604051635274afe760e01b81526001600160a01b0384166004820152602401611976565b60655460ff1615610e6c5760405162461bcd60e51b815260206004820152601060248201526f14185d5cd8589b194e881c185d5cd95960821b6044820152606401611976565b600054610100900460ff1661445f5760405162461bcd60e51b8152600401611976906158b9565b610e6c61498b565b600054610100900460ff1661448e5760405162461bcd60e51b8152600401611976906158b9565b610e6c6149bb565b6000826001600160a01b0316846001600160a01b031611156144b6579192915b6001600160a01b0384166144ff6fffffffffffffffffffffffffffffffff60601b606085901b166144e787876159e2565b6001600160a01b0316866001600160a01b03166136fc565b6145099190615613565b949350505050565b6000826001600160a01b0316846001600160a01b03161115614531579192915b6145096001600160801b03831661454886866159e2565b6001600160a01b0316600160601b6136fc565b60006145688260146156fc565b835110156145b05760405162461bcd60e51b8152602060048201526015602482015274746f416464726573735f6f75744f66426f756e647360581b6044820152606401611976565b500160200151600160601b900490565b6000816145ce8160036156fc565b10156146105760405162461bcd60e51b8152602060048201526011602482015270746f55696e7432345f6f766572666c6f7760781b6044820152606401611976565b61461b8260036156fc565b835110156146625760405162461bcd60e51b8152602060048201526014602482015273746f55696e7432345f6f75744f66426f756e647360601b6044820152606401611976565b50016003015190565b60608161467981601f6156fc565b10156146b85760405162461bcd60e51b815260206004820152600e60248201526d736c6963655f6f766572666c6f7760901b6044820152606401611976565b6146c282846156fc565b845110156147065760405162461bcd60e51b8152602060048201526011602482015270736c6963655f6f75744f66426f756e647360781b6044820152606401611976565b606082158015614725576040519150600082526020820160405261476f565b6040519150601f8416801560200281840101858101878315602002848b0101015b8183101561475e578051835260209283019201614746565b5050858452601f01601f1916604052505b50949350505050565b60408051608081018252838152306020820152808201839052600060608201819052915163b858183f60e01b81526001600160a01b0386169063b858183f906147c5908490600401615a02565b6020604051808303816000875af11580156147e4573d6000803e3d6000fd5b505050506040513d601f19601f8201168201806040525081019061425f919061506a565b600080600061481786856149ee565b90506148238582615a50565b925061482f8582615a75565b915050935093915050565b6000826001600160a01b0316846001600160a01b0316111561485a579192915b600061487d856001600160a01b0316856001600160a01b0316600160601b6136fc565b905061425f61489f848361489189896159e2565b6001600160a01b03166136fc565b614a38565b6000826001600160a01b0316846001600160a01b031611156148c4579192915b61450961489f83600160601b61489188886159e2565b6000806000846001600160a01b0316846040516148f79190615a9a565b6000604051808303816000865af19150503d8060008114614934576040519150601f19603f3d011682016040523d82523d6000602084013e614939565b606091505b5091509150818015614963575080511580614963575080806020019051810190614963919061572c565b801561425f5750505050506001600160a01b03163b151590565b60606136e483836000614a53565b600054610100900460ff166149b25760405162461bcd60e51b8152600401611976906158b9565b610e6c336134e7565b600054610100900460ff166149e25760405162461bcd60e51b8152600401611976906158b9565b6065805460ff19169055565b6000806149fb8385615ab6565b905060008460020b128015614a1b5750614a158385615ae7565b60020b15155b15614a2e5780614a2a81615b09565b9150505b61450983826156d5565b806001600160801b0381168114614a4e57600080fd5b919050565b606081471015614a785760405163cd78605960e01b8152306004820152602401611976565b600080856001600160a01b03168486604051614a949190615a9a565b60006040518083038185875af1925050503d8060008114614ad1576040519150601f19603f3d011682016040523d82523d6000602084013e614ad6565b606091505b5091509150614ae6868383614af0565b9695505050505050565b606082614b0557614b0082614b4c565b6137a9565b8151158015614b1c57506001600160a01b0384163b155b15614b4557604051639996b31560e01b81526001600160a01b0385166004820152602401611976565b50806137a9565b805115614b5c5780518082602001fd5b604051630a12f52160e11b815260040160405180910390fd5b6040518060600160405280614bbb6040518060c0016040528060008152602001600081526020016000815260200160008152602001606081526020016000151581525090565b815260200160008152602001600081525090565b60008083601f840112614be157600080fd5b50813567ffffffffffffffff811115614bf957600080fd5b602083019150836020828501011115614c1157600080fd5b9250929050565b60008060208385031215614c2b57600080fd5b823567ffffffffffffffff811115614c4257600080fd5b614c4e85828601614bcf565b90969095509350505050565b6001600160a01b0381168114610b1f57600080fd5b600060208284031215614c8157600080fd5b81356137a981614c5a565b8060020b8114610b1f57600080fd5b600060208284031215614cad57600080fd5b81356137a981614c8c565b63ffffffff81168114610b1f57600080fd5b600060208284031215614cdc57600080fd5b81356137a981614cb8565b60005b83811015614d02578181015183820152602001614cea565b50506000910152565b60008151808452614d23816020860160208601614ce7565b601f01601f19169290920160200192915050565b6020815260006136e46020830184614d0b565b6020808252825182820181905260009190848201906040850190845b81811015614d8b5783516001600160a01b031683529284019291840191600101614d66565b50909695505050505050565b8060060b8114610b1f57600080fd5b600060208284031215614db857600080fd5b81356137a981614d97565b600060208284031215614dd557600080fd5b5035919050565b60008060408385031215614def57600080fd5b50508035926020909101359150565b600080600080600080600080888a03610120811215614e1c57600080fd5b8935614e2781614c5a565b985060208a0135614e3781614c5a565b975060408a0135614e4781614c8c565b965060608a013567ffffffffffffffff80821115614e6457600080fd5b614e708d838e01614bcf565b909850965060808c0135915080821115614e8957600080fd5b50614e968c828d01614bcf565b9095509350506080609f1982011215614eae57600080fd5b5060a0890190509295985092959890939650565b60208152600082516060602084015280516080840152602081015160a0840152604081015160c0840152606081015160e0840152608081015160c0610100850152614f11610140850182614d0b565b905060a082015115156101208501526020850151604085015260408501516060850152809250505092915050565b634e487b7160e01b600052604160045260246000fd5b60405160c0810167ffffffffffffffff81118282101715614f7857614f78614f3f565b60405290565b604051601f8201601f1916810167ffffffffffffffff81118282101715614fa757614fa7614f3f565b604052919050565b600067ffffffffffffffff821115614fc957614fc9614f3f565b50601f01601f191660200190565b600080600060608486031215614fec57600080fd5b8335925060208401359150604084013567ffffffffffffffff81111561501157600080fd5b8401601f8101861361502257600080fd5b803561503561503082614faf565b614f7e565b81815287602083850101111561504a57600080fd5b816020840160208301376000602083830101528093505050509250925092565b60006020828403121561507c57600080fd5b5051919050565b805161ffff81168114614a4e57600080fd5b80518015158114614a4e57600080fd5b600080600080600080600060e0888a0312156150c057600080fd5b87516150cb81614c5a565b60208901519097506150dc81614c8c565b95506150ea60408901615083565b94506150f860608901615083565b935061510660808901615083565b925060a088015161511681614cb8565b915061512460c08901615095565b905092959891949750929550565b634e487b7160e01b600052603260045260246000fd5b634e487b7160e01b600052601160045260246000fd5b818103818111156136e7576136e7615148565b600181811c9082168061518557607f821691505b6020821081036151a557634e487b7160e01b600052602260045260246000fd5b50919050565b601f821115612fc7576000816000526020600020601f850160051c810160208610156151d45750805b601f850160051c820191505b81811015612f72578281556001016151e0565b67ffffffffffffffff83111561520b5761520b614f3f565b61521f836152198354615171565b836151ab565b6000601f841160018114615253576000851561523b5750838201355b600019600387901b1c1916600186901b178355613254565b600083815260209020601f19861690835b828110156152845786850135825560209485019460019092019101615264565b50868210156152a15760001960f88860031b161c19848701351681555b505060018560011b0183555050505050565b60208152816020820152818360408301376000818301604090810191909152601f909201601f19160101919050565b6020808252825182820181905260009190848201906040850190845b81811015614d8b57835163ffffffff16835292840192918401916001016152fe565b600067ffffffffffffffff82111561533a5761533a614f3f565b5060051b60200190565b600082601f83011261535557600080fd5b8151602061536561503083615320565b8083825260208201915060208460051b87010193508684111561538757600080fd5b602086015b848110156153ac57805161539f81614c5a565b835291830191830161538c565b509695505050505050565b600080604083850312156153ca57600080fd5b825167ffffffffffffffff808211156153e257600080fd5b818501915085601f8301126153f657600080fd5b8151602061540661503083615320565b82815260059290921b8401810191818101908984111561542557600080fd5b948201945b8386101561544c57855161543d81614d97565b8252948201949082019061542a565b9188015191965090935050508082111561546557600080fd5b5061547285828601615344565b9150509250929050565b600682810b9082900b03667fffffffffffff198112667fffffffffffff821317156136e7576136e7615148565b634e487b7160e01b600052601260045260246000fd5b60008160060b8360060b806154d6576154d66154a9565b667fffffffffffff198214600019821416156154f4576154f4615148565b90059392505050565b60006020828403121561550f57600080fd5b815160ff811681146137a957600080fd5b600181815b8085111561555b57816000190482111561554157615541615148565b8085161561554e57918102915b93841c9390800290615525565b509250929050565b600082615572575060016136e7565b8161557f575060006136e7565b8160018114615595576002811461559f576155bb565b60019150506136e7565b60ff8411156155b0576155b0615148565b50506001821b6136e7565b5060208310610133831016604e8410600b84101617156155de575081810a6136e7565b6155e88383615520565b80600019048211156155fc576155fc615148565b029392505050565b60006136e460ff841683615563565b600082615622576156226154a9565b500490565b80820281158282048414176136e7576136e7615148565b60408152600080845461565081615171565b8060408601526060600180841660008114615672576001811461568e576156c0565b60ff1985166060890152606084151560051b89010195506156c0565b8960005260208060002060005b868110156156b65781548b820187015290840190820161569b565b8a01606001975050505b50505050506020929092019290925292915050565b60008260020b8260020b028060020b91508082146156f5576156f5615148565b5092915050565b808201808211156136e7576136e7615148565b60006020828403121561572157600080fd5b81516137a981614c5a565b60006020828403121561573e57600080fd5b6136e482615095565b600681810b9083900b01667fffffffffffff8113667fffffffffffff19821217156136e7576136e7615148565b80516001600160801b0381168114614a4e57600080fd5b600080600080600060a086880312156157a357600080fd5b6157ac86615774565b945060208601519350604086015192506157c860608701615774565b91506157d660808701615774565b90509295509295909350565b600293840b81529190920b60208201526001600160801b03909116604082015260600190565b6000806040838503121561581b57600080fd5b505080516020909101519092909150565b6001600160a01b03959095168552600293840b60208601529190920b60408401526001600160801b03918216606084015216608082015260a00190565b6000806040838503121561587c57600080fd5b61588583615774565b915061589360208401615774565b90509250929050565b6000602082840312156158ae57600080fd5b81516137a981614c8c565b6020808252602b908201527f496e697469616c697a61626c653a20636f6e7472616374206973206e6f74206960408201526a6e697469616c697a696e6760a81b606082015260800190565b6000602080838503121561591757600080fd5b825167ffffffffffffffff8082111561592f57600080fd5b9084019060c0828703121561594357600080fd5b61594b614f55565b825181528383015184820152604083015160408201526060830151606082015260808301518281111561597d57600080fd5b83019150601f8201871361599057600080fd5b815161599e61503082614faf565b81815288868386010111156159b257600080fd5b6159c182878301888701614ce7565b6080830152506159d360a08401615095565b60a08201529695505050505050565b6001600160a01b038281168282160390808211156156f5576156f5615148565b602081526000825160806020840152615a1e60a0840182614d0b565b905060018060a01b03602085015116604084015260408401516060840152606084015160808401528091505092915050565b600282810b9082900b03627fffff198112627fffff821317156136e7576136e7615148565b600281810b9083900b01627fffff8113627fffff19821217156136e7576136e7615148565b60008251615aac818460208701614ce7565b9190910192915050565b60008160020b8360020b80615acd57615acd6154a9565b627fffff198214600019821416156154f4576154f4615148565b60008260020b80615afa57615afa6154a9565b808360020b0791505092915050565b60008160020b627fffff198103615b2257615b22615148565b600019019291505056fea264697066735822122087c899eff6d8f6ffef3243b48614978f3f88a76554cfffae18f6e77c900efef064736f6c63430008170033",
  "linkReferences": {},
  "deployedLinkReferences": {}
}