{
  "_format": "hh-sol-artifact-1",
  "contractName": "StratFeeManagerInitializable",
  "sourceName": "contracts/strategies/StratFeeManagerInitializable.sol",
  "abi": [
    {
      "inputs": [],
      "name": "NotManager",
      "type": "error"
    },
    {
      "inputs": [],
      "name": "NotStrategist",
      "type": "error"
    },
    {
      "inputs": [],
      "name": "OverLimit",
      "type": "error"
    },
    {
      "inputs": [],
      "name": "StrategyPaused",
      "type": "error"
    },
    {
      "anonymous": false,
      "inputs": [
        {
          "indexed": false,
          "internalType": "uint8",
          "name": "version",
          "type": "uint8"
        }
      ],
      "name": "Initialized",
      "type": "event"
    },
    {
      "anonymous": false,
      "inputs": [
        {
          "indexed": true,
          "internalType": "address",
          "name": "previousOwner",
          "type": "address"
        },
        {
          "indexed": true,
          "internalType": "address",
          "name": "newOwner",
          "type": "address"
        }
      ],
      "name": "OwnershipTransferred",
      "type": "event"
    },
    {
      "anonymous": false,
      "inputs": [
        {
          "indexed": false,
          "internalType": "address",
          "name": "account",
          "type": "address"
        }
      ],
      "name": "Paused",
      "type": "event"
    },
    {
      "anonymous": false,
      "inputs": [
        {
          "indexed": false,
          "internalType": "uint256",
          "name": "feeId",
          "type": "uint256"
        }
      ],
      "name": "SetStratFeeId",
      "type": "event"
    },
    {
      "anonymous": false,
      "inputs": [
        {
          "indexed": false,
          "internalType": "address",
          "name": "strategist",
          "type": "address"
        }
      ],
      "name": "SetStrategist",
      "type": "event"
    },
    {
      "anonymous": false,
      "inputs": [
        {
          "indexed": false,
          "internalType": "address",
          "name": "unirouter",
          "type": "address"
        }
      ],
      "name": "SetUnirouter",
      "type": "event"
    },
    {
      "anonymous": false,
      "inputs": [
        {
          "indexed": false,
          "internalType": "address",
          "name": "account",
          "type": "address"
        }
      ],
      "name": "Unpaused",
      "type": "event"
    },
    {
      "inputs": [],
      "name": "beefyFeeConfig",
      "outputs": [
        {
          "internalType": "contract IFeeConfig",
          "name": "",
          "type": "address"
        }
      ],
      "stateMutability": "view",
      "type": "function"
    },
    {
      "inputs": [],
      "name": "beefyFeeRecipient",
      "outputs": [
        {
          "internalType": "address",
          "name": "",
          "type": "address"
        }
      ],
      "stateMutability": "view",
      "type": "function"
    },
    {
      "inputs": [],
      "name": "depositFee",
      "outputs": [
        {
          "internalType": "uint256",
          "name": "",
          "type": "uint256"
        }
      ],
      "stateMutability": "view",
      "type": "function"
    },
    {
      "inputs": [],
      "name": "factory",
      "outputs": [
        {
          "internalType": "contract IStrategyFactory",
          "name": "",
          "type": "address"
        }
      ],
      "stateMutability": "view",
      "type": "function"
    },
    {
      "inputs": [],
      "name": "getAllFees",
      "outputs": [
        {
          "components": [
            {
              "components": [
                {
                  "internalType": "uint256",
                  "name": "total",
                  "type": "uint256"
                },
                {
                  "internalType": "uint256",
                  "name": "beefy",
                  "type": "uint256"
                },
                {
                  "internalType": "uint256",
                  "name": "call",
                  "type": "uint256"
                },
                {
                  "internalType": "uint256",
                  "name": "strategist",
                  "type": "uint256"
                },
                {
                  "internalType": "string",
                  "name": "label",
                  "type": "string"
                },
                {
                  "internalType": "bool",
                  "name": "active",
                  "type": "bool"
                }
              ],
              "internalType": "struct IFeeConfig.FeeCategory",
              "name": "performance",
              "type": "tuple"
            },
            {
              "internalType": "uint256",
              "name": "deposit",
              "type": "uint256"
            },
            {
              "internalType": "uint256",
              "name": "withdraw",
              "type": "uint256"
            }
          ],
          "internalType": "struct IFeeConfig.AllFees",
          "name": "",
          "type": "tuple"
        }
      ],
      "stateMutability": "view",
      "type": "function"
    },
    {
      "inputs": [],
      "name": "getStratFeeId",
      "outputs": [
        {
          "internalType": "uint256",
          "name": "",
          "type": "uint256"
        }
      ],
      "stateMutability": "view",
      "type": "function"
    },
    {
      "inputs": [],
      "name": "keeper",
      "outputs": [
        {
          "internalType": "address",
          "name": "",
          "type": "address"
        }
      ],
      "stateMutability": "view",
      "type": "function"
    },
    {
      "inputs": [],
      "name": "lastHarvest",
      "outputs": [
        {
          "internalType": "uint256",
          "name": "",
          "type": "uint256"
        }
      ],
      "stateMutability": "view",
      "type": "function"
    },
    {
      "inputs": [],
      "name": "lockedProfit",
      "outputs": [
        {
          "internalType": "uint256",
          "name": "locked0",
          "type": "uint256"
        },
        {
          "internalType": "uint256",
          "name": "locked1",
          "type": "uint256"
        }
      ],
      "stateMutability": "view",
      "type": "function"
    },
    {
      "inputs": [],
      "name": "native",
      "outputs": [
        {
          "internalType": "address",
          "name": "",
          "type": "address"
        }
      ],
      "stateMutability": "view",
      "type": "function"
    },
    {
      "inputs": [],
      "name": "owner",
      "outputs": [
        {
          "internalType": "address",
          "name": "",
          "type": "address"
        }
      ],
      "stateMutability": "view",
      "type": "function"
    },
    {
      "inputs": [],
      "name": "paused",
      "outputs": [
        {
          "internalType": "bool",
          "name": "",
          "type": "bool"
        }
      ],
      "stateMutability": "view",
      "type": "function"
    },
    {
      "inputs": [],
      "name": "renounceOwnership",
      "outputs": [],
      "stateMutability": "nonpayable",
      "type": "function"
    },
    {
      "inputs": [
        {
          "internalType": "uint256",
          "name": "_feeId",
          "type": "uint256"
        }
      ],
      "name": "setStratFeeId",
      "outputs": [],
      "stateMutability": "nonpayable",
      "type": "function"
    },
    {
      "inputs": [
        {
          "internalType": "address",
          "name": "_strategist",
          "type": "address"
        }
      ],
      "name": "setStrategist",
      "outputs": [],
      "stateMutability": "nonpayable",
      "type": "function"
    },
    {
      "inputs": [
        {
          "internalType": "address",
          "name": "_unirouter",
          "type": "address"
        }
      ],
      "name": "setUnirouter",
      "outputs": [],
      "stateMutability": "nonpayable",
      "type": "function"
    },
    {
      "inputs": [],
      "name": "strategist",
      "outputs": [
        {
          "internalType": "address",
          "name": "",
          "type": "address"
        }
      ],
      "stateMutability": "view",
      "type": "function"
    },
    {
      "inputs": [],
      "name": "totalLocked0",
      "outputs": [
        {
          "internalType": "uint256",
          "name": "",
          "type": "uint256"
        }
      ],
      "stateMutability": "view",
      "type": "function"
    },
    {
      "inputs": [],
      "name": "totalLocked1",
      "outputs": [
        {
          "internalType": "uint256",
          "name": "",
          "type": "uint256"
        }
      ],
      "stateMutability": "view",
      "type": "function"
    },
    {
      "inputs": [
        {
          "internalType": "address",
          "name": "newOwner",
          "type": "address"
        }
      ],
      "name": "transferOwnership",
      "outputs": [],
      "stateMutability": "nonpayable",
      "type": "function"
    },
    {
      "inputs": [],
      "name": "unirouter",
      "outputs": [
        {
          "internalType": "address",
          "name": "",
          "type": "address"
        }
      ],
      "stateMutability": "view",
      "type": "function"
    },
    {
      "inputs": [],
      "name": "vault",
      "outputs": [
        {
          "internalType": "address",
          "name": "",
          "type": "address"
        }
      ],
      "stateMutability": "view",
      "type": "function"
    },
    {
      "inputs": [],
      "name": "withdrawFee",
      "outputs": [
        {
          "internalType": "uint256",
          "name": "",
          "type": "uint256"
        }
      ],
      "stateMutability": "view",
      "type": "function"
    }
  ],
  "bytecode": "0x608060405234801561001057600080fd5b50610c55806100206000396000f3fe608060405234801561001057600080fd5b506004361061014d5760003560e01c80638cfc0250116100c3578063c7b9d5301161007c578063c7b9d53014610278578063d92f3d731461028b578063e941fa7814610218578063f1a392da1461029e578063f2fde38b146102a7578063fbfa77cf146102ba57600080fd5b80638cfc0250146102275780638da5cb5b1461022f5780638e14545914610240578063aced166114610248578063b20feaaf14610250578063c45a01551461026557600080fd5b80633e55f932116101155780633e55f932146101c857806344b81396146101dd5780634746fb55146101fa5780635c975abb1461020257806367a5279314610218578063715018a61461021f57600080fd5b806304c404b31461015257806311b0b42d1461016e5780631fe4a68614610199578063257ae0de146101ac5780632b950b66146101bf575b600080fd5b61015b609d5481565b6040519081526020015b60405180910390f35b609754610181906001600160a01b031681565b6040516001600160a01b039091168152602001610165565b609a54610181906001600160a01b031681565b609954610181906001600160a01b031681565b61015b609c5481565b6101db6101d63660046108fa565b6102cd565b005b6101e56103c2565b60408051928352602083019190915201610165565b610181610437565b60655460ff166040519015158152602001610165565b600061015b565b6101db6104aa565b61015b6104be565b6033546001600160a01b0316610181565b610181610532565b61018161057c565b6102586105c6565b6040516101659190610937565b609b54610181906001600160a01b031681565b6101db6102863660046109e2565b6105f6565b6101db6102993660046109e2565b61066f565b61015b609e5481565b6101db6102b53660046109e2565b6106c5565b609854610181906001600160a01b031681565b6033546001600160a01b0316331480159061030157506102eb61057c565b6001600160a01b0316336001600160a01b031614155b1561031f5760405163607e454560e11b815260040160405180910390fd5b610327610437565b6001600160a01b0316633e55f932826040518263ffffffff1660e01b815260040161035491815260200190565b600060405180830381600087803b15801561036e57600080fd5b505af1158015610382573d6000803e3d6000fd5b505050507f9163810ee1e29168d4ce900e48a333fb8fbd3fd070d2bef67f6d4db0846a469f816040516103b791815260200190565b60405180910390a150565b6000806000609e54426103d59190610a1c565b90506000610e1082106103e95760006103f5565b6103f582610e10610a1c565b9050610e1081609c546104089190610a35565b6104129190610a4c565b610e1082609d546104239190610a35565b61042d9190610a4c565b9350935050509091565b609b5460408051634746fb5560e01b815290516000926001600160a01b031691634746fb559160048083019260209291908290030181865afa158015610481573d6000803e3d6000fd5b505050506040513d601f19601f820116820180604052508101906104a59190610a6e565b905090565b6104b2610743565b6104bc600061079d565b565b60006104c8610437565b604051636788231160e11b81523060048201526001600160a01b03919091169063cf10462290602401602060405180830381865afa15801561050e573d6000803e3d6000fd5b505050506040513d601f19601f820116820180604052508101906104a59190610a8b565b609b5460408051638e14545960e01b815290516000926001600160a01b031691638e1454599160048083019260209291908290030181865afa158015610481573d6000803e3d6000fd5b609b546040805163aced166160e01b815290516000926001600160a01b03169163aced16619160048083019260209291908290030181865afa158015610481573d6000803e3d6000fd5b6105ce6108a0565b60405180606001604052806105e16107ef565b81526020016000815260200160009052919050565b609a546001600160a01b0316331461062157604051633163ba6d60e11b815260040160405180910390fd5b609a80546001600160a01b0319166001600160a01b0383169081179091556040519081527f46d58e3fa07bf19b1d27240f0e286b27e9f7c1b0d88933333fe833b60eec5412906020016103b7565b610677610743565b609980546001600160a01b0319166001600160a01b0383169081179091556040519081527f5ca6e64c4522e68e154aa9372f2c5969cd37d9640e59f66953dc472f54ee86fa906020016103b7565b6106cd610743565b6001600160a01b0381166107375760405162461bcd60e51b815260206004820152602660248201527f4f776e61626c653a206e6577206f776e657220697320746865207a65726f206160448201526564647265737360d01b60648201526084015b60405180910390fd5b6107408161079d565b50565b6033546001600160a01b031633146104bc5760405162461bcd60e51b815260206004820181905260248201527f4f776e61626c653a2063616c6c6572206973206e6f7420746865206f776e6572604482015260640161072e565b603380546001600160a01b038381166001600160a01b0319831681179093556040519116919082907f8be0079c531659141344cd1fd0a4f28419497f9722a3daafe3b4186f6b6457e090600090a35050565b61082a6040518060c0016040528060008152602001600081526020016000815260200160008152602001606081526020016000151581525090565b610832610437565b604051639af608c960e01b81523060048201526001600160a01b039190911690639af608c990602401600060405180830381865afa158015610878573d6000803e3d6000fd5b505050506040513d6000823e601f3d908101601f191682016040526104a59190810190610b29565b60405180606001604052806108e66040518060c0016040528060008152602001600081526020016000815260200160008152602001606081526020016000151581525090565b815260200160008152602001600081525090565b60006020828403121561090c57600080fd5b5035919050565b60005b8381101561092e578181015183820152602001610916565b50506000910152565b60208152600082516060602084015280516080840152602081015160a0840152604081015160c0840152606081015160e0840152608081015160c06101008501528051806101408601526101606109948282880160208601610913565b60a08401511515610120870152602087015160408701526040870151606087015280601f19601f84011687010194505050505092915050565b6001600160a01b038116811461074057600080fd5b6000602082840312156109f457600080fd5b81356109ff816109cd565b9392505050565b634e487b7160e01b600052601160045260246000fd5b81810381811115610a2f57610a2f610a06565b92915050565b8082028115828204841417610a2f57610a2f610a06565b600082610a6957634e487b7160e01b600052601260045260246000fd5b500490565b600060208284031215610a8057600080fd5b81516109ff816109cd565b600060208284031215610a9d57600080fd5b5051919050565b634e487b7160e01b600052604160045260246000fd5b60405160c0810167ffffffffffffffff81118282101715610add57610add610aa4565b60405290565b604051601f8201601f1916810167ffffffffffffffff81118282101715610b0c57610b0c610aa4565b604052919050565b80518015158114610b2457600080fd5b919050565b60006020808385031215610b3c57600080fd5b825167ffffffffffffffff80821115610b5457600080fd5b9084019060c08287031215610b6857600080fd5b610b70610aba565b8251815283830151848201526040830151604082015260608301516060820152608083015182811115610ba257600080fd5b8301601f81018813610bb357600080fd5b805183811115610bc557610bc5610aa4565b610bd7601f8201601f19168701610ae3565b93508084528886828401011115610bed57600080fd5b610bfc81878601888501610913565b5050816080820152610c1060a08401610b14565b60a0820152969550505050505056fea2646970667358221220d16f9d21478497373b06da1c53d783dd6b05066800572b5f4270764fe91f48c064736f6c63430008170033",
  "linkReferences": {},
  "deployedLinkReferences": {}
}