{"abi":[{"type":"function","name":"balances","inputs":[],"outputs":[{"name":"token0Bal","type":"uint256","internalType":"uint256"},{"name":"token1Bal","type":"uint256","internalType":"uint256"}],"stateMutability":"view"},{"type":"function","name":"balancesOfPool","inputs":[],"outputs":[{"name":"token0Bal","type":"uint256","internalType":"uint256"},{"name":"token1Bal","type":"uint256","internalType":"uint256"},{"name":"mainAmount0","type":"uint256","internalType":"uint256"},{"name":"mainAmount1","type":"uint256","internalType":"uint256"},{"name":"altAmount0","type":"uint256","internalType":"uint256"},{"name":"altAmount1","type":"uint256","internalType":"uint256"}],"stateMutability":"view"},{"type":"function","name":"balancesOfThis","inputs":[],"outputs":[{"name":"token0Bal","type":"uint256","internalType":"uint256"},{"name":"token1Bal","type":"uint256","internalType":"uint256"}],"stateMutability":"view"},{"type":"function","name":"beefyFeeConfig","inputs":[],"outputs":[{"name":"","type":"address","internalType":"contract IFeeConfig"}],"stateMutability":"view"},{"type":"function","name":"beefyFeeRecipient","inputs":[],"outputs":[{"name":"","type":"address","internalType":"address"}],"stateMutability":"view"},{"type":"function","name":"beforeAction","inputs":[],"outputs":[],"stateMutability":"nonpayable"},{"type":"function","name":"currentTick","inputs":[],"outputs":[{"name":"tick","type":"int24","internalType":"int24"}],"stateMutability":"view"},{"type":"function","name":"deposit","inputs":[],"outputs":[],"stateMutability":"nonpayable"},{"type":"function","name":"depositFee","inputs":[],"outputs":[{"name":"","type":"uint256","internalType":"uint256"}],"stateMutability":"view"},{"type":"function","name":"factory","inputs":[],"outputs":[{"name":"","type":"address","internalType":"contract IStrategyFactory"}],"stateMutability":"view"},{"type":"function","name":"fees","inputs":[],"outputs":[{"name":"","type":"uint256","internalType":"uint256"}],"stateMutability":"view"},{"type":"function","name":"gauge","inputs":[],"outputs":[{"name":"","type":"address","internalType":"address"}],"stateMutability":"view"},{"type":"function","name":"getAllFees","inputs":[],"outputs":[{"name":"","type":"tuple","internalType":"struct IFeeConfig.AllFees","components":[{"name":"performance","type":"tuple","internalType":"struct IFeeConfig.FeeCategory","components":[{"name":"total","type":"uint256","internalType":"uint256"},{"name":"beefy","type":"uint256","internalType":"uint256"},{"name":"call","type":"uint256","internalType":"uint256"},{"name":"strategist","type":"uint256","internalType":"uint256"},{"name":"label","type":"string","internalType":"string"},{"name":"active","type":"bool","internalType":"bool"}]},{"name":"deposit","type":"uint256","internalType":"uint256"},{"name":"withdraw","type":"uint256","internalType":"uint256"}]}],"stateMutability":"view"},{"type":"function","name":"getStratFeeId","inputs":[],"outputs":[{"name":"","type":"uint256","internalType":"uint256"}],"stateMutability":"view"},{"type":"function","name":"harvest","inputs":[{"name":"_callFeeRecipient","type":"address","internalType":"address"}],"outputs":[],"stateMutability":"nonpayable"},{"type":"function","name":"harvest","inputs":[],"outputs":[],"stateMutability":"nonpayable"},{"type":"function","name":"initialize","inputs":[{"name":"_pool","type":"address","internalType":"address"},{"name":"_quoter","type":"address","internalType":"address"},{"name":"_nftManager","type":"address","internalType":"address"},{"name":"_gauge","type":"address","internalType":"address"},{"name":"_rewardPool","type":"address","internalType":"address"},{"name":"_output","type":"address","internalType":"address"},{"name":"_positionWidth","type":"int24","internalType":"int24"},{"name":"_paths","type":"bytes[]","internalType":"bytes[]"},{"name":"_commonAddresses","type":"tuple","internalType":"struct StratFeeManagerInitializable.CommonAddresses","components":[{"name":"vault","type":"address","internalType":"address"},{"name":"unirouter","type":"address","internalType":"address"},{"name":"strategist","type":"address","internalType":"address"},{"name":"factory","type":"address","internalType":"address"}]}],"outputs":[],"stateMutability":"nonpayable"},{"type":"function","name":"isCalm","inputs":[],"outputs":[{"name":"","type":"bool","internalType":"bool"}],"stateMutability":"view"},{"type":"function","name":"keeper","inputs":[],"outputs":[{"name":"","type":"address","internalType":"address"}],"stateMutability":"view"},{"type":"function","name":"lastHarvest","inputs":[],"outputs":[{"name":"","type":"uint256","internalType":"uint256"}],"stateMutability":"view"},{"type":"function","name":"lockedProfit","inputs":[],"outputs":[{"name":"locked0","type":"uint256","internalType":"uint256"},{"name":"locked1","type":"uint256","internalType":"uint256"}],"stateMutability":"view"},{"type":"function","name":"lpToken0","inputs":[],"outputs":[{"name":"","type":"address","internalType":"address"}],"stateMutability":"view"},{"type":"function","name":"lpToken0ToNativePath","inputs":[],"outputs":[{"name":"","type":"bytes","internalType":"bytes"}],"stateMutability":"view"},{"type":"function","name":"lpToken0ToNativePrice","inputs":[],"outputs":[{"name":"","type":"uint256","internalType":"uint256"}],"stateMutability":"nonpayable"},{"type":"function","name":"lpToken1","inputs":[],"outputs":[{"name":"","type":"address","internalType":"address"}],"stateMutability":"view"},{"type":"function","name":"lpToken1ToNativePath","inputs":[],"outputs":[{"name":"","type":"bytes","internalType":"bytes"}],"stateMutability":"view"},{"type":"function","name":"lpToken1ToNativePrice","inputs":[],"outputs":[{"name":"","type":"uint256","internalType":"uint256"}],"stateMutability":"nonpayable"},{"type":"function","name":"maxTickDeviation","inputs":[],"outputs":[{"name":"","type":"int56","internalType":"int56"}],"stateMutability":"view"},{"type":"function","name":"moveTicks","inputs":[],"outputs":[],"stateMutability":"nonpayable"},{"type":"function","name":"native","inputs":[],"outputs":[{"name":"","type":"address","internalType":"address"}],"stateMutability":"view"},{"type":"function","name":"nftManager","inputs":[],"outputs":[{"name":"","type":"address","internalType":"address"}],"stateMutability":"view"},{"type":"function","name":"onERC721Received","inputs":[{"name":"","type":"address","internalType":"address"},{"name":"","type":"address","internalType":"address"},{"name":"","type":"uint256","internalType":"uint256"},{"name":"","type":"bytes","internalType":"bytes"}],"outputs":[{"name":"","type":"bytes4","internalType":"bytes4"}],"stateMutability":"pure"},{"type":"function","name":"output","inputs":[],"outputs":[{"name":"","type":"address","internalType":"address"}],"stateMutability":"view"},{"type":"function","name":"outputToNative","inputs":[],"outputs":[{"name":"","type":"address[]","internalType":"address[]"}],"stateMutability":"view"},{"type":"function","name":"outputToNativePath","inputs":[],"outputs":[{"name":"","type":"bytes","internalType":"bytes"}],"stateMutability":"view"},{"type":"function","name":"owner","inputs":[],"outputs":[{"name":"","type":"address","internalType":"address"}],"stateMutability":"view"},{"type":"function","name":"panic","inputs":[{"name":"_minAmount0","type":"uint256","internalType":"uint256"},{"name":"_minAmount1","type":"uint256","internalType":"uint256"}],"outputs":[],"stateMutability":"nonpayable"},{"type":"function","name":"paused","inputs":[],"outputs":[{"name":"","type":"bool","internalType":"bool"}],"stateMutability":"view"},{"type":"function","name":"pool","inputs":[],"outputs":[{"name":"","type":"address","internalType":"address"}],"stateMutability":"view"},{"type":"function","name":"positionAlt","inputs":[],"outputs":[{"name":"nftId","type":"uint256","internalType":"uint256"},{"name":"tickLower","type":"int24","internalType":"int24"},{"name":"tickUpper","type":"int24","internalType":"int24"}],"stateMutability":"view"},{"type":"function","name":"positionMain","inputs":[],"outputs":[{"name":"nftId","type":"uint256","internalType":"uint256"},{"name":"tickLower","type":"int24","internalType":"int24"},{"name":"tickUpper","type":"int24","internalType":"int24"}],"stateMutability":"view"},{"type":"function","name":"positionWidth","inputs":[],"outputs":[{"name":"","type":"int24","internalType":"int24"}],"stateMutability":"view"},{"type":"function","name":"price","inputs":[],"outputs":[{"name":"_price","type":"uint256","internalType":"uint256"}],"stateMutability":"view"},{"type":"function","name":"quoter","inputs":[],"outputs":[{"name":"","type":"address","internalType":"address"}],"stateMutability":"view"},{"type":"function","name":"range","inputs":[],"outputs":[{"name":"lowerPrice","type":"uint256","internalType":"uint256"},{"name":"upperPrice","type":"uint256","internalType":"uint256"}],"stateMutability":"view"},{"type":"function","name":"renounceOwnership","inputs":[],"outputs":[],"stateMutability":"nonpayable"},{"type":"function","name":"retireVault","inputs":[],"outputs":[],"stateMutability":"nonpayable"},{"type":"function","name":"rewardPool","inputs":[],"outputs":[{"name":"","type":"address","internalType":"address"}],"stateMutability":"view"},{"type":"function","name":"setDeviation","inputs":[{"name":"_maxDeviation","type":"int56","internalType":"int56"}],"outputs":[],"stateMutability":"nonpayable"},{"type":"function","name":"setOutputToNativePath","inputs":[{"name":"_path","type":"bytes","internalType":"bytes"}],"outputs":[],"stateMutability":"nonpayable"},{"type":"function","name":"setPositionWidth","inputs":[{"name":"_width","type":"int24","internalType":"int24"}],"outputs":[],"stateMutability":"nonpayable"},{"type":"function","name":"setRewardPool","inputs":[{"name":"_rewardPool","type":"address","internalType":"address"}],"outputs":[],"stateMutability":"nonpayable"},{"type":"function","name":"setStratFeeId","inputs":[{"name":"_feeId","type":"uint256","internalType":"uint256"}],"outputs":[],"stateMutability":"nonpayable"},{"type":"function","name":"setStrategist","inputs":[{"name":"_strategist","type":"address","internalType":"address"}],"outputs":[],"stateMutability":"nonpayable"},{"type":"function","name":"setTwapInterval","inputs":[{"name":"_interval","type":"uint32","internalType":"uint32"}],"outputs":[],"stateMutability":"nonpayable"},{"type":"function","name":"setUnirouter","inputs":[{"name":"_unirouter","type":"address","internalType":"address"}],"outputs":[],"stateMutability":"nonpayable"},{"type":"function","name":"sqrtPrice","inputs":[],"outputs":[{"name":"sqrtPriceX96","type":"uint160","internalType":"uint160"}],"stateMutability":"view"},{"type":"function","name":"strategist","inputs":[],"outputs":[{"name":"","type":"address","internalType":"address"}],"stateMutability":"view"},{"type":"function","name":"totalLocked0","inputs":[],"outputs":[{"name":"","type":"uint256","internalType":"uint256"}],"stateMutability":"view"},{"type":"function","name":"totalLocked1","inputs":[],"outputs":[{"name":"","type":"uint256","internalType":"uint256"}],"stateMutability":"view"},{"type":"function","name":"transferOwnership","inputs":[{"name":"newOwner","type":"address","internalType":"address"}],"outputs":[],"stateMutability":"nonpayable"},{"type":"function","name":"twap","inputs":[],"outputs":[{"name":"twapTick","type":"int56","internalType":"int56"}],"stateMutability":"view"},{"type":"function","name":"twapInterval","inputs":[],"outputs":[{"name":"","type":"uint32","internalType":"uint32"}],"stateMutability":"view"},{"type":"function","name":"unirouter","inputs":[],"outputs":[{"name":"","type":"address","internalType":"address"}],"stateMutability":"view"},{"type":"function","name":"unpause","inputs":[],"outputs":[],"stateMutability":"nonpayable"},{"type":"function","name":"vault","inputs":[],"outputs":[{"name":"","type":"address","internalType":"address"}],"stateMutability":"view"},{"type":"function","name":"withdraw","inputs":[{"name":"_amount0","type":"uint256","internalType":"uint256"},{"name":"_amount1","type":"uint256","internalType":"uint256"}],"outputs":[],"stateMutability":"nonpayable"},{"type":"function","name":"withdrawFee","inputs":[],"outputs":[{"name":"","type":"uint256","internalType":"uint256"}],"stateMutability":"view"},{"type":"event","name":"ChargedFees","inputs":[{"name":"callFeeAmount","type":"uint256","indexed":false,"internalType":"uint256"},{"name":"beefyFeeAmount","type":"uint256","indexed":false,"internalType":"uint256"},{"name":"strategistFeeAmount","type":"uint256","indexed":false,"internalType":"uint256"}],"anonymous":false},{"type":"event","name":"ClaimedFees","inputs":[{"name":"fees","type":"uint256","indexed":false,"internalType":"uint256"}],"anonymous":false},{"type":"event","name":"Harvest","inputs":[{"name":"fees","type":"uint256","indexed":false,"internalType":"uint256"}],"anonymous":false},{"type":"event","name":"Initialized","inputs":[{"name":"version","type":"uint8","indexed":false,"internalType":"uint8"}],"anonymous":false},{"type":"event","name":"OwnershipTransferred","inputs":[{"name":"previousOwner","type":"address","indexed":true,"internalType":"address"},{"name":"newOwner","type":"address","indexed":true,"internalType":"address"}],"anonymous":false},{"type":"event","name":"Paused","inputs":[{"name":"account","type":"address","indexed":false,"internalType":"address"}],"anonymous":false},{"type":"event","name":"SetDeviation","inputs":[{"name":"maxTickDeviation","type":"int56","indexed":false,"internalType":"int56"}],"anonymous":false},{"type":"event","name":"SetOutputToNativePath","inputs":[{"name":"path","type":"bytes","indexed":false,"internalType":"bytes"}],"anonymous":false},{"type":"event","name":"SetPositionWidth","inputs":[{"name":"oldWidth","type":"int24","indexed":false,"internalType":"int24"},{"name":"width","type":"int24","indexed":false,"internalType":"int24"}],"anonymous":false},{"type":"event","name":"SetRewardPool","inputs":[{"name":"rewardPool","type":"address","indexed":false,"internalType":"address"}],"anonymous":false},{"type":"event","name":"SetStratFeeId","inputs":[{"name":"feeId","type":"uint256","indexed":false,"internalType":"uint256"}],"anonymous":false},{"type":"event","name":"SetStrategist","inputs":[{"name":"strategist","type":"address","indexed":false,"internalType":"address"}],"anonymous":false},{"type":"event","name":"SetTwapInterval","inputs":[{"name":"oldInterval","type":"uint32","indexed":false,"internalType":"uint32"},{"name":"interval","type":"uint32","indexed":false,"internalType":"uint32"}],"anonymous":false},{"type":"event","name":"SetUnirouter","inputs":[{"name":"unirouter","type":"address","indexed":false,"internalType":"address"}],"anonymous":false},{"type":"event","name":"TVL","inputs":[{"name":"bal0","type":"uint256","indexed":false,"internalType":"uint256"},{"name":"bal1","type":"uint256","indexed":false,"internalType":"uint256"}],"anonymous":false},{"type":"event","name":"Unpaused","inputs":[{"name":"account","type":"address","indexed":false,"internalType":"address"}],"anonymous":false},{"type":"error","name":"AddressEmptyCode","inputs":[{"name":"target","type":"address","internalType":"address"}]},{"type":"error","name":"AddressInsufficientBalance","inputs":[{"name":"account","type":"address","internalType":"address"}]},{"type":"error","name":"FailedInnerCall","inputs":[]},{"type":"error","name":"InvalidEntry","inputs":[]},{"type":"error","name":"InvalidInput","inputs":[]},{"type":"error","name":"InvalidOutput","inputs":[]},{"type":"error","name":"NotAuthorized","inputs":[]},{"type":"error","name":"NotCalm","inputs":[]},{"type":"error","name":"NotManager","inputs":[]},{"type":"error","name":"NotPool","inputs":[]},{"type":"error","name":"NotStrategist","inputs":[]},{"type":"error","name":"NotVault","inputs":[]},{"type":"error","name":"OverLimit","inputs":[]},{"type":"error","name":"SafeERC20FailedOperation","inputs":[{"name":"token","type":"address","internalType":"address"}]},{"type":"error","name":"StrategyPaused","inputs":[]},{"type":"error","name":"TooMuchSlippage","inputs":[]}],"bytecode":{"object":"0x608060405234801561001057600080fd5b506160ee80620000216000396000f3fe608060405234801561001057600080fd5b50600436106103fb5760003560e01c80637bb98a6811610215578063b83d268311610125578063e48f98fd116100b8578063f1a392da11610087578063f1a392da14610838578063f20eaeb814610841578063f2fde38b14610854578063fbfa77cf14610867578063fcc25e131461087a57600080fd5b8063e48f98fd14610815578063e88b91ea1461081d578063e941fa7814610665578063e97206a91461083057600080fd5b8063c7b9d530116100f4578063c7b9d530146107df578063c7d54132146107f2578063d0e30db0146107fa578063d92f3d731461080257600080fd5b8063b83d268314610794578063bc415d8a1461079c578063c45a0155146107b9578063c6bbd5a7146107cc57600080fd5b806399cd2446116101a8578063a035b1fe11610177578063a035b1fe14610754578063a6f19c841461075c578063aced16611461076f578063b20feaaf14610777578063b3a60cb31461078c57600080fd5b806399cd2446146106ff5780639af1d35a1461073b5780639bdde46b146107445780639c6d49041461074c57600080fd5b80638cfc0250116101e45780638cfc0250146106d65780638da5cb5b146106de5780638e145459146106ef578063953d329f146106f757600080fd5b80637bb98a681461069b5780638097e249146106a3578063877562b6146106b0578063886e1d2d146106c357600080fd5b8063362c28c6116103105780634746fb55116102a357806366666aa91161027257806366666aa91461065257806367a5279314610665578063696c58e51461066c578063715018a61461068057806378238c371461068857600080fd5b80634746fb551461060d5780635c975abb146106155780635ee167c01461062c578063609913461461063f57600080fd5b80633f4ba83a116102df5780633f4ba83a146105e2578063441a3e70146105ea57806344b81396146105fd5780634641257d1461060557600080fd5b8063362c28c61461057d5780633c1d5df0146105905780633c334dd5146105bc5780633e55f932146105cf57600080fd5b8063150b7a02116103935780631d27050f116103625780631d27050f146105265780631dcfeddd146105395780631fe4a6861461054e578063257ae0de146105615780632b950b661461057457600080fd5b8063150b7a02146104d757806316b9cd9c1461050357806316f0115b1461050b57806317dd7a721461051e57600080fd5b806311b0b42d116103cf57806311b0b42d146104695780631208aa181461049457806312cf1381146104af57806313e120b1146104c257600080fd5b8062a4b5c91461040057806304c404b314610422578063065e5360146104395780630e5c011e14610454575b600080fd5b6104086108af565b604080519283526020830191909152015b60405180910390f35b61042b609d5481565b604051908152602001610419565b610441610994565b60405160029190910b8152602001610419565b610467610462366004614e90565b610a0d565b005b60975461047c906001600160a01b031681565b6040516001600160a01b039091168152602001610419565b61049c610a19565b60405160069190910b8152602001610419565b6104676104bd366004614ebc565b610b88565b6104ca610c05565b6040516104199190614f1e565b6104ea6104e5366004614f7a565b610cc8565b6040516001600160e01b03199091168152602001610419565b61042b610cda565b60d05461047c906001600160a01b031681565b610467610e07565b610467610534366004614fed565b610e21565b610541610ec2565b6040516104199190615063565b609a5461047c906001600160a01b031681565b60995461047c906001600160a01b031681565b61042b609c5481565b61046761058b366004615085565b610f50565b60e0546105a790600160501b900463ffffffff1681565b60405163ffffffff9091168152602001610419565b6104676105ca3660046150ba565b610ff3565b6104676105dd3660046151c5565b6113a7565b61046761149c565b6104676105f83660046151de565b611549565b6104086115fb565b610467611670565b61047c611679565b60655460ff165b6040519015158152602001610419565b60d55461047c906001600160a01b031681565b61046761064d3660046151de565b6116e7565b60d75461047c906001600160a01b031681565b600061042b565b60e05461049c906301000000900460060b81565b610467611799565b610467610696366004614e90565b6117ab565b610408611801565b60e0546104419060020b81565b60d65461047c906001600160a01b031681565b6104676106d1366004615200565b611851565b61042b61199d565b6033546001600160a01b031661047c565b61047c611a11565b610541611a5b565b60de5460df5461071c9190600281810b9163010000009004900b83565b60408051938452600292830b6020850152910b90820152606001610419565b61042b60d85481565b61061c611a68565b61042b611b10565b61042b611bf4565b60d35461047c906001600160a01b031681565b61047c611c2d565b61077f611c77565b6040516104199190615242565b610467611ca7565b61047c611e71565b60dc5460dd5461071c9190600281810b9163010000009004900b83565b609b5461047c906001600160a01b031681565b60d15461047c906001600160a01b031681565b6104676107ed366004614e90565b611eea565b610467611f63565b610467612063565b610467610810366004614e90565b6120a7565b610541612113565b60d25461047c906001600160a01b031681565b610408612120565b61042b609e5481565b60d45461047c906001600160a01b031681565b610467610862366004614e90565b61218f565b60985461047c906001600160a01b031681565b610882612205565b604080519687526020870195909552938501929092526060840152608083015260a082015260c001610419565b60d5546040516370a0823160e01b815230600482015260009182916001600160a01b03909116906370a0823190602401602060405180830381865afa1580156108fc573d6000803e3d6000fd5b505050506040513d601f19601f8201168201806040525081019061092091906152bf565b60d6546040516370a0823160e01b81523060048201526001600160a01b03909116906370a0823190602401602060405180830381865afa158015610968573d6000803e3d6000fd5b505050506040513d601f19601f8201168201806040525081019061098c91906152bf565b915091509091565b60d05460408051633850c7bd60e01b815290516000926001600160a01b031691633850c7bd9160048083019260c09291908290030181865afa1580156109de573d6000803e3d6000fd5b505050506040513d601f19601f82011682018060405250810190610a029190615305565b509295945050505050565b610a1681612473565b50565b6040805160028082526060820183526000928392919060208301908036833701905050905060e0600a9054906101000a900463ffffffff1681600081518110610a6457610a64615394565b602002602001019063ffffffff16908163ffffffff1681525050600081600181518110610a9357610a93615394565b63ffffffff9092166020928302919091019091015260d05460405163883bdbfd60e01b81526000916001600160a01b03169063883bdbfd90610ad99085906004016153aa565b600060405180830381865afa158015610af6573d6000803e3d6000fd5b505050506040513d6000823e601f3d908101601f19168201604052610b1e91908101906154ea565b50905060e0600a9054906101000a900463ffffffff1660030b81600081518110610b4a57610b4a615394565b602002602001015182600181518110610b6557610b65615394565b6020026020010151610b7791906155c5565b610b819190615608565b9250505090565b610b90612535565b60e05460408051600292830b81529183900b60208301527f69d927977053f4ff4a26e8d792564e367e844a869cda4df12630bf7b62a632de910160405180910390a1610bda61258f565b610be261279d565b60e0805462ffffff191662ffffff8316179055610bfd612d78565b610a16612dca565b606060d98054610c1490615646565b9050600003610c30575060408051600081526020810190915290565b610cc360d98054610c4090615646565b80601f0160208091040260200160405190810160405280929190818152602001828054610c6c90615646565b8015610cb95780601f10610c8e57610100808354040283529160200191610cb9565b820191906000526020600020905b815481529060010190602001808311610c9c57829003601f168201915b5050505050612ff9565b905090565b630a85bd0160e11b5b95945050505050565b600080600a60d660009054906101000a90046001600160a01b03166001600160a01b031663313ce5676040518163ffffffff1660e01b8152600401602060405180830381865afa158015610d32573d6000803e3d6000fd5b505050506040513d601f19601f82011682018060405250810190610d56919061567a565b610d6190600a615781565b610d6b9190615790565b60975460d6549192506001600160a01b03908116911603610d8b57919050565b60d15460405163cdca175360e01b81526001600160a01b039091169063cdca175390610dbe9060db9085906004016157a4565b6020604051808303816000875af1158015610ddd573d6000803e3d6000fd5b505050506040513d601f19601f82011682018060405250810190610e0191906152bf565b91505090565b610e0f6130fa565b610e1761258f565b610e1f61279d565b565b610e29612535565b60e0546040805163ffffffff600160501b9093048316815291831660208301527f86139943149914833c057d2c24f3a3967cce8e6aba2eb12e422500d8a51ffc7b910160405180910390a1603c8163ffffffff161015610e9c5760405163b4fa3fb360e01b815260040160405180910390fd5b60e0805463ffffffff909216600160501b0263ffffffff60501b19909216919091179055565b60da8054610ecf90615646565b80601f0160208091040260200160405190810160405280929190818152602001828054610efb90615646565b8015610f485780601f10610f1d57610100808354040283529160200191610f48565b820191906000526020600020905b815481529060010190602001808311610f2b57829003601f168201915b505050505081565b610f58612535565b604051600682900b81527f69d3f73bfb3c2f0de63dc1de2ed486cf45d88ebfff8cb1e8f124b085d2bafb979060200160405180910390a1610f97613125565b610fa290600461583b565b60020b8160060b12610fc75760405163b4fa3fb360e01b815260040160405180910390fd5b60e0805466ffffffffffffff90921663010000000269ffffffffffffff00000019909216919091179055565b600054610100900460ff16158080156110135750600054600160ff909116105b8061102d5750303b15801561102d575060005460ff166001145b6110955760405162461bcd60e51b815260206004820152602e60248201527f496e697469616c697a61626c653a20636f6e747261637420697320616c72656160448201526d191e481a5b9a5d1a585b1a5e995960921b60648201526084015b60405180910390fd5b6000805460ff1916600117905580156110b8576000805461ff0019166101001790555b6110c182613193565b60d080546001600160a01b03199081166001600160a01b038e81169190911790925560d1805482168d841617905560d48054821689841617905560d2805482168c841617905560d3805482168b841617905560d780549091168983161790556040805180820190915260138152723a37b5b2b7181039b437bab63210313290181d60691b602082015260d5546111579216613308565b8a6001600160a01b0316630dfe16816040518163ffffffff1660e01b8152600401602060405180830381865afa158015611195573d6000803e3d6000fd5b505050506040513d601f19601f820116820180604052508101906111b9919061586d565b60d580546001600160a01b0319166001600160a01b0392909216918217905560408051808201909152600f81526e3a37b5b2b7181030b2323932b9b99d60891b602082015261120791613308565b8a6001600160a01b031663d21220a76040518163ffffffff1660e01b8152600401602060405180830381865afa158015611245573d6000803e3d6000fd5b505050506040513d601f19601f82011682018060405250810190611269919061586d565b60d680546001600160a01b0319166001600160a01b039290921691909117905560e0805462ffffff191662ffffff871617905583836000816112ad576112ad615394565b90506020028101906112bf919061588a565b60d9916112cd919083615919565b50838360018181106112e1576112e1615394565b90506020028101906112f3919061588a565b60da91611301919083615919565b508383600281811061131557611315615394565b9050602002810190611327919061588a565b60db91611335919083615919565b5060e0805463ffffffff60501b1916600f60531b17905561135461334d565b801561139a576000805461ff0019169055604051600181527f7f26b83ff96e1f2b6a682f133852f6798a09c465da95921460cefb38474024989060200160405180910390a15b5050505050505050505050565b6033546001600160a01b031633148015906113db57506113c5611c2d565b6001600160a01b0316336001600160a01b031614155b156113f95760405163607e454560e11b815260040160405180910390fd5b611401611679565b6001600160a01b0316633e55f932826040518263ffffffff1660e01b815260040161142e91815260200190565b600060405180830381600087803b15801561144857600080fd5b505af115801561145c573d6000803e3d6000fd5b505050507f9163810ee1e29168d4ce900e48a333fb8fbd3fd070d2bef67f6d4db0846a469f8160405161149191815260200190565b60405180910390a150565b6033546001600160a01b031633148015906114d057506114ba611c2d565b6001600160a01b0316336001600160a01b031614155b156114ee5760405163607e454560e11b815260040160405180910390fd5b60006115026033546001600160a01b031690565b6001600160a01b0316036115295760405163ea8e4eb560e01b815260040160405180910390fd5b61153161334d565b6115396133c9565b611541612d78565b610e1f612dca565b6115516130fa565b81156115745760985460d554611574916001600160a01b0391821691168461341b565b80156115975760985460d654611597916001600160a01b0391821691168361341b565b61159f61347a565b6115ab576115ab612dca565b6000806115b6611801565b60408051838152602081018390529294509092507f631c4f79c14099a717f4be2f25e6cef89e310b3944ef0e44ea2c0811ebb982a8910160405180910390a150505050565b6000806000609e544261160e91906159da565b90506000610e10821061162257600061162e565b61162e82610e106159da565b9050610e1081609c5461164191906159ed565b61164b9190615790565b610e1082609d5461165c91906159ed565b6116669190615790565b9350935050509091565b610e1f32612473565b609b5460408051634746fb5560e01b815290516000926001600160a01b031691634746fb559160048083019260209291908290030181865afa1580156116c3573d6000803e3d6000fd5b505050506040513d601f19601f82011682018060405250810190610cc3919061586d565b6033546001600160a01b0316331480159061171b5750611705611c2d565b6001600160a01b0316336001600160a01b031614155b156117395760405163607e454560e11b815260040160405180910390fd5b61174161258f565b61174961279d565b611751613505565b61175961357d565b600080611764611801565b915091508382108061177557508281105b156117935760405163fa6ad35560e01b815260040160405180910390fd5b50505050565b6117a1612535565b610e1f60006135ba565b6117b3612535565b60d780546001600160a01b0319166001600160a01b0383169081179091556040519081527f173d73afad648e625c4a53878536f7a2debed1f51a04f21d728bce3cf534fcc190602001611491565b60008060008061180f6108af565b9150915060008061181e612205565b5050505091509150600082856118349190615a04565b905060006118428386615a04565b91989197509095505050505050565b611859612535565b80156119995760006118a083838080601f016020809104026020016040519081016040528093929190818152602001838380828437600092019190915250612ff992505050565b60d45481519192506001600160a01b03169082906000906118c3576118c3615394565b60200260200101516001600160a01b0316146118f25760405163b4fa3fb360e01b815260040160405180910390fd5b60975481516001600160a01b03909116908290611911906001906159da565b8151811061192157611921615394565b60200260200101516001600160a01b031614611950576040516398f7360960e01b815260040160405180910390fd5b60d961195d838583615919565b507f5ab654658bde8ff232c40ba1a6581a6734d4f67a376f4c3af5fafae59e3bdf4f838360405161198f929190615a17565b60405180910390a1505b5050565b60006119a7611679565b604051636788231160e11b81523060048201526001600160a01b03919091169063cf10462290602401602060405180830381865afa1580156119ed573d6000803e3d6000fd5b505050506040513d601f19601f82011682018060405250810190610cc391906152bf565b609b5460408051638e14545960e01b815290516000926001600160a01b031691638e1454599160048083019260209291908290030181865afa1580156116c3573d6000803e3d6000fd5b60db8054610ecf90615646565b600080611a73610994565b90506000611a7f610a19565b60e054909150600090611aad90611aa0906301000000900460060b846155c5565b60060b620d89e71961360c565b60e054909150600090611ada90611ace906301000000900460060b85615a46565b60060b620d89e8613626565b90508360020b8260060b1380611af557508360020b8160060b125b15611b0557600094505050505090565b600194505050505090565b600080600a60d560009054906101000a90046001600160a01b03166001600160a01b031663313ce5676040518163ffffffff1660e01b8152600401602060405180830381865afa158015611b68573d6000803e3d6000fd5b505050506040513d601f19601f82011682018060405250810190611b8c919061567a565b611b9790600a615781565b611ba19190615790565b60975460d5549192506001600160a01b03908116911603611bc157919050565b60d15460405163cdca175360e01b81526001600160a01b039091169063cdca175390610dbe9060da9085906004016157a4565b600080611bff611e71565b90506002611c23826001600160a01b0316670de0b6b3a7640000600160601b613635565b610e019190615781565b609b546040805163aced166160e01b815290516000926001600160a01b03169163aced16619160048083019260209291908290030181865afa1580156116c3573d6000803e3d6000fd5b611c7f614e18565b6040518060600160405280611c926136e9565b81526020016000815260200160009052919050565b611caf612535565b609860009054906101000a90046001600160a01b03166001600160a01b03166318160ddd6040518163ffffffff1660e01b8152600401602060405180830381865afa158015611d02573d6000803e3d6000fd5b505050506040513d601f19601f82011682018060405250810190611d2691906152bf565b6103e814611d475760405163ea8e4eb560e01b815260040160405180910390fd5b611d526000806116e7565b6000611d5c611a11565b60d5546040516370a0823160e01b8152306004820152919250611de29183916001600160a01b0316906370a0823190602401602060405180830381865afa158015611dab573d6000803e3d6000fd5b505050506040513d601f19601f82011682018060405250810190611dcf91906152bf565b60d5546001600160a01b0316919061341b565b60d6546040516370a0823160e01b8152306004820152611e679183916001600160a01b03909116906370a0823190602401602060405180830381865afa158015611e30573d6000803e3d6000fd5b505050506040513d601f19601f82011682018060405250810190611e5491906152bf565b60d6546001600160a01b0316919061341b565b610a1660006135ba565b60d05460408051633850c7bd60e01b815290516000926001600160a01b031691633850c7bd9160048083019260c09291908290030181865afa158015611ebb573d6000803e3d6000fd5b505050506040513d601f19601f82011682018060405250810190611edf9190615305565b509395945050505050565b609a546001600160a01b03163314611f1557604051633163ba6d60e11b815260040160405180910390fd5b609a80546001600160a01b0319166001600160a01b0383169081179091556040519081527f46d58e3fa07bf19b1d27240f0e286b27e9f7c1b0d88933333fe833b60eec541290602001611491565b611f6b61379a565b609b546040516305226abd60e51b81523360048201526001600160a01b039091169063a44d57a090602401602060405180830381865afa158015611fb3573d6000803e3d6000fd5b505050506040513d601f19601f82011682018060405250810190611fd79190615a73565b611ff45760405163ea8e4eb560e01b815260040160405180910390fd5b611ffc61258f565b61200461279d565b61200c612d78565b612014612dca565b60008061201f611801565b60408051838152602081018390529294509092507f631c4f79c14099a717f4be2f25e6cef89e310b3944ef0e44ea2c0811ebb982a891015b60405180910390a15050565b61206b61379a565b6120736130fa565b60e054600160701b900460ff1661200c5761208c612d78565b60e0805460ff60701b1916600160701b179055612014612dca565b6120af612535565b6120b7613505565b609980546001600160a01b0319166001600160a01b0383161790556120da61334d565b6040516001600160a01b03821681527f5ca6e64c4522e68e154aa9372f2c5969cd37d9640e59f66953dc472f54ee86fa90602001611491565b60d98054610ecf90615646565b60dd5460009081906002906121569061213a90830b6137bf565b6001600160a01b0316670de0b6b3a7640000600160601b613635565b6121609190615781565b60dd5490925060029061217f9061213a9063010000009004830b6137bf565b6121899190615781565b90509091565b612197612535565b6001600160a01b0381166121fc5760405162461bcd60e51b815260206004820152602660248201527f4f776e61626c653a206e6577206f776e657220697320746865207a65726f206160448201526564647265737360d01b606482015260840161108c565b610a16816135ba565b6000806000806000806000612218611e71565b905060008060008060008060dc600001546000146123125760d25460dc5460405163133f757160e31b81526001600160a01b03909216916399fbab88916122659160040190815260200190565b61018060405180830381865afa158015612283573d6000803e3d6000fd5b505050506040513d601f19601f820116820180604052508101906122a79190615aa5565b909192939495969798999a5090919293949596979899509091929394959697985090919293949596975090919293949596509091929394955090919293945090919250909150816001600160801b03169150806001600160801b031690508095508196508298505050505b60de54156123b05760d25460de5460405163133f757160e31b81526001600160a01b03909216916399fbab889161234f9160040190815260200190565b61018060405180830381865afa15801561236d573d6000803e3d6000fd5b505050506040513d601f19601f820116820180604052508101906123919190615aa5565b939f506001600160801b039081169c5090921699505050505050505050505b60dd546123e19088906123c59060020b6137bf565b60dd546123db906301000000900460020b6137bf565b89613af5565b60df54919c509a506124179088906123fb9060020b6137bf565b60df54612411906301000000900460020b6137bf565b88613af5565b9099509750612426848c615a04565b9a50612432838b615a04565b995061243e828a615a04565b985061244a8189615a04565b9750612456898c615a04565b9c50612462888b615a04565b9b5050505050505050909192939495565b61247b61258f565b60006124898260d854613b91565b600060d85560d75460d4546040516328f362b160e21b81526001600160a01b03918216600482015260248101849052620151806044820152929350169063a3cd8ac490606401600060405180830381600087803b1580156124e957600080fd5b505af11580156124fd573d6000803e3d6000fd5b505042609e5550506040518181527f80f97f878e16410266694f134ddf012f2be424f54f8b5cafa107eccc51d00d5890602001612057565b6033546001600160a01b03163314610e1f5760405162461bcd60e51b815260206004820181905260248201527f4f776e61626c653a2063616c6c6572206973206e6f7420746865206f776e6572604482015260640161108c565b60d4546040516370a0823160e01b81523060048201526000916001600160a01b0316906370a0823190602401602060405180830381865afa1580156125d8573d6000803e3d6000fd5b505050506040513d601f19601f820116820180604052508101906125fc91906152bf565b60dc549091501561266f5760d35460dc54604051631c4b774b60e01b81526001600160a01b0390921691631c4b774b9161263c9160040190815260200190565b600060405180830381600087803b15801561265657600080fd5b505af115801561266a573d6000803e3d6000fd5b505050505b60de54156126df5760d35460de54604051631c4b774b60e01b81526001600160a01b0390921691631c4b774b916126ac9160040190815260200190565b600060405180830381600087803b1580156126c657600080fd5b505af11580156126da573d6000803e3d6000fd5b505050505b60d4546040516370a0823160e01b815230600482015260009183916001600160a01b03909116906370a0823190602401602060405180830381865afa15801561272c573d6000803e3d6000fd5b505050506040513d601f19601f8201168201806040525081019061275091906152bf565b61275a91906159da565b90508060d85461276a9190615a04565b60d8556040518181527f1eae7da9527d10df3df1fd29ae9bb3dc5028f6e7606970c9feefadfe7f97467390602001612057565b60dc546000908190156128985760d25460dc5460405163133f757160e31b81526001600160a01b03909216916399fbab88916127df9160040190815260200190565b61018060405180830381865afa1580156127fd573d6000803e3d6000fd5b505050506040513d601f19601f820116820180604052508101906128219190615aa5565b505060d35460dc54604051632e1a7d4d60e01b8152949d506001600160a01b039091169a50632e1a7d4d9950612865985096505060049091019350614e7292505050565b600060405180830381600087803b15801561287f57600080fd5b505af1158015612893573d6000803e3d6000fd5b505050505b60de541561298e5760d25460de5460405163133f757160e31b81526001600160a01b03909216916399fbab88916128d59160040190815260200190565b61018060405180830381865afa1580156128f3573d6000803e3d6000fd5b505050506040513d601f19601f820116820180604052508101906129179190615aa5565b505060d35460de54604051632e1a7d4d60e01b8152949c506001600160a01b039091169a50632e1a7d4d995061295b985096505060049091019350614e7292505050565b600060405180830381600087803b15801561297557600080fd5b505af1158015612989573d6000803e3d6000fd5b505050505b6129c96040518060a001604052806000815260200160006001600160801b031681526020016000815260200160008152602001600081525090565b6040805160808101825260008082526020820181905291810182905260608101919091526001600160801b03841615612bb05750506040805160a08101825260dc548082526001600160801b0385811660208085019190915260008486018190526060808601919091524260808087019190915286519081018752938452309184019190915282850182905282015260d2549251630624e65f60e11b8152919290916001600160a01b0390911690630c49ccbe90612a8b908590600401615b86565b60408051808303816000875af1158015612aa9573d6000803e3d6000fd5b505050506040513d601f19601f82011682018060405250810190612acd9190615bc9565b505060d25460405163fc6f786560e01b81526001600160a01b039091169063fc6f786590612aff908490600401615bed565b60408051808303816000875af1158015612b1d573d6000803e3d6000fd5b505050506040513d601f19601f82011682018060405250810190612b419190615bc9565b505060d25460dc54604051630852cd8d60e31b81526001600160a01b03909216916342966c6891612b789160040190815260200190565b600060405180830381600087803b158015612b9257600080fd5b505af1158015612ba6573d6000803e3d6000fd5b5050600060dc5550505b6001600160801b038316156117935750506040805160a08101825260de548082526001600160801b0384811660208085019190915260008486018190526060808601919091524260808087019190915286519081018752938452309184019190915282850182905282015260d2549251630624e65f60e11b8152919290916001600160a01b0390911690630c49ccbe90612c4e908590600401615b86565b60408051808303816000875af1158015612c6c573d6000803e3d6000fd5b505050506040513d601f19601f82011682018060405250810190612c909190615bc9565b505060d25460405163fc6f786560e01b81526001600160a01b039091169063fc6f786590612cc2908490600401615bed565b60408051808303816000875af1158015612ce0573d6000803e3d6000fd5b505050506040513d601f19601f82011682018060405250810190612d049190615bc9565b505060d25460de54604051630852cd8d60e31b81526001600160a01b03909216916342966c6891612d3b9160040190815260200190565b600060405180830381600087803b158015612d5557600080fd5b505af1158015612d69573d6000803e3d6000fd5b5050600060de55505050505050565b612d8061379a565b6000612d8a610994565b90506000612d96613125565b60e054909150600090612dad90839060020b61583b565b9050612dba838383613ec1565b612dc5838383613efc565b505050565b612dd2614005565b600080612ddd6108af565b60dd5460df54929450909250600281810b92630100000092839004820b9281830b929104900b6000612e0d611e71565b90506000612e2e82612e1e886137bf565b612e27886137bf565b8b8b6140a6565b9050600080612e4f84612e408a6137bf565b612e498a6137bf565b86613af5565b915091506000612e60848a8a614168565b90506000846001600160801b0316118015612e785750805b15612e8b57612e8b8989858560016141b6565b612e936108af565b909b509950612eb585612ea5896137bf565b612eae896137bf565b8e8e6140a6565b9350612ed385612ec4896137bf565b612ecd896137bf565b87613af5565b90935091506001600160801b03841615801590612efa57506000831180612efa5750600082115b15612f0d57612f0d8787858560006141b6565b60dc5415612f7d5760d35460dc5460405163b6b55f2560e01b81526001600160a01b039092169163b6b55f2591612f4a9160040190815260200190565b600060405180830381600087803b158015612f6457600080fd5b505af1158015612f78573d6000803e3d6000fd5b505050505b60de541561139a5760d35460de5460405163b6b55f2560e01b81526001600160a01b039092169163b6b55f2591612fba9160040190815260200190565b600060405180830381600087803b158015612fd457600080fd5b505af1158015612fe8573d6000803e3d6000fd5b505050505050505050505050505050565b6060600061300683614346565b90506000613015826001615a04565b67ffffffffffffffff81111561302d5761302d61537e565b604051908082528060200260200182016040528015613056578160200160208202803683370190505b50905060005b828110156130f2576000806130708761436c565b50915091508184848151811061308857613088615394565b6001600160a01b039092166020928302919091019091015280846130ad856001615a04565b815181106130bd576130bd615394565b60200260200101906001600160a01b031690816001600160a01b0316815250506130e6876143a8565b9650505060010161305c565b509392505050565b6098546001600160a01b03163314610e1f576040516362df054560e01b815260040160405180910390fd5b60d054604080516334324e9f60e21b815290516000926001600160a01b03169163d0c93a7c9160048083019260209291908290030181865afa15801561316f573d6000803e3d6000fd5b505050506040513d601f19601f82011682018060405250810190610cc39190615c30565b600054610100900460ff166131ba5760405162461bcd60e51b815260040161108c90615c4d565b6131c26143d9565b6131ca614408565b6131d76020820182614e90565b609880546001600160a01b0319166001600160a01b03929092169190911790556132076040820160208301614e90565b609980546001600160a01b0319166001600160a01b03929092169190911790556132376060820160408301614e90565b609a80546001600160a01b0319166001600160a01b03929092169190911790556132676080820160608301614e90565b609b80546001600160a01b0319166001600160a01b03929092169182179055604080516311b0b42d60e01b815290516311b0b42d916004808201926020929091908290030181865afa1580156132c1573d6000803e3d6000fd5b505050506040513d601f19601f820116820180604052508101906132e5919061586d565b609780546001600160a01b0319166001600160a01b039290921691909117905550565b611999828260405160240161331e929190615c98565b60408051601f198184030181529190526020810180516001600160e01b031663319af33360e01b179052614437565b60995460d45461336c916001600160a01b039182169116600019614458565b60d75460d45461338b916001600160a01b039182169116600019614458565b60d25460d5546133aa916001600160a01b039182169116600019614458565b60d25460d654610e1f916001600160a01b039182169116600019614458565b6133d16144e8565b6065805460ff191690557f5db9ee0a495bf2e6ff9c91a7834c1ba4fdd244a5e8aa4e537bd38aeae4b073aa335b6040516001600160a01b03909116815260200160405180910390a1565b6040516001600160a01b03838116602483015260448201839052612dc591859182169063a9059cbb906064015b604051602081830303815290604052915060e01b6020820180516001600160e01b038381831617835250505050614531565b600061348860655460ff1690565b80610cc35750609b60009054906101000a90046001600160a01b03166001600160a01b031663f12d54d86040518163ffffffff1660e01b8152600401602060405180830381865afa1580156134e1573d6000803e3d6000fd5b505050506040513d601f19601f82011682018060405250810190610cc39190615a73565b60995460d454613523916001600160a01b0391821691166000614458565b60d75460d454613541916001600160a01b0391821691166000614458565b60d25460d55461355f916001600160a01b0391821691166000614458565b60d25460d654610e1f916001600160a01b0391821691166000614458565b613585614594565b6065805460ff191660011790557f62e78cea01bee320cd4e420270b5ea74000d11b0c9f74754ebdbfc544b05a2586133fe3390565b603380546001600160a01b038381166001600160a01b0319831681179093556040519116919082907f8be0079c531659141344cd1fd0a4f28419497f9722a3daafe3b4186f6b6457e090600090a35050565b600081831361361b578161361d565b825b90505b92915050565b600081831261361b578161361d565b600080806000198587098587029250828110838203039150508060000361366e576000841161366357600080fd5b5082900490506136e2565b80841161367a57600080fd5b600084868809851960019081018716968790049682860381900495909211909303600082900391909104909201919091029190911760038402600290811880860282030280860282030280860282030280860282030280860282030280860290910302029150505b9392505050565b6137246040518060c0016040528060008152602001600081526020016000815260200160008152602001606081526020016000151581525090565b61372c611679565b604051639af608c960e01b81523060048201526001600160a01b039190911690639af608c990602401600060405180830381865afa158015613772573d6000803e3d6000fd5b505050506040513d6000823e601f3d908101601f19168201604052610cc39190810190615cc2565b6137a2611a68565b610e1f576040516313643c3b60e11b815260040160405180910390fd5b60008060008360020b126137d6578260020b6137de565b8260020b6000035b9050620d89e88111156138175760405162461bcd60e51b81526020600482015260016024820152601560fa1b604482015260640161108c565b60008160011660000361382e57600160801b613840565b6ffffcb933bd6fad37aa2d162d1a5940015b70ffffffffffffffffffffffffffffffffff1690506002821615613874576ffff97272373d413259a46990580e213a0260801c5b6004821615613893576ffff2e50f5f656932ef12357cf3c7fdcc0260801c5b60088216156138b2576fffe5caca7e10e4e61c3624eaa0941cd00260801c5b60108216156138d1576fffcb9843d60f6159c9db58835c9266440260801c5b60208216156138f0576fff973b41fa98c081472e6896dfb254c00260801c5b604082161561390f576fff2ea16466c96a3843ec78b326b528610260801c5b608082161561392e576ffe5dee046a99a2a811c461f1969c30530260801c5b61010082161561394e576ffcbe86c7900a88aedcffc83b479aa3a40260801c5b61020082161561396e576ff987a7253ac413176f2b074cf7815e540260801c5b61040082161561398e576ff3392b0822b70005940c7a398e4b70f30260801c5b6108008216156139ae576fe7159475a2c29b7443b29c7fa6e889d90260801c5b6110008216156139ce576fd097f3bdfd2022b8845ad8f792aa58250260801c5b6120008216156139ee576fa9f746462d870fdf8a65dc1f90e061e50260801c5b614000821615613a0e576f70d869a156d2a1b890bb3df62baf32f70260801c5b618000821615613a2e576f31be135f97d08fd981231505542fcfa60260801c5b62010000821615613a4f576f09aa508b5b7a84e1c677de54f3e99bc90260801c5b62020000821615613a6f576e5d6af8dedb81196699c329225ee6040260801c5b62040000821615613a8e576d2216e584f5fa1ea926041bedfe980260801c5b62080000821615613aab576b048a170391f7dc42444e8fa20260801c5b60008460020b1315613acc578060001981613ac857613ac86155f2565b0490505b640100000000810615613ae0576001613ae3565b60005b60ff16602082901c0192505050919050565b600080836001600160a01b0316856001600160a01b03161115613b16579293925b846001600160a01b0316866001600160a01b031611613b4157613b3a8585856145da565b9150613b88565b836001600160a01b0316866001600160a01b03161015613b7a57613b668685856145da565b9150613b73858785614655565b9050613b88565b613b85858585614655565b90505b94509492505050565b600080613b9c6136e9565b905060008315613dba578151600090670de0b6b3a764000090613bbf90876159ed565b613bc99190615790565b9050613bd581866159da565b6097546040516370a0823160e01b815230600482015291955060009182916001600160a01b0316906370a0823190602401602060405180830381865afa158015613c23573d6000803e3d6000fd5b505050506040513d601f19601f82011682018060405250810190613c4791906152bf565b60975460d4549192506001600160a01b03918216911614613d805760995460d98054613d07926001600160a01b03169190613c8190615646565b80601f0160208091040260200160405190810160405280929190818152602001828054613cad90615646565b8015613cfa5780601f10613ccf57610100808354040283529160200191613cfa565b820191906000526020600020905b815481529060010190602001808311613cdd57829003601f168201915b505050505085600161469f565b6097546040516370a0823160e01b815230600482015282916001600160a01b0316906370a0823190602401602060405180830381865afa158015613d4f573d6000803e3d6000fd5b505050506040513d601f19601f82011682018060405250810190613d7391906152bf565b613d7d91906159da565b91505b60975460d4546001600160a01b03918216911603613da957613da28385615a04565b9350613db6565b613db38285615a04565b93505b5050505b6000670de0b6b3a7640000836040015183613dd591906159ed565b613ddf9190615790565b609754909150613df9906001600160a01b0316878361341b565b6000670de0b6b3a7640000846060015184613e1491906159ed565b613e1e9190615790565b609a54609754919250613e3e916001600160a01b0390811691168361341b565b600081613e4b84866159da565b613e5591906159da565b9050613e75613e62611a11565b6097546001600160a01b0316908361341b565b60408051848152602081018390529081018390527fd255b592c7f268a73e534da5219a60ff911b4cf6daae21c7d20527dd657bd99a9060600160405180910390a1505050505092915050565b613ecc83828461489d565b60dd805465ffffffffffff1916630100000062ffffff9384160262ffffff19161792909116919091179055505050565b600080613f076108af565b909250905060008215613f43576ec097ce7bc90715b34b9f1000000000613f2c611bf4565b613f3690856159ed565b613f409190615790565b90505b81811015613fa257613f5686858761489d565b5060df805462ffffff191662ffffff92909216919091179055613f7a86868061489d565b5060df805462ffffff90921663010000000265ffffff00000019909216919091179055613ffd565b80821015613ffd57613fb586868761489d565b60df805462ffffff191662ffffff9290921691909117905550613fd986858761489d565b60df805462ffffff90921663010000000265ffffff00000019909216919091179055505b505050505050565b60655460ff16806140885750609b60009054906101000a90046001600160a01b03166001600160a01b031663f12d54d86040518163ffffffff1660e01b8152600401602060405180830381865afa158015614064573d6000803e3d6000fd5b505050506040513d601f19601f820116820180604052508101906140889190615a73565b15610e1f5760405163e628b94960e01b815260040160405180910390fd5b6000836001600160a01b0316856001600160a01b031611156140c6579293925b846001600160a01b0316866001600160a01b0316116140f1576140ea8585856148cf565b9050610cd1565b836001600160a01b0316866001600160a01b031610156141535760006141188786866148cf565b90506000614127878986614939565b9050806001600160801b0316826001600160801b031610614148578061414a565b815b92505050610cd1565b61415e858584614939565b9695505050505050565b600080600061418a614178611e71565b614181876137bf565b6123db876137bf565b91509150816000148061419b575080155b156141ab576000925050506136e2565b6001925050506136e2565b604080516101808101825260d5546001600160a01b03908116825260d65416602082015260009181016141e7613125565b60020b81526020018760020b81526020018660020b81526020018581526020018481526020016000815260200160008152602001306001600160a01b0316815260200142815260200160006001600160a01b03168152509050600060d260009054906101000a90046001600160a01b03166001600160a01b031663b5007d1f836040518263ffffffff1660e01b81526004016142839190615db8565b6080604051808303816000875af11580156142a2573d6000803e3d6000fd5b505050506040513d601f19601f820116820180604052508101906142c69190615e91565b505050905082156142db5760dc8190556142e1565b60de8190555b60d25460d35460405163095ea7b360e01b81526001600160a01b0391821660048201526024810184905291169063095ea7b3906044015b600060405180830381600087803b15801561433257600080fd5b505af115801561139a573d6000803e3d6000fd5b600061435460036014615a04565b6014835161436291906159da565b6136209190615790565b6000808061437a848261496f565b92506143878460146149d4565b905061439f61439860036014615a04565b859061496f565b91509193909250565b60606136206143b960036014615a04565b6143c560036014615a04565b84516143d191906159da565b849190614a7f565b600054610100900460ff166144005760405162461bcd60e51b815260040161108c90615c4d565b610e1f614b8c565b600054610100900460ff1661442f5760405162461bcd60e51b815260040161108c90615c4d565b610e1f614bbc565b80516a636f6e736f6c652e6c6f67602083016000808483855afa5050505050565b604080516001600160a01b038416602482015260448082018490528251808303909101815260649091019091526020810180516001600160e01b031663095ea7b360e01b1790526144a98482614bef565b611793576040516001600160a01b038481166024830152600060448301526144de91869182169063095ea7b390606401613448565b6117938482614531565b60655460ff16610e1f5760405162461bcd60e51b815260206004820152601460248201527314185d5cd8589b194e881b9bdd081c185d5cd95960621b604482015260640161108c565b60006145466001600160a01b03841683614c92565b9050805160001415801561456b5750808060200190518101906145699190615a73565b155b15612dc557604051635274afe760e01b81526001600160a01b038416600482015260240161108c565b60655460ff1615610e1f5760405162461bcd60e51b815260206004820152601060248201526f14185d5cd8589b194e881c185d5cd95960821b604482015260640161108c565b6000826001600160a01b0316846001600160a01b031611156145fa579192915b6001600160a01b0384166146436fffffffffffffffffffffffffffffffff60601b606085901b1661462b8787615ecd565b6001600160a01b0316866001600160a01b0316613635565b61464d9190615790565b949350505050565b6000826001600160a01b0316846001600160a01b03161115614675579192915b61464d6001600160801b03831661468c8686615ecd565b6001600160a01b0316600160601b613635565b80156147b7576000308360008660016040516020016146c2959493929190615eed565b60408051808303601f190181526001808452838301909252925060009190816020015b60608152602001906001900390816146e5579050509050818160008151811061471057614710615394565b6020026020010181905250856001600160a01b0316633593564c600060f81b60405160200161474f91906001600160f81b031991909116815260010190565b60405160208183030381529060405283426040518463ffffffff1660e01b815260040161477e93929190615f31565b600060405180830381600087803b15801561479857600080fd5b505af11580156147ac573d6000803e3d6000fd5b505050505050611793565b60006147c284612ff9565b90506000308460008460016040516020016147e1959493929190615fac565b60408051808303601f190181526001808452838301909252925060009190816020015b6060815260200190600190039081614804579050509050818160008151811061482f5761482f615394565b6020026020010181905250866001600160a01b0316633593564c600860f81b60405160200161486e91906001600160f81b031991909116815260010190565b60405160208183030381529060405283426040518463ffffffff1660e01b815260040161431893929190615f31565b60008060006148ac8685614ca0565b90506148b88582615fdc565b92506148c48582616001565b915050935093915050565b6000826001600160a01b0316846001600160a01b031611156148ef579192915b6000614912856001600160a01b0316856001600160a01b0316600160601b613635565b9050610cd161493484836149268989615ecd565b6001600160a01b0316613635565b614cea565b6000826001600160a01b0316846001600160a01b03161115614959579192915b61464d61493483600160601b6149268888615ecd565b600061497c826014615a04565b835110156149c45760405162461bcd60e51b8152602060048201526015602482015274746f416464726573735f6f75744f66426f756e647360581b604482015260640161108c565b500160200151600160601b900490565b6000816149e2816003615a04565b1015614a245760405162461bcd60e51b8152602060048201526011602482015270746f55696e7432345f6f766572666c6f7760781b604482015260640161108c565b614a2f826003615a04565b83511015614a765760405162461bcd60e51b8152602060048201526014602482015273746f55696e7432345f6f75744f66426f756e647360601b604482015260640161108c565b50016003015190565b606081614a8d81601f615a04565b1015614acc5760405162461bcd60e51b815260206004820152600e60248201526d736c6963655f6f766572666c6f7760901b604482015260640161108c565b614ad68284615a04565b84511015614b1a5760405162461bcd60e51b8152602060048201526011602482015270736c6963655f6f75744f66426f756e647360781b604482015260640161108c565b606082158015614b395760405191506000825260208201604052614b83565b6040519150601f8416801560200281840101858101878315602002848b0101015b81831015614b72578051835260209283019201614b5a565b5050858452601f01601f1916604052505b50949350505050565b600054610100900460ff16614bb35760405162461bcd60e51b815260040161108c90615c4d565b610e1f336135ba565b600054610100900460ff16614be35760405162461bcd60e51b815260040161108c90615c4d565b6065805460ff19169055565b6000806000846001600160a01b031684604051614c0c9190616026565b6000604051808303816000865af19150503d8060008114614c49576040519150601f19603f3d011682016040523d82523d6000602084013e614c4e565b606091505b5091509150818015614c78575080511580614c78575080806020019051810190614c789190615a73565b8015610cd15750505050506001600160a01b03163b151590565b606061361d83836000614d05565b600080614cad8385616042565b905060008460020b128015614ccd5750614cc78385616073565b60020b15155b15614ce05780614cdc81616095565b9150505b61464d838261583b565b806001600160801b0381168114614d0057600080fd5b919050565b606081471015614d2a5760405163cd78605960e01b815230600482015260240161108c565b600080856001600160a01b03168486604051614d469190616026565b60006040518083038185875af1925050503d8060008114614d83576040519150601f19603f3d011682016040523d82523d6000602084013e614d88565b606091505b509150915061415e868383606082614da857614da382614def565b6136e2565b8151158015614dbf57506001600160a01b0384163b155b15614de857604051639996b31560e01b81526001600160a01b038516600482015260240161108c565b50806136e2565b805115614dff5780518082602001fd5b604051630a12f52160e11b815260040160405180910390fd5b6040518060600160405280614e5e6040518060c0016040528060008152602001600081526020016000815260200160008152602001606081526020016000151581525090565b815260200160008152602001600081525090565b90815260200190565b6001600160a01b0381168114610a1657600080fd5b600060208284031215614ea257600080fd5b81356136e281614e7b565b8060020b8114610a1657600080fd5b600060208284031215614ece57600080fd5b81356136e281614ead565b60008151808452602080850194506020840160005b83811015614f135781516001600160a01b031687529582019590820190600101614eee565b509495945050505050565b60208152600061361d6020830184614ed9565b60008083601f840112614f4357600080fd5b50813567ffffffffffffffff811115614f5b57600080fd5b602083019150836020828501011115614f7357600080fd5b9250929050565b600080600080600060808688031215614f9257600080fd5b8535614f9d81614e7b565b94506020860135614fad81614e7b565b935060408601359250606086013567ffffffffffffffff811115614fd057600080fd5b614fdc88828901614f31565b969995985093965092949392505050565b600060208284031215614fff57600080fd5b813563ffffffff811681146136e257600080fd5b60005b8381101561502e578181015183820152602001615016565b50506000910152565b6000815180845261504f816020860160208601615013565b601f01601f19169290920160200192915050565b60208152600061361d6020830184615037565b8060060b8114610a1657600080fd5b60006020828403121561509757600080fd5b81356136e281615076565b6000608082840312156150b457600080fd5b50919050565b6000806000806000806000806000806101808b8d0312156150da57600080fd5b8a356150e581614e7b565b995060208b01356150f581614e7b565b985060408b013561510581614e7b565b975060608b013561511581614e7b565b965060808b013561512581614e7b565b955060a08b013561513581614e7b565b945060c08b013561514581614ead565b935060e08b013567ffffffffffffffff8082111561516257600080fd5b818d0191508d601f83011261517657600080fd5b81358181111561518557600080fd5b8e60208260051b850101111561519a57600080fd5b6020830195508094505050506151b48c6101008d016150a2565b90509295989b9194979a5092959850565b6000602082840312156151d757600080fd5b5035919050565b600080604083850312156151f157600080fd5b50508035926020909101359150565b6000806020838503121561521357600080fd5b823567ffffffffffffffff81111561522a57600080fd5b61523685828601614f31565b90969095509350505050565b60208152600082516060602084015280516080840152602081015160a0840152604081015160c0840152606081015160e0840152608081015160c0610100850152615291610140850182615037565b905060a082015115156101208501526020850151604085015260408501516060850152809250505092915050565b6000602082840312156152d157600080fd5b5051919050565b8051614d0081614ead565b805161ffff81168114614d0057600080fd5b80518015158114614d0057600080fd5b60008060008060008060c0878903121561531e57600080fd5b865161532981614e7b565b602088015190965061533a81614ead565b9450615348604088016152e3565b9350615356606088016152e3565b9250615364608088016152e3565b915061537260a088016152f5565b90509295509295509295565b634e487b7160e01b600052604160045260246000fd5b634e487b7160e01b600052603260045260246000fd5b6020808252825182820181905260009190848201906040850190845b818110156153e857835163ffffffff16835292840192918401916001016153c6565b50909695505050505050565b60405160c0810167ffffffffffffffff811182821017156154175761541761537e565b60405290565b604051601f8201601f1916810167ffffffffffffffff811182821017156154465761544661537e565b604052919050565b600067ffffffffffffffff8211156154685761546861537e565b5060051b60200190565b600082601f83011261548357600080fd5b815160206154986154938361544e565b61541d565b8083825260208201915060208460051b8701019350868411156154ba57600080fd5b602086015b848110156154df5780516154d281614e7b565b83529183019183016154bf565b509695505050505050565b600080604083850312156154fd57600080fd5b825167ffffffffffffffff8082111561551557600080fd5b818501915085601f83011261552957600080fd5b815160206155396154938361544e565b82815260059290921b8401810191818101908984111561555857600080fd5b948201945b8386101561557f57855161557081615076565b8252948201949082019061555d565b9188015191965090935050508082111561559857600080fd5b506155a585828601615472565b9150509250929050565b634e487b7160e01b600052601160045260246000fd5b600682810b9082900b03667fffffffffffff198112667fffffffffffff82131715613620576136206155af565b634e487b7160e01b600052601260045260246000fd5b60008160060b8360060b8061561f5761561f6155f2565b667fffffffffffff1982146000198214161561563d5761563d6155af565b90059392505050565b600181811c9082168061565a57607f821691505b6020821081036150b457634e487b7160e01b600052602260045260246000fd5b60006020828403121561568c57600080fd5b815160ff811681146136e257600080fd5b600181815b808511156156d85781600019048211156156be576156be6155af565b808516156156cb57918102915b93841c93908002906156a2565b509250929050565b6000826156ef57506001613620565b816156fc57506000613620565b8160018114615712576002811461571c57615738565b6001915050613620565b60ff84111561572d5761572d6155af565b50506001821b613620565b5060208310610133831016604e8410600b841016171561575b575081810a613620565b615765838361569d565b8060001904821115615779576157796155af565b029392505050565b600061361d60ff8416836156e0565b60008261579f5761579f6155f2565b500490565b6040815260008084546157b681615646565b80604086015260606001808416600081146157d857600181146157f457615826565b60ff1985166060890152606084151560051b8901019550615826565b8960005260208060002060005b8681101561581c5781548b8201870152908401908201615801565b8a01606001975050505b50505050506020929092019290925292915050565b60008260020b8260020b028060020b915080821461585b5761585b6155af565b5092915050565b8051614d0081614e7b565b60006020828403121561587f57600080fd5b81516136e281614e7b565b6000808335601e198436030181126158a157600080fd5b83018035915067ffffffffffffffff8211156158bc57600080fd5b602001915036819003821315614f7357600080fd5b601f821115612dc5576000816000526020600020601f850160051c810160208610156158fa5750805b601f850160051c820191505b81811015613ffd57828155600101615906565b67ffffffffffffffff8311156159315761593161537e565b6159458361593f8354615646565b836158d1565b6000601f84116001811461597957600085156159615750838201355b600019600387901b1c1916600186901b1783556159d3565b600083815260209020601f19861690835b828110156159aa578685013582556020948501946001909201910161598a565b50868210156159c75760001960f88860031b161c19848701351681555b505060018560011b0183555b5050505050565b81810381811115613620576136206155af565b8082028115828204841417613620576136206155af565b80820180821115613620576136206155af565b60208152816020820152818360408301376000818301604090810191909152601f909201601f19160101919050565b600681810b9083900b01667fffffffffffff8113667fffffffffffff1982121715613620576136206155af565b600060208284031215615a8557600080fd5b61361d826152f5565b80516001600160801b0381168114614d0057600080fd5b6000806000806000806000806000806000806101808d8f031215615ac857600080fd5b8c516bffffffffffffffffffffffff81168114615ae457600080fd5b9b50615af260208e01615862565b9a50615b0060408e01615862565b9950615b0e60608e01615862565b9850615b1c60808e016152d8565b9750615b2a60a08e016152d8565b9650615b3860c08e016152d8565b9550615b4660e08e01615a8e565b94506101008d015193506101208d01519250615b656101408e01615a8e565b9150615b746101608e01615a8e565b90509295989b509295989b509295989b565b600060a082019050825182526001600160801b03602084015116602083015260408301516040830152606083015160608301526080830151608083015292915050565b60008060408385031215615bdc57600080fd5b505080516020909101519092909150565b815181526020808301516001600160a01b0316908201526040808301516001600160801b0390811691830191909152606092830151169181019190915260800190565b600060208284031215615c4257600080fd5b81516136e281614ead565b6020808252602b908201527f496e697469616c697a61626c653a20636f6e7472616374206973206e6f74206960408201526a6e697469616c697a696e6760a81b606082015260800190565b604081526000615cab6040830185615037565b905060018060a01b03831660208301529392505050565b60006020808385031215615cd557600080fd5b825167ffffffffffffffff80821115615ced57600080fd5b9084019060c08287031215615d0157600080fd5b615d096153f4565b8251815283830151848201526040830151604082015260608301516060820152608083015182811115615d3b57600080fd5b8301601f81018813615d4c57600080fd5b805183811115615d5e57615d5e61537e565b615d70601f8201601f1916870161541d565b93508084528886828401011115615d8657600080fd5b615d9581878601888501615013565b5050816080820152615da960a084016152f5565b60a08201529695505050505050565b81516001600160a01b0316815261018081016020830151615de460208401826001600160a01b03169052565b506040830151615df9604084018260020b9052565b506060830151615e0e606084018260020b9052565b506080830151615e23608084018260020b9052565b5060a083015160a083015260c083015160c083015260e083015160e083015261010080840151818401525061012080840151615e69828501826001600160a01b03169052565b50506101408381015190830152610160928301516001600160a01b0316929091019190915290565b60008060008060808587031215615ea757600080fd5b84519350615eb760208601615a8e565b6040860151606090960151949790965092505050565b6001600160a01b0382811682821603908082111561585b5761585b6155af565b60018060a01b038616815284602082015260ff8416604082015260a060608201526000615f1d60a0830185615037565b905082151560808301529695505050505050565b606081526000615f446060830186615037565b6020838203818501528186518084528284019150828160051b85010183890160005b83811015615f9457601f19878403018552615f82838351615037565b94860194925090850190600101615f66565b50508095505050505050826040830152949350505050565b60018060a01b038616815284602082015260ff8416604082015260a060608201526000615f1d60a0830185614ed9565b600282810b9082900b03627fffff198112627fffff82131715613620576136206155af565b600281810b9083900b01627fffff8113627fffff1982121715613620576136206155af565b60008251616038818460208701615013565b9190910192915050565b60008160020b8360020b80616059576160596155f2565b627fffff1982146000198214161561563d5761563d6155af565b60008260020b80616086576160866155f2565b808360020b0791505092915050565b60008160020b627fffff1981036160ae576160ae6155af565b600019019291505056fea2646970667358221220685d95d23c92db0dfe2a176886d324622249221525c2da8f13e71b1a30fe16e864736f6c63430008170033","linkReferences":{}},"methodIdentifiers":{"balances()":"7bb98a68","balancesOfPool()":"fcc25e13","balancesOfThis()":"00a4b5c9","beefyFeeConfig()":"4746fb55","beefyFeeRecipient()":"8e145459","beforeAction()":"17dd7a72","currentTick()":"065e5360","deposit()":"d0e30db0","depositFee()":"67a52793","factory()":"c45a0155","fees()":"9af1d35a","gauge()":"a6f19c84","getAllFees()":"b20feaaf","getStratFeeId()":"8cfc0250","harvest()":"4641257d","harvest(address)":"0e5c011e","initialize(address,address,address,address,address,address,int24,bytes[],(address,address,address,address))":"3c334dd5","isCalm()":"9bdde46b","keeper()":"aced1661","lastHarvest()":"f1a392da","lockedProfit()":"44b81396","lpToken0()":"5ee167c0","lpToken0ToNativePath()":"1dcfeddd","lpToken0ToNativePrice()":"9c6d4904","lpToken1()":"877562b6","lpToken1ToNativePath()":"953d329f","lpToken1ToNativePrice()":"16b9cd9c","maxTickDeviation()":"696c58e5","moveTicks()":"c7d54132","native()":"11b0b42d","nftManager()":"e88b91ea","onERC721Received(address,address,uint256,bytes)":"150b7a02","output()":"f20eaeb8","outputToNative()":"13e120b1","outputToNativePath()":"e48f98fd","owner()":"8da5cb5b","panic(uint256,uint256)":"60991346","paused()":"5c975abb","pool()":"16f0115b","positionAlt()":"99cd2446","positionMain()":"bc415d8a","positionWidth()":"8097e249","price()":"a035b1fe","quoter()":"c6bbd5a7","range()":"e97206a9","renounceOwnership()":"715018a6","retireVault()":"b3a60cb3","rewardPool()":"66666aa9","setDeviation(int56)":"362c28c6","setOutputToNativePath(bytes)":"886e1d2d","setPositionWidth(int24)":"12cf1381","setRewardPool(address)":"78238c37","setStratFeeId(uint256)":"3e55f932","setStrategist(address)":"c7b9d530","setTwapInterval(uint32)":"1d27050f","setUnirouter(address)":"d92f3d73","sqrtPrice()":"b83d2683","strategist()":"1fe4a686","totalLocked0()":"2b950b66","totalLocked1()":"04c404b3","transferOwnership(address)":"f2fde38b","twap()":"1208aa18","twapInterval()":"3c1d5df0","unirouter()":"257ae0de","unpause()":"3f4ba83a","vault()":"fbfa77cf","withdraw(uint256,uint256)":"441a3e70","withdrawFee()":"e941fa78"},"id":16}